:020000040800F2
:1000000000000220593E0008053D00080D3D000893
:10001000153D00081D3D0008253D000800000000BA
:100020000000000000000000000000002D3D00085E
:100030003B3D000800000000493D0008573D000816
:10004000A93E0008A93E0008A93E0008A93E0008F4
:10005000A93E0008A93E0008A93E0008A93E0008E4
:10006000A93E0008A93E0008A93E0008A93E0008D4
:10007000A93E0008A93E0008A93E0008A93E0008C4
:10008000A93E0008A93E0008A93E0008A93E0008B4
:10009000A93E0008A93E0008A93E0008A93E0008A4
:1000A000A93E0008A93E0008A93E0008A93E000894
:1000B000A93E0008A93E0008A93E0008A93E000884
:1000C000A93E0008A93E0008A93E0008A93E000874
:1000D000A93E0008653D0008793D00088D3D0008F7
:1000E000A93E0008A13D0008A93E0008A93E00085D
:1000F000A93E0008A93E0008A93E0008A93E000844
:10010000A93E0008A93E0008A93E0008A93E000833
:10011000A93E0008A93E0008A93E0008B53D000818
:10012000A93E0008A93E0008A93E0008A93E000813
:10013000A93E0008A93E0008A93E0008A93E000803
:10014000A93E0008A93E0008A93E0008A93E0008F3
:10015000A93E0008A93E0008A93E0008A93E0008E3
:10016000A93E0008A93E0008A93E0008A93E0008D3
:10017000A93E0008A93E0008A93E000800000000B2
:08018000A93E0008A93E000899
:1001900010B5054C237833B9044B13B10448AFF3C1
:1001A00000800123237010BD6000002000000000CB
:1001B00090D2000808B5034B1BB103490348AFF3C5
:1001C000008008BD000000006400002090D20008FC
:1001D00010F8012B11F8013B012A28BF9A42F7D0F1
:1001E000D01A7047034613F8012B002AFBD1181AC6
:1001F000013870470000000000000000000000000F
:1002000001F0FF01102A2BDB10F0070F08D010F8C7
:10021000013B013A8B422DD010F0070F42B3F6D1CB
:10022000F0B441EA012141EA014122F007047FF0E4
:1002300000070023F0E80256083C85EA010586EA3B
:10024000010685FA47F5A3FA87F586FA47F6A5FA77
:1002500087F68EB9EED1F0BC01F0FF0102F0070283
:1002600032B110F8013B013A83EA010313B1F8D12E
:100270000020704701387047002D06BF354603380F
:10028000073815F0010F07D1013015F4807F02BF48
:10029000013015F4C03F0130F0BC0138704700BF99
:1002A00053B94AB9002908BF00281CBF4FF0FF31DD
:1002B0004FF0FF3000F06AB9ADF1080C6DE904CEE3
:1002C00000F006F8DDF804E0DDE9022304B0704731
:1002D0002DE9F047089D0C46002B4ED194468C45E5
:1002E0008646B2FA82F262D94AB1C2F12003914045
:1002F00020FA03F30CFA02FC194300FA02FE4FEA5B
:100300001C471FFA8CF6B1FBF7F44FEA1E4307FBBC
:10031000141143EA014304FB06F199420AD91CEB8C
:10032000030304F1FF3080F01281994240F20F8103
:10033000023C6344591A1FFA8EF3B1FBF7F007FB36
:10034000101143EA014300FB06F69E420AD91CEB5A
:10035000030300F1FF3180F0FC809E4240F2F980FF
:10036000634402389B1B40EA044000211DB1D34086
:100370000022C5E90032BDE8F0878B4205D90DB1F6
:10038000C5E9000100210846F5E7B3FA83F1002929
:1003900046D1A34202D39042C0F0F080861A64EBAB
:1003A00003030120002DE6D0C5E90063E3E7002A3E
:1003B00040F09080A1EB0C044FEA1C481FFA8CF728
:1003C0000121B4FBF8F64FEA1E4308FB164443EA4A
:1003D000044307FB06F0984208D91CEB030306F11F
:1003E000FF3402D2984200F2CD8026461C1A1FFA32
:1003F0008EF3B4FBF8F008FB104443EA044300FB1F
:1004000007F79F4208D91CEB030300F1FF3402D227
:100410009F4200F2B0802046DB1B40EA0640A5E781
:10042000C1F120068B4022FA06F71F4320FA06FC92
:1004300004FA01F343EA0C03F44000FA01F8380C23
:100440004FEA1349B4FBF0FE1FFA87FC00FB1E4481
:1004500049EA04440EFB0CF9A14502FA01F20AD95B
:100460003C190EF1FF3A80F08480A14540F2818072
:10047000AEF1020E3C44A4EB09041FFA83F9B4FB6D
:10048000F0F300FB134449EA044403FB0CFCA445CD
:1004900007D93C1903F1FF3067D2A44565D9023B67
:1004A0003C4443EA0E40A0FB0293A4EB0C049C42A4
:1004B000CE469C4651D34ED055B1B8EB0E0364EBFB
:1004C0000C0404FA06F6CB401E43CC40C5E9006498
:1004D000002150E7C2F1200320FA03F10CFA02FCDC
:1004E00024FA03F394400C434FEA1C4800FA02FE3E
:1004F0001FFA8CF7B3FBF8F008FB1031230C43EA2A
:10050000014300FB07F1994208D91CEB030300F1FA
:10051000FF362CD299422AD9023863445B1AA4B21E
:10052000B3FBF8F108FB113344EA034401FB07F382
:10053000A34208D91CEB040401F1FF3613D2A342F5
:1005400011D902396444E41A41EA004139E704460A
:10055000F0E6084606E7C845AED2B9EB020E63EBFB
:10056000070C0138A8E73146EDE7034699E7304626
:10057000D4E7D6467FE7634402384DE70646234674
:1005800008460FE7023E634430E700BF704700BFF4
:1005900080B582B000AF0346FB71F91D4FF0FF3309
:1005A0000122034806F09BF900BF0837BD4680BD15
:1005B0001C06002080B582B000AF0623FB7100222C
:1005C0001021084804F048F8FB791846FFF7E0FFCF
:1005D00001221021034804F03FF800BF0837BD4650
:1005E00080BD00BF0000024080B582B000AF042390
:1005F000FB7100221021084804F02EF8FB79184600
:10060000FFF7C6FF01221021034804F025F800BFC0
:100610000837BD4680BD00BF0000024080B500AF76
:10062000FFF7C8FF00BF80BD80B500AFFFF7DCFF5C
:1006300000BF80BD80B584B000AF03463960FB8049
:100640001346BB80BB88002B02D03B68002B01D136
:10065000012339E0FFF7E2FF002210211C4803F0DC
:10066000FBFF02233B72FB881B14DBB27B72FB880F
:100670001B0A9BB2DBB2BB72FB88DBB2FB7207F1D9
:1006800008014FF0FF330422124806F028F9034610
:10069000FB73FB7B002B06D0012210210C4803F0DA
:1006A000DBFFFB7B10E0BA884FF0FF333968094865
:1006B00006F015F90346FB7301221021044803F0EC
:1006C000CBFFFFF7B1FFFB7B18461037BD4680BD5F
:1006D000000002401C06002080B582B000AF034637
:1006E0003960FB801346BB80BA88FB88396818469E
:1006F000FFF7A0FF034618460837BD4680BD00003F
:1007000080B584B000AF03463960FB801346BB80E0
:10071000BB88002B02D03B68002B01D1012335E0C0
:10072000002210211B4803F097FF03233B72FB8834
:100730001B14DBB27B72FB881B0A9BB2DBB2BB7261
:10074000FB88DBB2FB7207F108014FF0FF33042294
:10075000114806F0C4F80346FB73FB7B002B06D060
:10076000012210210B4803F077FFFB7B0EE0BA88D3
:100770004FF0FF333968084806F0F5F90346FB737C
:1007800001221021034803F067FFFB7B1846103756
:10079000BD4680BD000002401C06002080B582B02E
:1007A00000AF03463960FB801346BB80BA88FB88E4
:1007B00039681846FFF7A4FF034618460837BD46B8
:1007C00080BD000080B582B000AFBB1D012219467C
:1007D0000020FFF7E3FF0346FB71BB79012B0CBF41
:1007E00001230023DBB21A46034B1A70FB7918462B
:1007F0000837BD4680BD00BF0208002080B582B02A
:1008000000AF074B1B78FB71FB1D0122194600202E
:10081000FFF762FF034618460837BD4680BD00BF9C
:100820000208002080B582B000AFBB1D012219462E
:100830000120FFF7B3FF0346FB71BB79012B0CBF0F
:1008400001230023DBB21A46034B1A70FB791846CA
:100850000837BD4680BD00BF0108002080B582B0CA
:1008600000AF074B1B78FB71FB1D012219460120CD
:10087000FFF732FF034618460837BD4680BD00BF6C
:100880000108002080B582B000AFBB1D01221946CF
:100890001020FFF783FF0346FB71BB79012B0CBFD0
:1008A00001230023DBB21A46034B1A70FB7918466A
:1008B0000837BD4680BD00BF0308002080B582B068
:1008C00000AF074B1B78FB71FB1D0122194610205E
:1008D000FFF702FF034618460837BD4680BD00BF3C
:1008E0000308002080B586B000AF786002F08AFE71
:1008F00078617B69002B01D101232FE07B68002BFD
:100900000AD07868FFF76EFC03460133802B03D8CA
:100910007B681B78002B01D101231FE00123FB73AF
:1009200007F10F03012219461020FFF7D5FE0346F9
:10093000FB74FB7C002B01D0FB7C0FE07868FFF799
:1009400051FC03469BB201333B823B8A1A467968CD
:100950001120FFF7C1FE0346FB74FB7C18461837D5
:10096000BD4680BD80B584B000AF02F04BFEB860DC
:10097000BB68002B01D101232CE0FB1D012219468D
:100980001020FFF70BFF0346FB73FB7B002B01D00E
:10099000FB7B1FE0FB79012B0FD1BB687F2219463F
:1009A0001120FFF7FBFE0346FB73FB7B002B07D1F7
:1009B000BB68002283F87F2002E0BB6800221A7027
:1009C000FB79012B0CBF01230023DBB21A46034B3A
:1009D0001A70FB7B18461037BD4680BD0308002007
:1009E00080B582B000AFBB1D012219469120FFF7F0
:1009F000D5FE0346FB71BB79012B0CBF01230023FD
:100A0000DBB21A46034B1A70FB7918460837BD460D
:100A100080BD00BF0408002080B582B000AF074B46
:100A20001B78FB71FB1D012219469120FFF754FE34
:100A3000034618460837BD4680BD00BF04080020A5
:100A400080B584B000AF78607B68002B01D10123B2
:100A50001EE00123BB7307F10E030122194691200A
:100A6000FFF73AFE0346FB73FB7B002B01D0FB7BB9
:100A70000EE07868FFF7B6FB03469BB201339BB2EA
:100A80001A4679689220FFF727FE0346FB73FB7B2B
:100A900018461037BD4680BD80B584B000AF02F067
:100AA000B1FDB860BB68002B01D1012331E0FB1D13
:100AB000012219469120FFF771FE0346FB73FB7B71
:100AC000002B01D0FB7B24E0FB79012B10D1BB680C
:100AD0008033112219469220FFF760FE0346FB7314
:100AE000FB7B002B0BD1BB68002283F8912006E032
:100AF000BB6880331222002118460BF015FBFB79EE
:100B0000012B0CBF01230023DBB21A46034B1A70E2
:100B1000FB7B18461037BD4680BD00BF040800208F
:100B200080B500AF01221021024803F095FD00BFFF
:100B300080BD00BF0000024080B400AF024B1846E9
:100B4000BD465DF8047B70470000001080B500AF23
:100B50000C22002102480BF0E7FA00BF80BD00BF65
:100B60000000001080B584B000AF7860FFF7E4FFAC
:100B7000F8607B68062B21D801A252F823F000BF51
:100B80009D0B0008A50B0008AD0B0008BD0B00086D
:100B9000BD0B0008BD0B0008B50B0008FB68002268
:100BA0009A600EE0FB6801229A600AE0FB6802226C
:100BB0009A6006E0FB6806229A6002E04FF0FF337D
:100BC00001E0FB689B6818461037BD4680BD00BF3A
:100BD00080B582B000AFFFF7AFFF78607B689B689D
:100BE0003B60314B1B6903F00103012B17D12E4BE6
:100BF0001B6903F00203022B11D12B4B1B6903F07D
:100C00000403042B0BD1284B1B6903F00803082BAA
:100C100005D10020FFF7A6FF38603B683FE0224B7C
:100C20001B6903F00103012B17D11F4B1B6903F054
:100C30000203022B11D11C4B1B6903F00403042B8C
:100C40000BD0194B1B6903F00803082B05D00220B9
:100C5000FFF788FF38603B6821E0144B00221A70D0
:100C6000114B1B6903F00103012B17D00E4B1B69BD
:100C700003F00203022B11D10B4B1B6903F0040399
:100C8000042B0BD0084B1B6903F00803082B05D07D
:100C90000620FFF767FF38603B6800E03B681846B6
:100CA0000837BD4680BD00BF00100240000800208C
:100CB00080B400AF024B1846BD465DF8047B704718
:100CC0000C00001080B500AF1C22002102480BF080
:100CD0002BFA00BF80BD00BF0C00001080B586B0AD
:100CE00000AF1A4B3B61386900F09EF9F860184B71
:100CF000BB60184B7B60FB68002B14D01649F8686A
:100D00000BF03AFA0346002B0DD0B868FFF76AFAE9
:100D100003469AB24FF0FF33B968104806F086FEDA
:100D200000237B610CE07868FFF75CFA03469AB217
:100D30004FF0FF337968094806F078FE01237B61A4
:100D40007B6918461837BD4680BD00BFA8D2000891
:100D5000B0D20008CCD20008E4D20008040700207A
:100D600080B5AAB002AF0023C7F89C3002F0A4FA05
:100D7000C7F8980002F01CFBC7F894000023C7F8DE
:100D800090302F4BC7F88C302E4BC7F8883000239B
:100D90007B6007F108037C22002118460BF0C4F9A0
:100DA000381DD7F894300093D7F89830264A802120
:100DB0000BF04AF9C7F88400D7F88430002B03DB26
:100DC000D7F884307F2B01DD01F026FB3B1D184650
:100DD00000F02AF9C7F89000D7F89030002B18D00F
:100DE0001A49D7F890000BF0C7F90346002B10D032
:100DF000D7F88C00FFF7F6F903469AB24FF0FF33AD
:100E0000D7F88C10124806F011FE0023C7F89C306A
:100E10000FE0D7F88800FFF7E5F903469AB24FF0E4
:100E2000FF33D7F888100A4806F000FE0123C7F800
:100E30009C30D7F89C301846A037BD4680BD00BF17
:100E4000E8D2000810D3000838D30008E4D2000824
:100E50000407002080B5ADF5846D00AF07F584630D
:100E6000A3F21C43186007F58463A3F58263002294
:100E70001A6004334FF47F72002118460BF054F9C6
:100E80000023C7F81C3403F077F8C7F8180407F5F7
:100E90008463A3F21C431868FFF7A4F9C7F8100491
:100EA000D7F810349AB207F58463A3F21C414FF0CF
:100EB000FF330968584806F0B9FD0346002B53D0AC
:100EC00001F0AAFA50E007F10F014FF496730122E6
:100ED000514806F036FE0346002B3BD1D7F81C34B0
:100EE0005A1CC7F81C2407F58462A2F2114211783B
:100EF00007F58462A2F58262D1540622D7F81C3429
:100F000093420ED30622D7F81C349B1A07F1100225
:100F100013440622414918460BF0F6F80346002B0D
:100F20002CD00922D7F81C3493420ED30922D7F8CB
:100F30001C349B1A07F11002134409223849184641
:100F40000BF0E2F80346002B15D003F015F8C7F8B4
:100F5000180409E003F010F80246D7F81834D31A41
:100F600044F62062934208D8D7F81C3440F2FE328F
:100F70009342A8D902E000BF00E000BF02F0FCFFEE
:100F8000C7F814041DE007F10F014FF49673012216
:100F9000214806F0D6FD0346002B12D1D7F81C34A9
:100FA0005A1CC7F81C2407F58462A2F2114211787A
:100FB00007F58462A2F58262D15402F0DDFFC7F822
:100FC0001404D7F81C3440F2FE32934208D802F0E1
:100FD000D3FF0246D7F81434D31AB3F5FA7FD2D32D
:100FE00007F58463A3F58262D7F81C34134400220A
:100FF0001A70D7F81C34002B09D0D7F81C349AB2D9
:1010000007F110014FF0FF33064806F00FFD00BF57
:1010100007F58467BD4680BD4C070020DCE0000872
:10102000E4E000080407002080B588B000AF7860D5
:101030000023FB6102F0A0FFB8617868FFF7D2F8E7
:1010400038613B699AB24FF0FF337968454806F042
:10105000EDFC0346002B42D001F0DEF93FE007F142
:101060000F014FF4967301223E4806F06AFD0346D5
:10107000002B2BD1FB695A1CFA61F97B3A4AD154F7
:101080000622FB6993420CD30622FB699B1A364A5F
:1010900013440622354918460BF036F80346002B58
:1010A00026D00922FB6993420CD30922FB699B1AC3
:1010B0002D4A134409222E4918460BF025F8034601
:1010C000002B12D002F058FFB86108E002F054FF84
:1010D0000246BB69D31A44F62062934207D8FB69E3
:1010E00040F2FE329342BAD902E000BF00E000BFF6
:1010F00002F042FF786113E007F10F014FF496739D
:101100000122184806F01DFD0346002B08D1FB699B
:101110005A1CFA61F97B144AD15402F02DFF786110
:10112000FB6940F2FE32934207D802F025FF0246E7
:101130007B69D31AB3F5FA7FDED30B4AFB691344FC
:1011400000221A70FB69002B07D0FB699AB24FF09E
:10115000FF330549074806F069FC034B1846203762
:10116000BD4680BD4C070020C4000020DCE0000824
:10117000E4E000080407002080B586B000AF00233B
:101180007B611A4B3B613869FFF74EFFF860184BE3
:10119000BB60184B7B60FB68002B14D01649F868C5
:1011A0000AF0EAFF0346002B0DD0B868FFF71AF8E3
:1011B00003469AB24FF0FF33B968104806F036FC88
:1011C00000237B610CE07868FFF70CF803469AB2C5
:1011D0004FF0FF337968094806F028FC01237B6152
:1011E0007B6918461837BD4680BD00BF50D3000844
:1011F0005CD3000880D30008E4D200080407002074
:1012000080B5C6B000AF0023C7F81431394BC7F81A
:1012100010313846D7F81031374A4FF480710AF050
:1012200013FFC7F80C01D7F80C31002B03DBD7F8FC
:101230000C31FF2B01DD01F0EFF83B461846FFF7BC
:10124000F3FEC7F814012D49D7F814010AF094FFF2
:10125000C7F80801D7F80831002B27D0D7F8083194
:101260000933C7F808312221D7F808010AF064FFD2
:10127000C7F80401D7F80431002B17D0D7F80421A0
:10128000D7F80831D31AC7F80031D7F800317F2BCF
:101290000CD8D7F80021D7F8081119480AF059FFDF
:1012A000174AD7F80031134400221A70144B1B78E8
:1012B000002B12D01248FEF795FF03469AB24FF06A
:1012C000FF330F490F4806F0B1FB4FF0FF33022206
:1012D0000D490C4806F0AAFB06E04FF0FF33192237
:1012E0000A49084806F0A2FB054B184607F58C771B
:1012F000BD4680BDA0D30008D8D3000840D4000864
:10130000C4040020040700204CD4000850D4000876
:1013100080B588B000AF3A4B7B617869FFF784FEF7
:101320003861384938690AF027FFF860FB68002BFC
:1013300041D0FB680B33FB602221F8680AF0FCFE09
:10134000B860BB68002B36D0BA68FB68D31A7B60E4
:101350007B68112B2FD80023FB610023BB6121E0A8
:10136000FA68BB6913441B783A2B18D0FA68BB693A
:1013700013441B78FB70FB780133234A13441B781A
:1013800003F00303022B03D1FB78A3F1200200E05A
:10139000FA78FB69591CF961D1B21C4AD154BB6976
:1013A0000133BB61BA697B689A42D9D3174AFB699A
:1013B000134400221A701548FEF714FF03469AB230
:1013C0004FF0FF331149124806F030FB4FF0FF3366
:1013D000022210490E4806F029FB0C4B1B78002B0B
:1013E00008D14FF0FF331F220B49094806F01EFBBE
:1013F000002300E0054B18462037BD4680BD00BFE6
:101400006CD400087CD4000890E500084405002056
:10141000040700204CD4000888D4000880B5A8B088
:1014200000AF78600023C7F89C30FFF741FCC7F895
:10143000940007F10C007B68B34A80210AF004FE97
:10144000C7F89000D7F89030002B03DBD7F8903026
:101450007F2B04DD00F0E0FF0123C7F89C3007F18B
:101460000C031846FFF7F6FCA848FFF7F3FCA84862
:10147000FFF7DAFDC7F88C00FFF71AFCC7F89400F5
:10148000A449D7F88C000AF077FEC7F89800D7F87F
:101490009830002B0DD0D7F898300C33C7F898301F
:1014A0000322D7F898109C480AF053FE9A4B00226A
:1014B000DA70994801F0B0FC0246D7F89430DA604F
:1014C0009548FEF78FFE03469AB24FF0FF339249DC
:1014D000924806F0ABFA4FF0FF33022290498F4852
:1014E00006F0A4FAD7F89830002B0DD0D7F8983032
:1014F0000433C7F898300322D7F8981089480AF0C7
:1015000028FE884B0022DA70864801F085FC0246EE
:10151000D7F894305A608348FEF764FE03469AB2C7
:101520004FF0FF337F497D4806F080FA4FF0FF33DC
:1015300002227B49794806F079FAD7F89830002BD7
:101540000DD0D7F898300433C7F898300222D7F876
:10155000981075480AF0FDFD734B00229A7072488E
:101560000AF0E7FC0246D7F894309A606E48FEF71E
:1015700039FE03469AB24FF0FF336B49674806F0D5
:1015800055FA4FF0FF3302226549644806F04EFADF
:10159000D7F89830002B0DD0D7F898300333C7F820
:1015A00098300222D7F8981060480AF0D2FD5F4BBD
:1015B00000229A705D480AF0BCFC0246D7F89430CD
:1015C0001A615A48FEF70EFE03469AB24FF0FF33F7
:1015D0005649524806F02AFA4FF0FF33022250498A
:1015E0004E4806F023FAD7F89830002B0DD0D7F8E4
:1015F00098300333C7F898300222D7F898104C4837
:101600000AF0A7FD4A4B00229A7049480AF091FC63
:101610000246D7F894305A614548FEF7E3FD034689
:101620009AB24FF0FF3342493C4806F0FFF94FF0C1
:10163000FF3302223A49394806F0F8F9D7F89830D2
:10164000002B0DD0D7F898300333C7F8983002221A
:10165000D7F8981037480AF07CFD364B00229A7074
:1016600034480AF066FC0246D7F894309A61314853
:10167000FEF7B8FD03469AB24FF0FF332D492748D5
:1016800006F0D4F94FF0FF3302222549234806F033
:10169000CDF9D7F89830002B0DD0D7F89830033318
:1016A000C7F898300422D7F8981023480AF051FD63
:1016B000214B00221A7120480AF03BFC0246D7F861
:1016C00094301A601C48FEF78DFD03469AB24FF025
:1016D000FF331949114806F0A9F94FF0FF330222F0
:1016E0000F490E4806F0A2F9D7F89C30012B01D122
:1016F000012304E00023C7F89C30D7F89C3018463B
:10170000A037BD4680BD00BFA8D40008E0D40008C3
:10171000F4D4000808D5000858050020040700206C
:101720004CD400085C050020600500206405002002
:10173000680500206C0500207005002080B5ADF51F
:10174000767D02AF0023C7F8CC330023C7F8C83337
:1017500007F29B31C8230122C34806F0F2F9034681
:10176000002B97F89B332B2BF2D1D7F8CC335A1C94
:10177000C7F8CC2303F574733B442B2203F8782C71
:101780001BE007F29B31C8230122B74806F0D9F9C4
:101790000346002B01D000F03FFED7F8CC335A1C93
:1017A000C7F8CC2397F89B2303F574733B4403F8E5
:1017B000782C97F89B333A2B04D0D7F8CC333E2BB8
:1017C000DFDD00E000BF07F55672D7F8CC331344D5
:1017D00000221A7007F5AA7307F5AB7207F5567069
:1017E000A2490AF065FC0346022B40F0A5810023C4
:1017F000A7F8C63321E007F29B31C82301229A489B
:1018000006F09FF90346002B01D000F005FED7F843
:10181000C833B3F5FF7F0BDCD7F8C8335A1CC7F8C1
:10182000C82397F89B1307F57472A2F51E72D15462
:10183000B7F8C6330133A7F8C63307F57473A3F5B9
:101840001F731B88B7F8C6239A42D4D307F5747365
:10185000A3F51E72D7F8C833134400221A70002370
:10186000C7F8C0330023C7F8BC3307F1440307F5BA
:10187000A67207F5AC707E490AF01AFC0346022BEB
:1018800025D107F144037B491846FEF7A1FC034626
:10189000002B03D10123C7F8BC3318E007F1440340
:1018A00075491846FEF794FC0346002B03D101232B
:1018B000C7F8C0330BE007F1440370491846FEF740
:1018C00087FC0346002B02D10123C7F8C033D7F8A9
:1018D000BC33002B18D06A4B1B68C7F8B43307F130
:1018E000C400D7F8B433674A80210AF0ADFBC7F8CB
:1018F000B803D7F8B833002B03DBD7F8B8337F2B06
:1019000035DD00F089FD32E0D7F8C033002B16D06A
:101910005D4BC7F8AC33D7F8AC03FEF763FC034666
:10192000C7F8B833D7F8B82307F1C403D7F8AC1316
:1019300018460AF00EFC0023C7F8B43317E0534BE7
:101940001B68C7F8B43307F1C400D7F8B433504A62
:1019500080210AF079FBC7F8B803D7F8B833002B19
:1019600003DBD7F8B8337F2B01DD00F055FDD7F846
:10197000B823D7F8B4331344C7F8A83307F5747302
:10198000A3F27A231B881A46381DD7F8A833009390
:101990001346404A40210AF057FBC7F8A403D7F882
:1019A000A433002B03DBD7F8A4333F2B01DD00F079
:1019B00033FDD7F8A4339AB2391D4FF0FF332A48CC
:1019C00006F034F802F0D8FAC7F8A00307F29B310A
:1019D000C8230122244806F0B4F80346002B03D1A3
:1019E00097F89B333E2B08D002F0C6FA0246D7F890
:1019F000A033D31AC72BE9D900E000BFD7F8B8331A
:101A00009AB207F1C4014FF0FF33174806F00EF801
:101A1000D7F8BC33002B09D0194B1B689AB24FF092
:101A2000FF331D49104806F001F80CE0D7F8C03329
:101A3000002B08D1154B1B689AB24FF0FF331749A2
:101A4000094805F0F3FF02F097FAC7F8A00307F57D
:101A50007473A3F52373124A92E8030083E803002A
:101A60000023C7F8B03340E04C07002054D60008EC
:101A700064D6000870D600087CD600088CD6000812
:101A8000F8E40008B0D6000808D7000800E2000813
:101A90003CD7000898D7000804E2000808E10008D5
:101AA000C0D7000807F29B31C8230122234806F063
:101AB00048F80346002B18D107F57473A3F5237279
:101AC000D7F8B03313441A7897F89B339A4209D168
:101AD000D7F8B0330133C7F8B033D7F8B033072B9A
:101AE00003D10BE00023C7F8B03302F045FA0246F9
:101AF000D7F8A033D31AB3F57A7FD3D3322002F0CC
:101B000047FA07F57473A3F27A231B88381D0C4A31
:101B100040210AF099FAC7F89C03D7F89C33002BB0
:101B200003DBD7F89C333F2B01DD00F075FC3B1D38
:101B30001846FFF779FA05E600BF03E64C070020D8
:101B4000ACD7000880B483B000AF3D4B1B6B3C4A60
:101B500043F0100313633A4B1B6B7B60394B1B68DC
:101B6000384A23F440331360364B1B68354A43F43C
:101B700080331360334B5B68324A23F480735360C5
:101B8000304B9B682F4A23F4403393602D4B9B6866
:101B90002C4A43F4003393602A4BDB68294A23F430
:101BA0004033D360274B1B68264A23F4402313603D
:101BB000244B1B68234A43F480231360214B5B684A
:101BC000204A23F4007353601E4B9B681D4A23F484
:101BD000402393601B4B9B681A4A43F40023936095
:101BE000184BDB68174A23F44023D360154B1B685E
:101BF000144A23F440131360124B1B68114A43F438
:101C0000801313600F4B5B680E4A23F480635360AC
:101C10000C4B9B680B4A23F440139360094B9B6861
:101C2000084A43F400139360064BDB68054A23F42B
:101C30004013D36000BF0C37BD465DF8047B70478E
:101C4000003802400010024080B400AF044B4FF453
:101C500080729A6100BFBD465DF8047B704700BF8B
:101C60000010024080B400AF044B4FF080729A61C4
:101C700000BFBD465DF8047B704700BF0010024006
:101C800080B400AF044B4FF400729A6100BFBD46B0
:101C90005DF8047B704700BF0010024080B400AFC5
:101CA000044B4FF480629A6100BFBD465DF8047B2F
:101CB000704700BF0010024080B400AF044B4FF0EB
:101CC00080629A6100BFBD465DF8047B704700BF2B
:101CD0000010024080B500AF02F0E8F800F054F8C0
:101CE00000F064FA00F0BCF800F02CF900F04AF9BA
:101CF00000F07EF900F0DCF900F004FA00F02CFAB4
:101D000007F0A6FC00F0AAF900F052FE174805F013
:101D10007FFB0346002B01D000F07EFB012214491B
:101D2000144805F0DBFF0346002B01D000F074FBE4
:101D300001221149114805F0D1FF0346002B01D0C3
:101D400000F06AFB00F03EFE00F096FB00F00AFE99
:101D500000F046FE0A4B1B78022B01D001F0A2FCDA
:101D6000084B00221A7000F065FCFCE774060020A6
:101D7000FE07002004070020FF0700209407002032
:101D8000000800200000002080B594B000AF07F1EB
:101D900020033022002118460AF0C6F907F10C038F
:101DA00000221A605A609A60DA601A610023BB60F0
:101DB000294B1B6C284A43F080531364264B1B6C41
:101DC00003F08053BB60BB6800237B60234B1B6820
:101DD000224A43F480431360204B1B6803F4804382
:101DE0007B607B6805233B624FF480337B62012379
:101DF000BB620223BB634FF48003FB6304233B6499
:101E0000A8237B640223BB640723FB6407F1200340
:101E1000184602F03BFC0346002B01D000F0FCFA10
:101E20000F23FB6002233B6100237B614FF4A0532F
:101E3000BB614FF48053FB6107F10C030521184689
:101E400002F09CFE0346002B01D000F0E5FA00BF33
:101E50005037BD4680BD00BF0038024000700040D2
:101E600080B500AF334B344A1A60324B00225A60BF
:101E7000304B7F229A602F4BFF22DA602D4B0022DD
:101E80001A612C4B00225A612A4B00229A61294880
:101E900003F076F90346002B01D000F0BDFA0121D2
:101EA000244803F0E1FC034643F2F222934235D08A
:101EB00043F2F22201211F4803F0BCFC1F4B002219
:101EC0001A701E4B00225A701C4B00229A701B4B3A
:101ED0000022DA60194B00221A61012217491548C5
:101EE00003F0CFF90346002B01D000F095FA144B14
:101EF00001221A70124B01225A70114B01229A7062
:101F00000F4B2522DA7001220D490A4803F0B1FA7D
:101F10000346002B0CD000F07FFA09E001220749AC
:101F2000044803F048FA01220549024803F025FB62
:101F300000BF80BD7805002000280040DC0700209D
:101F4000F007002080B400AF0C4B0D4A1A600B4B19
:101F500000225A60094B00229A60084B0022DA6086
:101F6000064B00221A61054B00225A61034B0022E6
:101F70009A6100BFBD465DF8047B7047980500205C
:101F8000002C014080B500AF174B184A1A60164B61
:101F90004FF482725A60144B00229A60124B002256
:101FA000DA60114B00221A610F4B00225A610E4B6E
:101FB0004FF400729A610C4B0022DA610A4B002246
:101FC0001A62094B00225A62074B00229A62064BA2
:101FD0000A22DA62044804F0F9FB0346002B01D020
:101FE00000F01AFA00BF80BD1C060020003001403E
:101FF00080B582B000AF3B4600221A605A60154B94
:10200000154A1A60134B63225A60124B00229A60E1
:10201000104B40F24732DA600E4B00229A610D48B5
:1020200005F0A6F90346002B01D000F0F5F90023D6
:102030003B6000237B603B461946064805F016FCD2
:102040000346002B01D000F0E7F900BF0837BD467A
:1020500080BD00BF740600200014004080B500AFB2
:10206000114B124A1A60104B4FF4E1325A600E4B7A
:1020700000229A600C4B0022DA600B4B00221A619E
:10208000094B0C225A61084B00229A61064B002230
:10209000DA61054805F07AFC0346002B01D000F018
:1020A000BBF900BF80BD00BFBC060020004C004053
:1020B00080B500AF114B124A1A60104B4FF4E13259
:1020C0005A600E4B00229A600C4B0022DA600B4BD8
:1020D00000221A61094B0C225A61084B00229A61B6
:1020E000064B0022DA61054805F050FC0346002B40
:1020F00001D000F091F900BF80BD00BF04070020AF
:102100000010014080B500AF114B124A1A60104B0D
:102110004FF4E1325A600E4B00229A600C4B0022C1
:10212000DA600B4B00221A61094B0C225A61084BF2
:1021300000229A61064B0022DA61054805F026FC70
:102140000346002B01D000F067F900BF80BD00BF3F
:102150004C0700200044004080B500AF114B124AEC
:102160001A60104B4FF4E1325A600E4B00229A6015
:102170000C4B0022DA600B4B00221A61094B0C2237
:102180005A61084B00229A61064B0022DA61054829
:1021900005F0FCFB0346002B01D000F03DF900BF29
:1021A00080BD00BF940700200048004080B58CB07F
:1021B00000AF07F11C0300221A605A609A60DA60CF
:1021C0001A610023BB614B4B1B6B4A4A43F010035F
:1021D0001363484B1B6B03F01003BB61BB69002307
:1021E0007B61444B1B6B434A43F004031363414B35
:1021F0001B6B03F004037B617B6900233B613D4B58
:102200001B6B3C4A43F0800313633A4B1B6B03F098
:1022100080033B613B690023FB60364B1B6B354AF7
:1022200043F001031363334B1B6B03F00103FB60AB
:10223000FB680023BB602F4B1B6B2E4A43F002034D
:1022400013632C4B1B6B03F00203BB60BB680023C2
:102250007B60284B1B6B274A43F008031363254B15
:102260001B6B03F008037B607B680022102122486F
:1022700002F0F2F900224FF47F41204802F0ECF91D
:102280000F23FB6100233B6201237B6207F11C03E8
:1022900019461A4802F044F81023FB6101233B62FF
:1022A00000237B620023BB6207F11C03194612481E
:1022B00002F036F84FF47F43FB6101233B620023B9
:1022C0007B620023BB6207F11C0319460B4802F036
:1022D00027F84FF47F43FB6100233B6200237B62BE
:1022E00007F11C031946064802F01AF800BF303700
:1022F000BD4680BD00380240000002400010024090
:10230000000C024080B582B000AF78607B681B682B
:10231000044A934201D100F0DFF900BF0837BD46FF
:1023200080BD00BF0014004080B584B000AF78606D
:102330007B681B68284A934209D101222749284813
:1023400005F096FC01222549254805F0C7FC7B686D
:102350001B68244A93422BD1234B1B78FB73234BDE
:102360001B883E2B09D8214B1B885A1C91B21F4A4F
:10237000118019461E4AFB7B5354FB7B0A2B02D06B
:10238000FB7B0D2B0FD1194B1B881A46184B0021D4
:102390009954164B1B881A461549114805F068FCDC
:1023A000124B00221A8001220F49124805F096FCB8
:1023B0007B681B68104A934209D101220F490848E3
:1023C00005F056FC01220D490D4805F087FC00BFC1
:1023D0001037BD4680BD00BF00100140FE07002041
:1023E00004070020004400407C000020C0000020C2
:1023F000800000204C07002000480040FF0700201C
:102400009407002080B483B000AF786000BF0C3721
:10241000BD465DF8047B704780B400AF72B600BF64
:1024200000BFFDE780B582B000AF01F0CBF8786067
:1024300017E001224FF480710E4802F00DF9C82018
:1024400001F0A6FD00224FF480710A4802F004F961
:10245000C82001F09DFD01F0B5F878607B68002B85
:1024600003D07B68012BE4D000E000BF00BF083739
:10247000BD4680BD0010024080B582B000AFFEF7BF
:10248000A7FB78607B68062B10D801A252F823F0D6
:10249000AD240008AD240008AD240008AD240008D8
:1024A000AD240008AD240008AD24000800BF7B68FF
:1024B000DAB2034B1A7000BF0837BD4680BD00BFBB
:1024C0000008002080B584B000AF0023FB6000232B
:1024D0007B600123BB6044E0FB68022B3DD0FB68BE
:1024E000022B3DDCFB68002B03D0FB68012B1AD0CC
:1024F00036E000F02FFE7860284800F0E3FF7B68AC
:10250000002B06D1264800F0DDFFFB680133FB609D
:1025100027E0244800F0D6FF234800F0D3FF012035
:1025200000F058F81DE0FEF7D9FB78601F4800F076
:10253000C9FF7B68002B06D11D4800F0C3FFFB6874
:102540000133FB600DE01B4800F0BCFF164800F0B3
:10255000B9FF012000F03EF803E00023BB6000E07B
:1025600000BFBB68002BB7D11348FEF773FC1348BC
:10257000FEF770FC1248FEF76DFC1248FEF76AFC8D
:102580001148FEF767FC1148FEF764FC1048FEF79F
:1025900061FCFFF7D3F800BFFDE700BFC8D7000814
:1025A000DCD70008FCD7000814D8000820D80008A1
:1025B00034D8000854D800086CD800087CD800082B
:1025C0008CD80008ACD80008BCD80008E8D80008AF
:1025D000F8D8000880B584B000AF7860134BFB607A
:1025E0007B68002B03D07B68012B03D00EE0FFF744
:1025F00013FF17E0F868FDF7F5FD03469AB24FF0B8
:10260000FF33F9680A4805F011FA0BE0F868FDF7A6
:10261000E9FD03469AB24FF0FF33F968044805F02C
:1026200005FA00BF00BF1037BD4680BD0CD90008B9
:102630000407002080B500AF034B1B68002B00BFD0
:10264000FFF7F0FE00BF80BD0C08002080B582B00F
:1026500000AF1B4B7B607868FDF7C4FD03469AB260
:102660004FF0FF337968174805F0E0F91648FEF798
:10267000DBFC4FF0FF330B221349144805F0D6F969
:102680004FF0FF330B2210490E4805F0CFF94FF001
:10269000FF330B220E490D4805F0C8F94FF0FF3308
:1026A0000B220B49074805F0C1F94FF0FF33122206
:1026B0000849044805F0BAF900BF00BFFDE700BFB4
:1026C00020D900080407002038D90008940700200A
:1026D00040D900084CD90008B0B598B004AF6423C5
:1026E000FB647823BB64914B1B8801339AB28F4BF8
:1026F0001A808F4B1B8801339AB28D4B1A808D4BF9
:102700001B8801339AB28B4B1A808B4B1B88013389
:102710009AB2894B1A80894B1B680133874A136030
:10272000824B1B88C72B02D9804B00221A80844B16
:102730001B78002B32D1804B1B8843F697229342A3
:102740002CD97D4B00221A8000227E497E4802F05F
:1027500032FE00227D497C4802F00FFF7B4B5B7804
:102760001D467A4B9B781A46764B1B781946754B5B
:102770005B781C46734B9B78381D03930294019140
:1027800000922B46724A402109F05EFC78647B6C13
:102790009AB23B1D19466F4805F06AFA6E4B1B78DA
:1027A000022B00F0B980624B1B88632B15D9604B5C
:1027B00000221A80694B1B78002B0CBF01230023D9
:1027C000DBB21A46654B1A70644B1B78002B02D0A3
:1027D000FFF764FA01E0FFF76FFA594B1B78002B03
:1027E0000CD15F4B1B6903F00103002B03D15A4B43
:1027F00000221A7002E0584B01221A70504B1B78CD
:10280000002B40F08F80544B1B78002B32D1494B6A
:102810001B881A46FB6C934202D1FFF715FA29E098
:10282000444B1B881A46FB6C5B009A4202D1FFF7AF
:1028300019FA1FE03F4B1B881946FA6C13465B00E0
:102840001344994202D1FFF7FFF913E0394B1B887B
:102850001A46FB6C9B009A4202D1FFF703FA09E08B
:10286000344B1B88B3F57A7F04D3FFF7FBF9314B68
:1028700000221A80384B1B78012B53D12D4B1B881B
:102880001A46BB6C934202D1FFF7DEF94AE0294BAE
:102890001B881A46BB6C5B009A4202D1FFF7E2F933
:1028A00040E0244B1B881946BA6C13465B00134466
:1028B000994202D1FFF7C8F934E01E4B1B881A4633
:1028C000BB6C9B009A4202D1FFF7CCF92AE0194B6E
:1028D0001B881946BA6C13469B001344994202D1D7
:1028E000FFF7B2F91EE0134B1B881946BA6C13466A
:1028F0005B0013445B00994202D1FFF7B3F911E08A
:102900000C4B1B8840F2DB5293420BD9FFF7AAF91C
:10291000084B00221A8005E0FFF796F9FFF7B0F99F
:10292000FFF7BCF900BF5037BD46B0BDF40700202B
:10293000F6070020F8070020FC0700200808002008
:1029400000000020DC07002078050020F0070020B0
:1029500060D900080407002000080020FA070020C2
:102960000010024080B500AF104B1B78062B1AD820
:1029700001A252F823F000BF95290008A7290008FA
:102980009B290008A7290008A7290008A7290008F3
:10299000A1290008FFF74EFE06E0FFF793FD03E0D4
:1029A000FFF754FE00E000BF00BF80BD000800201C
:1029B00080B500AFFEF786F900F02EFEFEF7C6F8F0
:1029C00000BF80BD80B500AFFEF7AAF8034B01221F
:1029D0001A70FFF7B7F800BF80BD00BF00000020ED
:1029E00080B586B000AF01237B6100233B610023EB
:1029F000FB60FAE13B69082B00F2F68101A252F874
:102A000023F000BF292A00085D2A0008912A000847
:102A1000C52A00087D2B0008D52B0008232C0008B0
:102A2000772C0008652D000800F094FBF860A7489B
:102A300000F048FDFB68002B06D1A54800F042FDE0
:102A40003B6901333B61D0E1A24800F03BFDA24865
:102A500000F038FD0120FFF7BDFDC6E1FEF73EF9AD
:102A6000F8609E4800F02EFDFB68002B06D19C48C4
:102A700000F028FD3B6901333B61B6E1994800F065
:102A800021FD954800F01EFD0120FFF7A3FDACE1FC
:102A9000FEF772FBF860944800F014FDFB68002B11
:102AA00006D1924800F00EFD3B6901333B619CE189
:102AB0008F4800F007FD884800F004FD0120FFF773
:102AC00089FD92E18B4B1B78022B07D18A4800F0DD
:102AD000F9FC00233B6100237B6186E1FDF7A2FE48
:102AE000864B00221A70864800F0ECFC834B1B7862
:102AF000002B1CD18348FEF7ADF98348FEF7AAF9F5
:102B00008248FEF7A7F98248FEF7A4F9FEF728F9F4
:102B1000F860FB68002B03D1784B01221A7002E0A9
:102B2000764B00221A70FDF799FE0023FB60734B71
:102B30001B78012B05D17748FEF78CF90023FB6049
:102B400001E00123FB60FB68002B0DD1724800F00F
:102B5000B9FC4FF0FF3328226F49704804F066FF3C
:102B60003B6901333B6140E16D4800F0ABFC5A48E2
:102B700000F0A8FC0120FFF72DFD36E1FDF722FE55
:102B8000684B00221A70684800F09CFC654B1B786B
:102B9000002B18D14FF46170FEF740FCF860FB6821
:102BA000002B06D1614800F08DFC3B6901333B618D
:102BB0001BE15F4800F086FC474800F083FC0120E1
:102BC000FFF708FD11E15B4800F07CFC3B69013335
:102BD0003B610AE1534B1B78002B1BD100F0AAF993
:102BE000F860504B01221A70FDF708FEFB68002BBD
:102BF00006D1514800F066FC3B6901333B61F4E0CB
:102C00004E4800F05FFC344800F05CFC0120FFF708
:102C1000E1FCEAE04A4800F055FC3B6901333B61C6
:102C2000E3E0FDF72FFE474B00221A70464800F004
:102C300049FC444B1B78002B14D1FEF7E1FA786075
:102C4000786800F0F5FC7868FDF74CFE3D4B0122FA
:102C50001A70FDF733FE3D4800F034FC3B69013348
:102C60003B61C2E0FDF77EFE394800F02BFC3B697A
:102C700001333B61B9E0FDF7B3FE364B00221A7019
:102C8000354800F01FFC334B1B78002B14D1FEF7A6
:102C90003FFBB860B86800F0E7FCB868FDF7D0FE0D
:102CA0002C4B01221A70FDF7B7FE2C4800F00AFCED
:102CB0003B6901333B6198E0FDF7EEFE284800F0E8
:102CC00001FC3B6901333B618FE000BF84D9000800
:102CD00098D90008B8D90008D0D90008DCD9000874
:102CE000F0D9000810DA000828DA000850DA0008E5
:102CF00084DA000800080020B4DA00080108002087
:102D0000E8DA000800DB000810DB000820DB000820
:102D10003CDB000848DB000854DB00080407002007
:102D20007CDB00080208002098DB0008B4DB000808
:102D3000DCDB0008FCDB000814DC000834DC0008E5
:102D40004CDC00080308002064DC00087CDC000880
:102D500098DC000804080020ACDC0008CCDC00088B
:102D6000ECDC0008254800F0ADFB254800F0AAFB8C
:102D700000F054F90346184600F0A4FB214800F087
:102D8000A1FB00F065F90346184600F09BFB1D48C7
:102D900000F098FB00F076F90346184600F092FB2D
:102DA000194800F08FFB00F087F90346184600F041
:102DB00089FB164800F086FB00F098F90346184698
:102DC00000F080FB114800F07DFB00F0A9F90346FC
:102DD000184600F077FB0E4800F074FB0D4800F039
:102DE00071FB00237B6100E000BF7B69002B7FF457
:102DF00001AE00BF00BF1837BD4680BD08DD00082A
:102E000028DD00083CDD000840DD000844DD000846
:102E100048DD00084CDD000880B582B000AF786066
:102E200038497868FDF7D4F90346002B01D1012316
:102E300064E035497868FDF7CBF90346002B01D1F2
:102E400002235BE031497868FDF7C2F90346002BA5
:102E500001D1032352E02E497868FDF7B9F9034602
:102E6000002B01D1042349E02A497868FDF7B0F925
:102E70000346002B01D1052340E027497868FDF780
:102E8000A7F90346002B01D1062337E023497868D0
:102E9000FDF79EF90346002B01D107232EE02049C0
:102EA0007868FDF795F90346002B01D1082325E04A
:102EB0001C497868FDF78CF90346002B01D10923E2
:102EC0001CE019497868FDF783F90346002B01D10E
:102ED000102313E015497868FDF77AF90346002BB3
:102EE00001D111230AE012497868FDF771F9034610
:102EF000002B01D1122301E04FF0FF3318460837B1
:102F0000BD4680BD7CDD000880DD000884DD000852
:102F100088DD00088CDD000890DD000894DD0008E5
:102F200098DD00089CDD0008A0DD0008A4DD000895
:102F3000A8DD000880B582B000AF00237B60FDF7FC
:102F4000B7FE38603B681B69DAB2304B1A703B68D9
:102F50005B69DAB22D4B5A703B689B69DAB22B4B36
:102F60009A702A4B0022DA60284B00221A613B68D3
:102F7000DB68DAB2264B1A703B685B68DAB2244B26
:102F80005A703B689B68DAB2214B9A703B681B68A9
:102F9000204A82FB03125111DA178A1A642101FBBD
:102FA00002F29A1AD2B21A4BDA701B4B1B68CA2271
:102FB0005A62194B1B6853225A6200221349164861
:102FC00002F05FF90346002B03D0FFF725FA012337
:102FD0007B6000220E49104802F04BFA0346002B9A
:102FE00003D0FFF719FA01237B600B4B1B68FF220C
:102FF0005A627B68012B01D17B6802E000237B6071
:103000007B6818460837BD4680BD00BFDC0700203E
:10301000F00700201F85EB517805002080B500AF38
:1030200000220749074802F0A8FA054BDB78064A58
:103030000521064809F008F8044B184680BD00BF7A
:10304000F007002078050020C8DD000810080020E7
:1030500080B500AF00220749074802F08EFA054B01
:103060005B78064A0421064808F0EEFF044B184638
:1030700080BD00BFF007002078050020C8DD0008F3
:103080001808002080B500AF00220749074802F069
:1030900074FA054B9B78064A0421064808F0D4FFD1
:1030A000044B184680BD00BFF007002078050020C3
:1030B000C8DD00081C08002080B500AF00220749C9
:1030C000074802F078F9054B1B78064A04210648A8
:1030D00008F0BAFF044B184680BD00BFDC07002093
:1030E00078050020C8DD00082008002080B500AF6A
:1030F00000220749074802F05EF9054B5B78064A53
:103100000421064808F0A0FF044B184680BD00BF0C
:10311000DC07002078050020C8DD00082408002016
:1031200080B500AF00220749074802F044F9054B7B
:103130009B78064A0421064808F086FF044B18468F
:1031400080BD00BFDC07002078050020C8DD000836
:103150002808002080B5ADF58E6D00AF0023C7F8BC
:103160006C3407F50D7301224C49184608F02AF912
:10317000034687F86B3497F86B34002B01D0FFF7C8
:103180004BF93B1D01224649184608F061F90346F8
:1031900087F86B3497F86B34002B1CD13B1D184615
:1031A00008F042FE01223D49002008F00BF90346D9
:1031B00087F86B3497F86B34002B08D0394800F04F
:1031C00081F90120FFF706FA0123C7F86C340023C8
:1031D000C7F86C345AE03B1D0A223149184608F002
:1031E00037F9034687F86B3497F86B34002B08D017
:1031F0000120FFF7EFF92C4800F064F90123C7F82C
:103200006C342A4BC7F86434D7F86404FCF7EAFF3F
:1032100002463B46381DD7F8641408F012FC0346FA
:1032200087F86B3497F86B34002B0BD1D7F8640414
:10323000FCF7D8FF024607F58E63A3F58E631B6883
:103240009A420CD93B1D184608F0EEFD0120FFF70D
:10325000C1F9174800F036F90123C7F86C343B1D5B
:10326000184608F0E1FD034687F86B3497F86B3495
:10327000002B08D00120FFF7ADF90E4800F022F92D
:103280000123C7F86C340023C7F86C34D7F86C34CA
:10329000184607F58E67BD4680BD00BF7808002040
:1032A000F8DD000804DE000820DE00083CDE00082F
:1032B00064DE000880DE000880B5ADF5956D00AFD6
:1032C00007F51D7301223649184608F07BF80346BE
:1032D00087F8A73497F8A734002B01D0FFF79CF8A4
:1032E00007F1440301222F49184608F0B1F80346BC
:1032F00087F8A73497F8A734002B01D0FFF78CF894
:1033000007F14003394607F144003F2208F05AFA1A
:10331000034687F8A73497F8A734002B06D107F5A2
:103320009563A3F58D631B68002B06D107F1440359
:10333000184608F079FDFFF76FF807F59563A3F5D8
:103340008D631B6807F59562A2F595620021D15443
:103350003B46154A1549184608F0AAFE07F14403F2
:10336000184608F061FD034687F8A73497F8A7349C
:10337000002B01D0FFF750F801220949002008F086
:1033800021F8034687F8A73497F8A734002B01D01B
:10339000FFF742F8044B184607F59567BD4680BD18
:1033A00078080020F8DD00082C0800209CDE0008CA
:1033B00080B5ADF5966D00AF07F51E7301223C494F
:1033C000184607F0FFFF034687F8AF3497F8AF348D
:1033D000002B01D0FFF720F807F1480301223549FF
:1033E000184608F035F8034687F8AF3497F8AF343D
:1033F000002B01D0FFF710F807F14403391D07F146
:1034000048003F2208F0DEF9034687F8AF3497F80A
:10341000AF34002B06D107F59663A3F26C431B680B
:10342000002B06D107F14803184608F0FDFCFEF713
:10343000F3FF07F59663A3F26C431B6807F59662EA
:10344000A2F2AC420021D1543B1D1B49184608F0A2
:1034500093FEC7F8A804D7F8A834002B05D0174A64
:103460001749D7F8A80408F023FE07F148031846C7
:1034700008F0DAFC034687F8AF3497F8AF34002B36
:1034800001D0FEF7C9FF01220949002007F09AFF89
:10349000034687F8AF3497F8AF34002B01D0FEF71E
:1034A000BBFF064B184607F59667BD4680BD00BFBB
:1034B00078080020F8DD0008A8DE00084C0800208D
:1034C000B4DE000890B5ADF2744D00AF07F58E6321
:1034D000A3F26C43186007F50F73012237491846B1
:1034E00007F070FF034687F86F3497F86F34002BAE
:1034F00001D0FEF791FF07F10C0332223049184644
:1035000007F0A6FF034687F86F3497F86F34002B57
:1035100001D0FEF781FF07F58E63A3F26C431868B4
:10352000FCF760FE044607F1080307F58E62A2F27D
:103530006C4107F10C002246096808F082FA034644
:1035400087F86F3497F86F34002B0ED107F58E6330
:10355000A3F26C431868FCF745FE024607F58E633C
:10356000A3F58D631B689A4206D907F10C03184630
:1035700008F05AFCFEF750FF07F10C03184608F05C
:1035800053FC034687F86F3497F86F34002B01D053
:10359000FEF742FF01220949002007F013FF03460E
:1035A00087F86F3497F86F34002B01D0FEF734FFA3
:1035B00000BF07F27447BD4690BD00BF78080020E9
:1035C000C4DE000880B5ADF50E7D00AF3B1D0122C5
:1035D0000B49184607F0F6FE034687F8373297F88E
:1035E0003732002B06D101220549002007F0EAFE00
:1035F000002300E00123184607F50E77BD4680BD85
:103600007808002080B400AF024B1846BD465DF834
:10361000047B70472800001080B500AF4FF489721A
:103620000021024808F080FD00BF80BD2800001086
:1036300080B582B000AF78607B68002B0ED07868D0
:10364000FCF7D0FD03467F2B08D87F227968054818
:1036500008F07FFD034B002283F87F2000BF08376E
:10366000BD4680BD2800001080B582B000AF7860F4
:103670007B68002B0ED07868FCF7B4FD0346112B55
:1036800008D811227968054808F063FD044B002230
:1036900083F8912000BF0837BD4680BDA800001008
:1036A0002800001080B5ADF5507D02AFFFF7AAFFEE
:1036B000C7F830030023C7F83433704BC7F82C33F6
:1036C0006F4BC7F828336F4BC7F824336E4BC7F8DE
:1036D00020336E4BC7F81C33D7F83033C7F8183394
:1036E000D7F830338033C7F81433D7F8303380330A
:1036F000C7F8103307F54E73A3F59A7300221A60CA
:103700000433FC220021184608F00EFDD7F81833C8
:10371000002B04D0D7F818331B78002B0ED1D7F824
:103720002403FCF75FFD03469AB24FF0FF33D7F84E
:103730002413574804F07AF901239AE0D7F8143398
:10374000002B04D0D7F814331B78002B0ED1D7F8F8
:103750002003FCF747FD03469AB24FF0FF33D7F83A
:1037600020134B4804F062F9012382E0D7F81033AC
:10377000002B04D0D7F810331B78002B0ED1D7F8CC
:103780001C03FCF72FFD03469AB24FF0FF33D7F826
:103790001C133F4804F04AF901236AE007F5017061
:1037A000D7F814330193D7F814330093D7F81833AC
:1037B000384A4FF4807108F047FCC7F80C03D7F87B
:1037C0000C33002B03DBD7F80C33FF2B04DDFEF7A3
:1037D00023FE0123C7F8343307F50173381D2E4A41
:1037E0004FF4007108F030FCC7F80803D7F808332D
:1037F000002B04DBD7F80833B3F5007F04DBFEF7BA
:103800000BFE0123C7F834333B1D1846FDF70CFCB3
:10381000C7F80403D7F80433002B18D01F49D7F892
:10382000040308F0A9FC0346002B10D0D7F82C03A2
:10383000FCF7D8FC03469AB24FF0FF33D7F82C13AD
:10384000134804F0F3F80023C7F834330FE0D7F837
:103850002803FCF7C7FC03469AB24FF0FF33D7F8B2
:1038600028130B4804F0E2F80123C7F83433D7F8E3
:103870003433184607F54E77BD4680BDCCDE0008D0
:10388000ECDE000808DF000824DF000848DF00083D
:10389000040700206CDF0008B0DF000818E0000813
:1038A00080B483B000AF00237B60104B5B6C0F4A89
:1038B00043F4804353640D4B5B6C03F480437B60A3
:1038C0007B6800233B60094B1B6C084A43F0805324
:1038D0001364064B1B6C03F080533B603B6800BFD6
:1038E0000C37BD465DF8047B704700BF00380240CE
:1038F00080B586B000AF786007F1080300221A6037
:103900005A609A60DA607B681B68104A934219D14A
:103910000223BB604FF480737B6107F108031846F4
:1039200001F04CFB0346002B01D0FEF775FD084B60
:1039300001221A6000220021292000F028FC292001
:1039400000F041FC00BF1837BD4680BD0028004094
:103950003C0E474280B58AB000AF786007F114038F
:1039600000221A605A609A60DA601A617B681B68EC
:10397000284A93424AD100233B61274B5B6C264A7D
:1039800043F400635364244B5B6C03F400633B61BA
:103990003B690023FB60204B1B6B1F4A43F0040371
:1039A00013631D4B1B6B03F00403FB60FB680023D8
:1039B000BB60194B1B6B184A43F008031363164B8B
:1039C0001B6B03F00803BB60BB684FF488537B613B
:1039D0000223BB610023FB6103233B620C237B6258
:1039E00007F1140319460D4800F09AFC04237B618B
:1039F0000223BB610023FB6103233B620C237B6238
:103A000007F114031946064800F08AFC00BF283766
:103A1000BD4680BD002C0140003802400008024035
:103A2000000C024080B58AB000AF786007F1140343
:103A300000221A605A609A60DA601A617B681B681B
:103A4000194A93422BD100233B61184B5B6C174AF8
:103A500043F480535364154B5B6C03F480533B6118
:103A60003B690023FB60114B1B6B104A43F00103C1
:103A700013630E4B1B6B03F00103FB60FB68E02339
:103A80007B610223BB610023FB6103233B620523AF
:103A90007B6207F114031946054800F041FC00BFA2
:103AA0002837BD4680BD00BF0030014000380240CD
:103AB0000000024080B584B000AF78607B681B686E
:103AC0000E4A934215D10023FB600D4B1B6C0C4A30
:103AD00043F0200313640A4B1B6C03F02003FB60CC
:103AE000FB6800220021372000F051FB372000F056
:103AF0006AFB00BF1037BD4680BD00BF0014004008
:103B00000038024080B590B000AF786007F12C0318
:103B100000221A605A609A60DA601A617B681B683A
:103B2000714A93422CD10023BB62704B1B6C6F4ACD
:103B300043F4002313646D4B1B6C03F40023BB623E
:103B4000BB6A00237B62694B1B6B684A43F001032D
:103B50001363664B1B6B03F001037B627B6A0323D9
:103B6000FB6202233B6300237B630323BB630823C5
:103B7000FB6307F12C0319465D4800F0D1FBAEE072
:103B80007B681B685B4A934235D100233B62574BED
:103B90005B6C564A43F010035364544B5B6C03F068
:103BA00010033B623B6A0023FB61504B1B6B4F4A87
:103BB00043F0010313634D4B1B6B03F00103FB61E7
:103BC000FB694FF4C063FB6202233B6300237B630A
:103BD0000323BB630723FB6307F12C031946444807
:103BE00000F09EFB00220021252000F0D0FA2520C5
:103BF00000F0E9FA73E07B681B683F4A934234D1D6
:103C00000023BB61394B1B6C384A43F40033136407
:103C1000364B1B6C03F40033BB61BB6900237B6133
:103C2000324B1B6B314A43F0010313632F4B1B6B69
:103C300003F001037B617B690C23FB6202233B637E
:103C400000237B630323BB630723FB6307F12C0380
:103C50001946274800F064FB00220021262000F0CE
:103C600096FA262000F0AFFA39E07B681B68234AF9
:103C7000934234D100233B611C4B1B6C1B4A43F421
:103C800080231364194B1B6C03F480233B613B6955
:103C90000023FB60154B1B6B144A43F002031363B4
:103CA000124B1B6B03F00203FB60FB684FF4406395
:103CB000FB6202233B6300237B630323BB63072375
:103CC000FB6307F12C0319460D4800F029FB002285
:103CD0000021272000F05BFA272000F074FA00BFD3
:103CE0004037BD4680BD00BF004C00400038024058
:103CF0000000024000100140004400400048004025
:103D00000004024080B400AF00BFFDE780B400AF04
:103D100000BFFDE780B400AF00BFFDE780B400AF97
:103D200000BFFDE780B400AF00BFFDE780B400AF87
:103D300000BFBD465DF8047B704780B400AF00BF94
:103D4000BD465DF8047B704780B400AF00BFBD4640
:103D50005DF8047B704780B500AF00F0F9F800BF54
:103D600080BD000080B500AF024803F0DDFF00BF5A
:103D700080BD00BF0407002080B500AF024803F0FB
:103D8000D3FF00BF80BD00BF4C07002080B500AF4F
:103D9000024803F0C9FF00BF80BD00BF94070020A8
:103DA00080B500AF024801F037FC00BF80BD00BF06
:103DB0007805002080B500AF024803F099FB00BFF2
:103DC00080BD00BF7406002080B586B000AF78606B
:103DD000144A154BD31A7B617B693B61134B1B68FB
:103DE000002B02D1114B124A1A60104B1A687B68E3
:103DF00013443A699A4207D208F0D4F903460C22D8
:103E00001A604FF0FF3309E0084B1B68FB60074B5B
:103E10001A687B681344054A1360FB681846183714
:103E2000BD4680BD00000220000400006C08002098
:103E3000F809002080B400AF064BD3F88830054A5B
:103E400043F47003C2F8883000BFBD465DF8047BC0
:103E5000704700BF00ED00E0DFF834D0FFF7EAFF65
:103E60000C480D490D4A002302E0D458C4500433D5
:103E7000C4188C42F9D30A4A0A4C002301E01360AB
:103E80000432A242FBD308F093F9FDF723FF7047F9
:103E9000000002200000002060000020F0E6000882
:103EA00060000020F8090020FEE7000080B500AFA8
:103EB0000E4B1B680D4A43F4007313600B4B1B68D9
:103EC0000A4A43F480631360084B1B68074A43F4B3
:103ED00080731360032000F04FF90F2000F008F802
:103EE000FFF7DEFC0023184680BD00BF003C024007
:103EF00080B582B000AF7860124B1A68124B1B7805
:103F000019464FF47A73B3FBF1F3B2FBF3F318469F
:103F100000F067F90346002B01D001230EE07B6817
:103F20000F2B0AD8002279684FF0FF3000F02FF9EC
:103F3000064A7B681360002300E001231846083717
:103F4000BD4680BD040000200C00002008000020B9
:103F500080B400AF064B1B781A46064B1B6813440F
:103F6000044A136000BFBD465DF8047B704700BF84
:103F70000C0000207008002080B400AF034B1B68C9
:103F80001846BD465DF8047B704700BF70080020EE
:103F900080B584B000AF7860FFF7EEFFB8607B6853
:103FA000FB60FB68B3F1FF3F05D00A4B1B781A4654
:103FB000FB681344FB6000BFFFF7DEFF0246BB68EF
:103FC000D31AFA689A42F7D800BF00BF1037BD462F
:103FD00080BD00BF0C00002080B485B000AF7860C9
:103FE0007B6803F00703FB600C4BDB68BB60BA68BF
:103FF0004FF6FF031340BB60FB681A02BB68134314
:1040000043F0BF6343F40033BB60044ABB68D36032
:1040100000BF1437BD465DF8047B704700ED00E03B
:1040200080B400AF044BDB681B0A03F0070318469B
:10403000BD465DF8047B704700ED00E080B483B0BE
:1040400000AF0346FB7197F90730002B0BDBFB79C0
:1040500003F01F02074997F907305B09012000FAB6
:1040600002F241F8232000BF0C37BD465DF8047B07
:10407000704700BF00E100E080B483B000AF0346AA
:104080003960FB7197F90730002B0ADB3B68DAB225
:104090000C4997F907301201D2B20B4483F8002380
:1040A0000AE03B68DAB20849FB7903F00F03043BEE
:1040B0001201D2B20B441A7600BF0C37BD465DF830
:1040C000047B704700E100E000ED00E080B489B0BF
:1040D00000AFF860B9607A60FB6803F00703FB612A
:1040E000FB69C3F10703042B28BF0423BB61FB69F1
:1040F0000433062B02D9FB69033B00E000237B61FC
:104100004FF0FF32BB6902FA03F3DA43BB681A408F
:104110007B699A404FF0FF317B6901FA03F3D94381
:104120007B680B40134318462437BD465DF8047B7B
:104130007047000080B582B000AF78607B68013BBB
:10414000B3F1807F01D301230FE00A4A7B68013B72
:1041500053600F214FF0FF30FFF78EFF054B002219
:104160009A60044B07221A60002318460837BD46A0
:1041700080BD00BF10E000E080B582B000AF786085
:104180007868FFF729FF00BF0837BD4680BD80B5BE
:1041900086B000AF0346B9607A60FB7300237B6191
:1041A000FFF73EFF78617A68B9687869FFF78EFF9C
:1041B000024697F90F3011461846FFF75DFF00BF22
:1041C0001837BD4680BD80B582B000AF0346FB7195
:1041D00097F907301846FFF731FF00BF0837BD4693
:1041E00080BD80B582B000AF78607868FFF7A2FF2D
:1041F000034618460837BD4680BD80B584B000AF81
:1042000078607B689B6DFB60FFF7B6FEB8607B68EB
:1042100093F83530DBB2022B08D07B6880225A65D8
:104220007B68002283F83420012352E07B681B68FE
:104230001A687B681B6822F016021A607B681B688C
:104240005A697B681B6822F080025A617B681B6C8C
:10425000002B03D17B689B6C002B07D07B681B680D
:104260001A687B681B6822F008021A607B681B686A
:104270001A687B681B6822F001021A6013E0FFF7DE
:104280007BFE0246BB68D31A052B0CD97B68202223
:104290005A657B68032283F835207B68002283F807
:1042A0003420032315E07B681B681B6803F00103BF
:1042B000002BE4D17B68DB6D3F229A40FB689A605B
:1042C0007B68012283F835207B68002283F8342044
:1042D000002318461037BD4680BD80B483B000AFC0
:1042E00078607B6893F83530DBB2022B04D07B68B2
:1042F00080225A6501230CE07B68052283F8352073
:104300007B681B681A687B681B6822F001021A60D0
:10431000002318460C37BD465DF8047B704700004B
:1043200080B489B000AF7860396000237B610023DE
:104330003B610023BB610023FB616BE10122FB6950
:1043400002FA03F37B613B681B687A6913403B61A7
:104350003A697B699A4240F05A813B685B6803F096
:104360000303012B05D03B685B6803F00303022BBA
:1043700030D17B689B68BB61FB695B00032202FA5A
:1043800003F3DB43BA691340BB613B68DA68FB693E
:104390005B0002FA03F3BA691343BB617B68BA6935
:1043A0009A607B685B68BB610122FB6902FA03F3D8
:1043B000DB43BA691340BB613B685B681B0903F0D0
:1043C0000102FB6902FA03F3BA691343BB617B681C
:1043D000BA695A603B685B6803F00303032B17D08C
:1043E0007B68DB68BB61FB695B00032202FA03F3B5
:1043F000DB43BA691340BB613B689A68FB695B00A9
:1044000002FA03F3BA691343BB617B68BA69DA60E5
:104410003B685B6803F00303022B23D1FB69DA08D6
:104420007B68083253F82230BB61FB6903F0070355
:104430009B000F2202FA03F3DB43BA691340BB610E
:104440003B681A69FB6903F007039B0002FA03F358
:10445000BA691343BB61FB69DA087B680832B96942
:1044600043F822107B681B68BB61FB695B00032279
:1044700002FA03F3DB43BA691340BB613B685B6834
:1044800003F00302FB695B0002FA03F3BA6913430A
:10449000BB617B68BA691A603B685B6803F44033B0
:1044A000002B00F0B4800023FB60604B5B6C5F4A24
:1044B00043F4804353645D4B5B6C03F48043FB60C7
:1044C000FB685B4AFB699B08023352F82330BB61EF
:1044D000FB6903F003039B000F2202FA03F3DB43A3
:1044E000BA691340BB617B68524A93422BD07B6808
:1044F000514A934225D07B68504A93421FD07B6833
:104500004F4A934219D07B684E4A934213D07B683E
:104510004D4A93420DD07B684C4A934207D07B684A
:104520004B4A934201D107230EE008230CE00623F7
:104530000AE0052308E0042306E0032304E0022345
:1045400002E0012300E00023FA6902F00302920076
:104550009340BA691343BB613549FB699B08023339
:10456000BA6941F823203B4B9B68BB613B69DB4345
:10457000BA691340BB613B685B6803F48013002B8E
:1045800003D0BA693B691343BB61324ABB6993608C
:10459000304BDB68BB613B69DB43BA691340BB61ED
:1045A0003B685B6803F40013002B03D0BA693B69D6
:1045B0001343BB61274ABB69D360264B5B68BB6171
:1045C0003B69DB43BA691340BB613B685B6803F43A
:1045D0000033002B03D0BA693B691343BB611D4A0A
:1045E000BB6953601B4B1B68BB613B69DB43BA690A
:1045F0001340BB613B685B6803F48033002B03D03E
:10460000BA693B691343BB61124ABB691360FB691A
:104610000133FB61FB690F2B7FF690AE00BF00BF3B
:104620002437BD465DF8047B704700BF0038024068
:10463000003801400000024000040240000802402F
:10464000000C02400010024000140240001802401A
:10465000001C0240003C014080B483B000AF786091
:104660000B467B8013467B707B78002B03D07A88C7
:104670007B689A6103E07B881A047B689A6100BFBB
:104680000C37BD465DF8047B7047000080B586B0EE
:1046900000AF78607B68002B01D1012367E27B6863
:1046A0001B6803F00103002B75D0884B9B6803F057
:1046B0000C03042B0CD0854B9B6803F00C03082BD8
:1046C00012D1824B5B6803F48003B3F5800F0BD1EA
:1046D0007E4B1B6803F40033002B5BD07B685B6868
:1046E000002B57D1012342E27B685B68B3F5803F22
:1046F00006D1764B1B68754A43F4803313601DE086
:104700007B685B68B3F5A02F0CD1704B1B686F4AB8
:1047100043F4802313606D4B1B686C4A43F4803371
:1047200013600BE0694B1B68684A23F48033136005
:10473000664B1B68654A23F4802313607B685B68C3
:10474000002B13D0FFF718FC386108E0FFF714FCCA
:1047500002463B69D31A642B01D9032307E25B4B62
:104760001B6803F40033002BF0D014E0FFF704FCC7
:10477000386108E0FFF700FC02463B69D31A642B5E
:1047800001D90323F3E1514B1B6803F40033002BE1
:10479000F0D100E000BF7B681B6803F00203002B30
:1047A00063D04A4B9B6803F00C03002B0BD0474BA4
:1047B0009B6803F00C03082B1CD1444B5B6803F48B
:1047C0008003002B16D1414B1B6803F00203002B22
:1047D00005D07B68DB68012B01D00123C7E13B4B8F
:1047E0001B6823F0F8027B681B69DB003749134321
:1047F0000B603AE07B68DB68002B20D0344B012251
:104800001A60FFF7B9FB386108E0FFF7B5FB024615
:104810003B69D31A022B01D90323A8E12B4B1B6858
:1048200003F00203002BF0D0284B1B6823F0F802A2
:104830007B681B69DB00254913430B6015E0244BA3
:1048400000221A60FFF798FB386108E0FFF794FB3D
:1048500002463B69D31A022B01D9032387E11B4B84
:104860001B6803F00203002BF0D17B681B6803F088
:104870000803002B36D07B685B69002B16D0154BE4
:1048800001221A60FFF778FB386108E0FFF774FB3C
:1048900002463B69D31A022B01D9032367E10B4B74
:1048A0005B6F03F00203002BF0D01BE0094B0022EA
:1048B0001A60FFF761FB38610EE0FFF75DFB02460F
:1048C0003B69D31A022B07D9032350E10038024079
:1048D00000004742800E4742884B5B6F03F00203A3
:1048E000002BEAD17B681B6803F00403002B00F067
:1048F00097800023FB75814B1B6C03F08053002BCA
:104900000FD10023BB607D4B1B6C7C4A43F080536E
:1049100013647A4B1B6C03F08053BB60BB680123AC
:10492000FB75774B1B6803F48073002B18D1744B15
:104930001B68734A43F480731360FFF71DFB3861F3
:1049400008E0FFF719FB02463B69D31A022B01D995
:1049500003230CE16A4B1B6803F48073002BF0D037
:104960007B689B68012B06D1644B1B6F634A43F045
:10497000010313671CE07B689B68052B0CD15F4B20
:104980001B6F5E4A43F0040313675C4B1B6F5B4A6B
:1049900043F0010313670BE0584B1B6F574A23F09A
:1049A00001031367554B1B6F544A23F0040313672D
:1049B0007B689B68002B15D0FFF7DEFA38610AE0B0
:1049C000FFF7DAFA02463B69D31A41F28832934282
:1049D00001D90323CBE0494B1B6F03F00203002BEB
:1049E000EED014E0FFF7C8FA38610AE0FFF7C4FA26
:1049F00002463B69D31A41F28832934201D903231C
:104A0000B5E03E4B1B6F03F00203002BEED1FB7DA4
:104A1000012B05D1394B1B6C384A23F080531364AA
:104A20007B689B69002B00F0A180344B9B6803F0EE
:104A30000C03082B5CD07B689B69022B41D1314B66
:104A400000221A60FFF798FA386108E0FFF794FA3D
:104A500002463B69D31A022B01D9032387E0274B77
:104A60001B6803F00073002BF0D17B68DA697B6868
:104A70001B6A1A437B685B6A9B011A437B689B6ACB
:104A80005B08013B1B041A437B68DB6A1B061B495E
:104A900013434B601B4B01221A60FFF76DFA38611C
:104AA00008E0FFF769FA02463B69D31A022B01D9E5
:104AB00003235CE0114B1B6803F00073002BF0D064
:104AC00054E0104B00221A60FFF756FA386108E0F4
:104AD000FFF752FA02463B69D31A022B01D903238E
:104AE00045E0064B1B6803F00073002BF0D13DE05E
:104AF0007B689B69012B07D1012338E00038024015
:104B000000700040600047421B4B5B68FB607B68A5
:104B10009B69012B28D0FB6803F480027B68DB696A
:104B20009A4221D1FB6803F03F027B681B6A9A42DC
:104B30001AD1FA6847F6C07313407A68526A920134
:104B4000934211D1FB6803F440327B689B6A5B0897
:104B5000013B1B049A4207D1FB6803F070627B683B
:104B6000DB6A1B069A4201D0012300E000231846AD
:104B70001837BD4680BD00BF0038024080B584B004
:104B800000AF786039607B68002B01D10123CCE055
:104B9000684B1B6803F007033A689A420CD9654BCF
:104BA0003A68D2B21A70634B1B6803F007033A6885
:104BB0009A4201D00123B8E07B681B6803F002032E
:104BC000002B20D07B681B6803F00403002B05D06A
:104BD000594B9B68584A43F4E05393607B681B68C9
:104BE00003F00803002B05D0534B9B68524A43F453
:104BF00060439360504B9B6823F0F0027B689B6896
:104C00004D4913438B607B681B6803F00103002B45
:104C100044D07B685B68012B07D1474B1B6803F4CA
:104C20000033002B19D101237FE07B685B68022BE6
:104C300003D07B685B68032B07D13F4B1B6803F0F5
:104C40000073002B09D101236FE03B4B1B6803F07D
:104C50000203002B01D1012367E0374B9B6823F04F
:104C600003027B685B68344913438B60FFF784F968
:104C7000F8600AE0FFF780F90246FB68D31A41F2B8
:104C80008832934201D903234FE02B4B9B6803F0FA
:104C90000C027B685B689B009A42EBD1254B1B683A
:104CA00003F007033A689A420CD2224B3A68D2B218
:104CB0001A70204B1B6803F007033A689A4201D030
:104CC000012332E07B681B6803F00403002B08D04B
:104CD000194B9B6823F4E0527B68DB681649134349
:104CE0008B607B681B6803F00803002B09D0124B14
:104CF0009B6823F460427B681B69DB000E49134309
:104D00008B6000F021F802460B4B9B681B0903F0F7
:104D10000F030A49CB5C22FA03F3094A1360094BDB
:104D20001B681846FFF7E4F8002318461037BD4605
:104D300080BD00BF003C024000380240F0E00008A7
:104D400004000020080000202DE9B04F94B000AF0F
:104D500000237B640023FB6400233B640023BB64CB
:104D6000794B9B6803F00C03082B0DD0082B00F245
:104D7000E180002B02D0042B03D0DBE0734BBB643B
:104D8000DBE0734BBB64D8E06F4B5B6803F03F0321
:104D90007B646D4B5B6803F48003002B63D06A4B2C
:104DA0005B689B090022BB63FA63BB6BC3F3080318
:104DB0003B6300237B63D7E90C4522462B464FF02B
:104DC00000004FF00001590141EAD2615001024652
:104DD0000B462146511A3961294663EB01037B6179
:104DE0004FF000024FF00003D7E904AB59468B01A6
:104DF000514643EA916351468A015146B2EB01089C
:104E0000594663EB01094FF000024FF000034FEAEF
:104E1000C90343EA58734FEAC802904699462346AD
:104E200018EB0303BB602B4649EB0303FB604FF019
:104E300000024FF00003D7E9024529464B02214604
:104E400043EAD15321464A02104619467B6C0022A0
:104E5000BB62FA62D7E90A23FBF722FA02460B4645
:104E60001346FB6458E0384B5B689B0900221846E8
:104E70001146C0F308033B6200237B62D7E908892F
:104E800042464B464FF000004FF00001590141EA05
:104E9000D261500102460B464146B2EB010A494637
:104EA00063EB010B4FF000024FF000034FEA8B134E
:104EB00043EA9A634FEA8A12B2EB0A0463EB0B05EA
:104EC0004FF000024FF00003EB0043EA5473E2009E
:104ED00014461D464346E3183B604B4645EB03032F
:104EE0007B604FF000024FF00003D7E900452946F0
:104EF0008B02214643EA915321468A021046194605
:104F00007B6C0022BB61FA61D7E90623FBF7C8F985
:104F100002460B461346FB640B4B5B681B0C03F00D
:104F2000030301335B003B64FA6C3B6CB2FBF3F3AD
:104F3000BB6402E0054BBB6400BFBB6C1846503736
:104F4000BD46BDE8B08F00BF003802400024F40029
:104F500000127A0080B400AF034B1B681846BD46B0
:104F60005DF8047B704700BF0400002080B500AFEF
:104F7000FFF7F0FF0246054B9B689B0A03F007030F
:104F80000349CB5C22FA03F3184680BD0038024087
:104F900000E1000880B500AFFFF7DCFF0246054BDB
:104FA0009B685B0B03F007030349CB5C22FA03F316
:104FB000184680BD0038024000E1000880B586B088
:104FC00000AF786000237B6100233B617B681B6836
:104FD00003F00103002B05D17B681B6803F0040379
:104FE000002B35D0624B00221A60FEF7C5FF7861B6
:104FF00008E0FEF7C1FF02467B69D31A022B01D9F4
:105000000323B0E05B4B1B6803F00063002BF0D17F
:105010007B685B689A017B689B681B075549134353
:10502000C1F88430524B01221A60FEF7A5FF786167
:1050300008E0FEF7A1FF02467B69D31A022B01D9D3
:10504000032390E04B4B1B6803F00063002BF0D070
:105050007B681B6803F00203002B00F083800023B1
:10506000FB60444B1B6C434A43F080531364414B39
:105070001B6C03F08053FB60FB683F4B1B683E4A90
:1050800043F480731360FEF777FF786108E0FEF762
:1050900073FF02467B69D31A022B01D9032362E016
:1050A000354B1B6803F48073002BF0D0314B1B6F22
:1050B00003F440733B613B69002B2FD07B68DB68B6
:1050C00003F440733A699A4228D02A4B1B6F23F4A9
:1050D00040733B61294B01221A60284B00221A6061
:1050E000244A3B691367234B1B6F03F00103012B19
:1050F00014D1FEF741FF78610AE0FEF73DFF02465A
:105100007B69D31A41F28832934201D903232AE002
:10511000184B1B6F03F00203002BEED07B68DB689B
:1051200003F44073B3F5407F0DD1124B9B6823F419
:10513000F8127B68DB6823F0704323F440730D4959
:1051400013438B6005E00B4B9B680A4A23F4F8136A
:105150009360084B1A6F7B68DB68C3F30B03054948
:1051600013430B67002318461837BD4680BD00BFA8
:10517000680047420038024000700040400E47423D
:1051800080B584B000AF78607B68002B01D101232B
:1051900073E07B685B7FDBB2002B05D17B6800226C
:1051A0001A777868FEF7A4FB7B6802225A777B683F
:1051B0001B68DB6803F01003102B55D07B681B685D
:1051C000CA225A627B681B6853225A62786800F0D0
:1051D00099FA0346FB73FB7B002B2CD17B681B6881
:1051E0009B687A68126823F4E00323F0400393601D
:1051F0007B681B6899687B685A687B681B691A43DF
:105200007B685B691A437B681B680A439A607B680A
:105210001B687A68D2681A617B681B6819697B68A9
:105220009B681A047B681B680A431A61786800F05F
:10523000A0FA0346FB73FB7B002B10D17B681B6835
:105240001A6C7B681B6822F480221A647B681B68D6
:10525000196C7B689A697B681B680A431A647B68CF
:105260001B68FF225A6201E00023FB73FB7B002BCB
:1052700002D17B6801225A77FB7B18461037BD4666
:1052800080BD90B587B000AFF860B9607A60002348
:105290007B61FB681B7F012B01D1022387E0FB6848
:1052A00001221A77FB6802225A777B68002B26D1ED
:1052B000FB681B689B6803F04003002B02D1BB68AE
:1052C0000022DA70BB681B78184600F077FA0346B4
:1052D0001C04BB685B78184600F070FA03461B029A
:1052E0001C43BB689B78184600F068FA034644EA02
:1052F0000302BB68DB789B0513437B6118E0FB6806
:105300001B689B6803F04003002B02D1BB6800229E
:10531000DA70BB681B781A04BB685B781B02134306
:10532000BA6892781A43BB68DB789B0513437B61AC
:10533000FB681B68CA225A62FB681B6853225A62C8
:10534000F86800F0DFF90346FB74FB7C002B20D1EA
:10535000FB681A687B6903F07F3323F0FE43136018
:10536000FB681B689A68FB681B6822F480229A60BD
:10537000FB681B689968BB68DA68BB681B691A43DD
:10538000FB681B680A439A60F86800F0F2F903466C
:10539000FB74FB7C002B02D1FB6801225A77FB686F
:1053A0001B68FF225A62FB6800221A77FB7C1846B2
:1053B0001C37BD4690BD80B586B000AFF860B960BF
:1053C0007A6000237B61FB681B689A6ABB685A603D
:1053D000FB681B681B69C3F30E02BB689A60FB681D
:1053E0001B681B6803F07F3323F0FE437B617B69FE
:1053F0001B0CDBB203F03F03DAB2BB681A707B69A7
:105400001B0ADBB203F07F03DAB2BB685A707B6918
:10541000DBB203F07F03DAB2BB689A707B699B0D45
:10542000DBB203F00103DAB2BB68DA707B68002BF1
:105430001AD1BB681B78184600F0DEF903461A46FD
:10544000BB681A70BB685B78184600F0D5F9034654
:105450001A46BB685A70BB689B78184600F0CCF9B6
:1054600003461A46BB689A70002318461837BD4693
:1054700080BD90B587B000AFF860B9607A60002356
:105480007B61FB681B7F012B01D1022371E0FB686C
:1054900001221A77FB6802225A777B68002B0ED113
:1054A000BB685B7803F01003002B08D0BB685B7807
:1054B00023F01003DBB20A33DAB2BB685A707B68A0
:1054C000002B1CD1BB68DB78184600F077F9034647
:1054D0001C04BB685B78184600F070F903461B0299
:1054E0001C43BB689B78184600F068F9034644EA01
:1054F0000302BB681B785B0313437B610EE0BB6850
:10550000DB781A04BB685B781B021343BA68927895
:105510001A43BB681B785B0313437B61FB681B6802
:10552000CA225A62FB681B6853225A62F86800F06C
:10553000E9F80346FB74FB7C002B0CD1FB681A686E
:105540007B6923F07F4323F0C0035360F86800F0C9
:1055500010F90346FB74FB7C002B02D1FB6801228F
:105560005A77FB681B68FF225A62FB6800221A7791
:10557000FB7C18461C37BD4690BD80B586B000AF99
:10558000F860B9607A6000237B61FB681B685B6828
:1055900023F07F4323F0C0037B617B691B0CDAB2ED
:1055A000BB68DA707B691B0ADBB203F01F03DAB257
:1055B000BB685A707B69DBB203F03F03DAB2BB68A9
:1055C0009A707B695B0BDBB203F00703DAB2BB684E
:1055D0001A707B68002B1AD1BB68DB78184600F084
:1055E0000BF903461A46BB68DA70BB685B7818464D
:1055F00000F002F903461A46BB685A70BB689B78F4
:10560000184600F0F9F803461A46BB689A70002362
:1056100018461837BD4680BD80B582B000AF7860AF
:105620001F4B4FF400325A617B681B689B6803F480
:105630008053002B12D07B681B68DB6803F48073F7
:10564000002B0BD07B681B68DB68DAB27B681B68B9
:1056500062F4C072DA60786800F024F87B681B6836
:105660009B6803F40053002B12D07B681B68DB6837
:1056700003F40073002B0BD07B681B68DB68DAB285
:105680007B681B6862F42072DA60786800F004F9C5
:105690007B6801225A7700BF0837BD4680BD00BF36
:1056A000003C014080B483B000AF786000BF0C378D
:1056B000BD465DF8047B704780B584B000AF78606C
:1056C0000023FB607B681B680D4ADA60FEF754FC20
:1056D000F86009E0FEF750FC0246FB68D31AB3F508
:1056E0007A7F01D9032307E07B681B68DB6803F03E
:1056F0002003002BEED0002318461037BD4680BD96
:105700005F7F010080B584B000AF78600023BB608C
:105710000023FB737B681B68DB6803F04003002BEE
:1057200022D17B681B68DA687B681B6842F08002C4
:10573000DA60FEF721FCB8600CE0FEF71DFC0246C3
:10574000BB68D31AB3F57A7F04D97B6804225A77F1
:105750000123FB737B681B68DB6803F04003002BAD
:1057600002D1FB7B012BE8D1FB7B18461037BD46ED
:1057700080BD80B584B000AF78600023FB737B6888
:105780001B68DA687B681B6822F08002DA607B683D
:105790001B689B6803F02003002B0AD17868FFF791
:1057A0008BFF0346002B04D07B6804225A77012329
:1057B000FB73FB7B18461037BD4680BD80B485B0B7
:1057C00000AF0346FB710023FB6005E0FB6801337B
:1057D000FB60FB790A3BFB71FB79092BF6D8FB6870
:1057E000DBB21B01DAB2FB791343DBB21846143784
:1057F000BD465DF8047B704780B485B000AF0346BA
:10580000FB710023FB60FB791B09DBB21A461346D0
:105810009B0013445B00FB60FB68DAB2FB7903F08A
:105820000F03DBB21344DBB218461437BD465DF8F4
:10583000047B704780B487B000AFF860B9607A60CD
:1058400000237B61FB681B6850337B61BB689B0056
:105850007A6913447B617B697A681A6000BF1C37E0
:10586000BD465DF8047B704780B485B000AF7860BA
:1058700039600023FB607B681B685033FB603B682A
:105880009B00FA681344FB60FB681B6818461437DA
:10589000BD465DF8047B704780B483B000AF78608C
:1058A00000BF0C37BD465DF8047B704780B582B001
:1058B00000AF78607B68002B01D1012322E07B6878
:1058C00093F83430DBB2002B05D17B6800221A77C5
:1058D0007868FEF73FF87B68032283F83420786805
:1058E00000F014F80346002B01D001230AE07B6886
:1058F00000229A637B6800221A637B68012283F886
:105900003420002318460837BD4680BDB0B58EB0A0
:1059100004AF78600023FB6000233B6100237B61C0
:105920000023BB610023FB6176233B627B681D681B
:105930006C4607F1180393E8070084E8070007F1B5
:105940000C030ECB284603F051F92A4B00221A60B3
:105950007B681B68184603F092F9264B01221A60F7
:105960000220FEF715FB786800F07AFE78627B6A09
:10597000002B0BD07B68012283F834207B689A6B64
:105980007B6A1A437B689A6301232EE0786800F0F3
:1059900099FD78627B6A002B0BD07B68012283F82B
:1059A00034207B689A6B7B6A1A437B689A63012375
:1059B0001BE07B681B684FF40071184603F0F1F997
:1059C00078627B6A002B0FD07B681B680A4A9A6357
:1059D0007B689A6B7B6A1A437B689A637B680122B7
:1059E00083F83420012300E0002318462837BD4601
:1059F000B0BD00BFA0802542FF05400080B592B039
:105A000000AFF860B9607A603B60FEF7B5FA3863C2
:105A10007B68BB63BB687B63BB68002B07D1FB68FB
:105A20009B6B43F00062FB689A630123C5E1FB684E
:105A300093F83430DBB2012B40F0B881FB680022D0
:105A40009A63BA6B3B681A44FB68DB6D9A4207D9CC
:105A5000FB689B6B43F00072FB689A630123ACE127
:105A6000FB68032283F83420FB681B680022DA629B
:105A7000FB685B6C012B02D0BB6B5B02BB634FF01E
:105A8000FF337B613B685B02BB619023FB610223B8
:105A90003B6200237B620123BB62FB681B6807F14A
:105AA00014021146184603F050F93B68012B0AD93D
:105AB000FB6802221A63FB681B68B96B184603F087
:105AC000B4F9786409E0FB6801221A63FB681B687B
:105AD000B96B184603F087F978647B6C002B12D001
