:020000040800F2
:1000000000000220B15600083D5400084554000885
:100010004D540008555400085D54000800000000CD
:10002000000000000000000000000000655400080F
:100030007354000800000000815400088F54000829
:100040000157000801570008015700080157000830
:100050000157000801570008015700080157000820
:100060000157000801570008015700080157000810
:100070000157000801570008015700080157000800
:1000800001570008015700080157000801570008F0
:1000900001570008015700080157000801570008E0
:1000A00001570008015700080157000801570008D0
:1000B00001570008015700080157000801570008C0
:1000C00001570008015700080157000801570008B0
:1000D000015700089D540008B1540008C554000899
:1000E00001570008D95400080157000801570008BB
:1000F0000157000801570008015700080157000880
:10010000015700080157000801570008015700086F
:10011000015700080157000801570008ED54000876
:10012000015700080157000801570008015700084F
:10013000015700080157000801570008015700083F
:10014000015700080157000801570008015700082F
:10015000015700080157000801570008015700081F
:10016000015700080157000801570008015700080F
:10017000015700080157000801570008000000005F
:080180000157000801570008B7
:1001900010B5054C237833B9044B13B10448AFF3C1
:1001A00000800123237010BD6C04002000000000BB
:1001B00074F5000808B5034B1BB103490348AFF3BE
:1001C000008008BD000000007004002074F50008E5
:1001D00010F8012B11F8013B012A28BF9A42F7D0F1
:1001E000D01A7047034613F8012B002AFBD1181AC6
:1001F000013870470000000000000000000000000F
:1002000001F0FF01102A2BDB10F0070F08D010F8C7
:10021000013B013A8B422DD010F0070F42B3F6D1CB
:10022000F0B441EA012141EA014122F007047FF0E4
:1002300000070023F0E80256083C85EA010586EA3B
:10024000010685FA47F5A3FA87F586FA47F6A5FA77
:1002500087F68EB9EED1F0BC01F0FF0102F0070283
:1002600032B110F8013B013A83EA010313B1F8D12E
:100270000020704701387047002D06BF354603380F
:10028000073815F0010F07D1013015F4807F02BF48
:10029000013015F4C03F0130F0BC0138704700BF99
:1002A00053B94AB9002908BF00281CBF4FF0FF31DD
:1002B0004FF0FF3000F06AB9ADF1080C6DE904CEE3
:1002C00000F006F8DDF804E0DDE9022304B0704731
:1002D0002DE9F047089D0C46002B4ED194468C45E5
:1002E0008646B2FA82F262D94AB1C2F12003914045
:1002F00020FA03F30CFA02FC194300FA02FE4FEA5B
:100300001C471FFA8CF6B1FBF7F44FEA1E4307FBBC
:10031000141143EA014304FB06F199420AD91CEB8C
:10032000030304F1FF3080F01281994240F20F8103
:10033000023C6344591A1FFA8EF3B1FBF7F007FB36
:10034000101143EA014300FB06F69E420AD91CEB5A
:10035000030300F1FF3180F0FC809E4240F2F980FF
:10036000634402389B1B40EA044000211DB1D34086
:100370000022C5E90032BDE8F0878B4205D90DB1F6
:10038000C5E9000100210846F5E7B3FA83F1002929
:1003900046D1A34202D39042C0F0F080861A64EBAB
:1003A00003030120002DE6D0C5E90063E3E7002A3E
:1003B00040F09080A1EB0C044FEA1C481FFA8CF728
:1003C0000121B4FBF8F64FEA1E4308FB164443EA4A
:1003D000044307FB06F0984208D91CEB030306F11F
:1003E000FF3402D2984200F2CD8026461C1A1FFA32
:1003F0008EF3B4FBF8F008FB104443EA044300FB1F
:1004000007F79F4208D91CEB030300F1FF3402D227
:100410009F4200F2B0802046DB1B40EA0640A5E781
:10042000C1F120068B4022FA06F71F4320FA06FC92
:1004300004FA01F343EA0C03F44000FA01F8380C23
:100440004FEA1349B4FBF0FE1FFA87FC00FB1E4481
:1004500049EA04440EFB0CF9A14502FA01F20AD95B
:100460003C190EF1FF3A80F08480A14540F2818072
:10047000AEF1020E3C44A4EB09041FFA83F9B4FB6D
:10048000F0F300FB134449EA044403FB0CFCA445CD
:1004900007D93C1903F1FF3067D2A44565D9023B67
:1004A0003C4443EA0E40A0FB0293A4EB0C049C42A4
:1004B000CE469C4651D34ED055B1B8EB0E0364EBFB
:1004C0000C0404FA06F6CB401E43CC40C5E9006498
:1004D000002150E7C2F1200320FA03F10CFA02FCDC
:1004E00024FA03F394400C434FEA1C4800FA02FE3E
:1004F0001FFA8CF7B3FBF8F008FB1031230C43EA2A
:10050000014300FB07F1994208D91CEB030300F1FA
:10051000FF362CD299422AD9023863445B1AA4B21E
:10052000B3FBF8F108FB113344EA034401FB07F382
:10053000A34208D91CEB040401F1FF3613D2A342F5
:1005400011D902396444E41A41EA004139E704460A
:10055000F0E6084606E7C845AED2B9EB020E63EBFB
:10056000070C0138A8E73146EDE7034699E7304626
:10057000D4E7D6467FE7634402384DE70646234674
:1005800008460FE7023E634430E700BF704700BFF4
:1005900080B582B000AF0346FB71F91D4FF0FF3309
:1005A0000122034807F0C7FD00BF0837BD4680BDE4
:1005B000280E002080B582B000AF0623FB71002218
:1005C0001021084805F074FCFB791846FFF7E0FF9E
:1005D00001221021034805F06BFC00BF0837BD461F
:1005E00080BD00BF0000024080B582B000AF042390
:1005F000FB7100221021084805F05AFCFB791846CF
:10060000FFF7C6FF01221021034805F051FC00BF8F
:100610000837BD4680BD00BF0000024080B500AF76
:10062000FFF7C8FF00BF80BD80B500AFFFF7DCFF5C
:1006300000BF80BD80B584B000AF03463960FB8049
:100640001346BB80BB88002B02D03B68002B01D136
:10065000012339E0FFF7E2FF002210211C4805F0DA
:1006600027FC02233B72FB881B14DBB27B72FB88E6
:100670001B0A9BB2DBB2BB72FB88DBB2FB7207F1D9
:1006800008014FF0FF330422124807F054FD0346DF
:10069000FB73FB7B002B06D0012210210C4805F0D8
:1006A00007FCFB7B10E0BA884FF0FF33396809483C
:1006B00007F041FD0346FB7301221021044805F0B9
:1006C000F7FBFFF7B1FFFB7B18461037BD4680BD37
:1006D00000000240280E002080B582B000AF034623
:1006E0003960FB801346BB80BA88FB88396818469E
:1006F000FFF7A0FF034618460837BD4680BD00003F
:1007000080B584B000AF03463960FB801346BB80E0
:10071000BB88002B02D03B68002B01D1012335E0C0
:10072000002210211B4805F0C3FB03233B72FB880A
:100730001B14DBB27B72FB881B0A9BB2DBB2BB7261
:10074000FB88DBB2FB7207F108014FF0FF33042294
:10075000114807F0F0FC0346FB73FB7B002B06D02F
:10076000012210210B4805F0A3FBFB7B0EE0BA88A9
:100770004FF0FF333968084807F021FE0346FB734A
:1007800001221021034805F093FBFB7B184610372C
:10079000BD4680BD00000240280E002080B582B01A
:1007A00000AF03463960FB801346BB80BA88FB88E4
:1007B00039681846FFF7A4FF034618460837BD46B8
:1007C00080BD000080B582B000AFBB1D012219467C
:1007D0000020FFF7E3FF0346FB71BB79012B0CBF41
:1007E00001230023DBB21A46034B1A70FB7918462B
:1007F0000837BD4680BD00BF0E10002080B582B016
:1008000000AF074B1B78FB71FB1D0122194600202E
:10081000FFF762FF034618460837BD4680BD00BF9C
:100820000E10002080B582B000AFBB1D012219461A
:100830000120FFF7B3FF0346FB71BB79012B0CBF0F
:1008400001230023DBB21A46034B1A70FB791846CA
:100850000837BD4680BD00BF0D10002080B582B0B6
:1008600000AF074B1B78FB71FB1D012219460120CD
:10087000FFF732FF034618460837BD4680BD00BF6C
:100880000D10002080B582B000AFBB1D01221946BB
:100890009820FFF783FF0346FB71BB79012B0CBF48
:1008A00001230023DBB21A46034B1A70FB7918466A
:1008B0000837BD4680BD00BF1010002080B586B04F
:1008C00000AF786000F0BEFA78617B69002B01D13F
:1008D00001232FE07B68002B0AD07868FFF782FCA9
:1008E00003460133402B03D87B681B78002B01D1D2
:1008F00001231FE00123FB7307F10F0301221946B7
:100900009820FFF7E9FE0346FB74FB7C002B01D027
:10091000FB7C0FE07868FFF765FC03469BB2013370
:100920003B823B8A1A4679689920FFF7D5FE034639
:10093000FB74FB7C18461837BD4680BD80B586B079
:1009400000AF786000F07EFA78617B69002B01D1FE
:1009500001232FE07B68002B0AD07868FFF742FC68
:1009600003460133402B03D87B681B78002B01D151
:1009700001231FE00123FB7307F10F030122194636
:10098000D920FFF7A9FE0346FB74FB7C002B01D0A6
:10099000FB7C0FE07868FFF725FC03469BB2013330
:1009A0003B823B8A1A467968DA20FFF795FE0346B8
:1009B000FB74FB7C18461837BD4680BD80B582B0FD
:1009C00000AFBB1D012219461020FFF7E7FE0346CA
:1009D000FB71BB79012B0CBF01230023DBB21A464C
:1009E000034B1A70FB7918460837BD4680BD00BF1F
:1009F0000F10002080B582B000AF074B1B78FB7151
:100A0000FB1D012219461020FFF766FE034618461B
:100A10000837BD4680BD00BF0F10002080B586B0EE
:100A200000AF786004F018F978617B69002B01D180
:100A300001232FE07B68002B0AD07868FFF7D2FBF8
:100A400003460133802B03D87B681B78002B01D130
:100A500001231FE00123FB7307F10F030122194655
:100A60001020FFF739FE0346FB74FB7C002B01D0FE
:100A7000FB7C0FE07868FFF7B5FB03469BB20133C0
:100A80003B823B8A1A4679681120FFF725FE034610
:100A9000FB74FB7C18461837BD4680BD80B584B01A
:100AA00000AF04F0D9F8B860BB68002B01D1012376
:100AB0002CE0FB1D012219461020FFF76FFE0346B4
:100AC000FB73FB7B002B01D0FB7B1FE0FB79012B31
:100AD0000FD1BB687F2219461120FFF75FFE034646
:100AE000FB73FB7B002B07D1BB68002283F87F20C0
:100AF00002E0BB6800221A70FB79012B0CBF0123B6
:100B00000023DBB21A46034B1A70FB7B18461037E2
:100B1000BD4680BD0F10002080B582B000AFBB1D68
:100B2000012219469120FFF739FE0346FB71BB797C
:100B3000012B0CBF01230023DBB21A46034B1A70B2
:100B4000FB7918460837BD4680BD00BF1110002054
:100B500080B582B000AF074B1B78FB71FB1D0122F3
:100B600019469120FFF7B8FD034618460837BD46E1
:100B700080BD00BF1110002080B584B000AF786048
:100B80007B68002B01D101231EE00123BB7307F119
:100B90000E03012219469120FFF79EFD0346FB73C9
:100BA000FB7B002B01D0FB7B0EE07868FFF71AFB84
:100BB00003469BB201339BB21A4679689220FFF735
:100BC0008BFD0346FB73FB7B18461037BD4680BD8B
:100BD00080B584B000AF04F03FF8B860BB68002B6C
:100BE00001D1012331E0FB1D012219469120FFF7BD
:100BF000D5FD0346FB73FB7B002B01D0FB7B24E080
:100C0000FB79012B10D1BB68803311221946922049
:100C1000FFF7C4FD0346FB73FB7B002B0BD1BB68C6
:100C2000002283F8912006E0BB6880331222002165
:100C300018460CF0AAFFFB79012B0CBF01230023FF
:100C4000DBB21A46034B1A70FB7B18461037BD46C1
:100C500080BD00BF1110002080B500AF012210211F
:100C6000024805F025F900BF80BD00BF000002402A
:100C700080B400AF024B1846BD465DF8047B704758
:100C80000000001080B500AF0C22002102480CF0DB
:100C90007CFF00BF80BD00BF0000001080B584B0A5
:100CA00000AF7860FFF7E4FFF8607B68072B27D878
:100CB00001A252F823F000BFD90C0008E10C000893
:100CC000E90C0008010D0008010D0008010D0008E5
:100CD000F10C0008F90C0008FB6800229A6012E091
:100CE000FB6801229A600EE0FB6802229A600AE02B
:100CF000FB6806229A6006E0FB6807229A6002E021
:100D00004FF0FF3301E0FB689B6818461037BD4683
:100D100080BD00BF80B582B000AFFFF7A9FF78604B
:100D20007B689B683B60404B1B6903F00103012B10
:100D300017D13D4B1B6903F00203022B11D13A4B33
:100D40001B6903F00403042B0BD1374B1B6903F021
:100D50000803082B05D10020FFF7A0FF38603B688F
:100D60005DE0314B1B6903F00103012B17D12E4BC2
:100D70001B6903F00203022B11D12B4B1B6903F0FB
:100D80000403042B0BD0284B1B6903F00803082B2A
:100D900005D00220FFF782FF38603B683FE0234B1D
:100DA00000221A70204B1B6903F00103012B17D09E
:100DB0001D4B1B6903F00203022B11D11A4B1B6957
:100DC00003F00403042B0BD0174B1B6903F008033B
:100DD000082B05D00620FFF761FF38603B681EE056
:100DE000114B1B6903F00103012B17D00E4B1B693C
:100DF00003F00203022B11D10B4B1B6903F0040318
:100E0000042B0BD0084B1B6903F00803082B05D1FA
:100E10000720FFF743FF38603B6800E03B68184657
:100E20000837BD4680BD00BF001002400C100020F6
:100E300080B400AF024B1846BD465DF8047B704796
:100E40000C00001080B400AF024B1846BD465DF8A0
:100E5000047B70472800001080B500AF1C220021E1
:100E600002480CF092FE00BF80BD00BF0C000010D5
:100E700080B500AF8022002102480CF086FE00BF42
:100E800080BD00BF2800001080B586B000AF1A4BAF
:100E90003B61386900F094FAF860184BBB60184B5E
:100EA0007B60FB68002B14D01649F8680CF004FF37
:100EB0000346002B0DD0B868FFF794F903469AB2A9
:100EC0004FF0FF33B968104808F0DCF900237B616C
:100ED0000CE07868FFF786F903469AB24FF0FF33CB
:100EE0007968094808F0CEF901237B617B691846CF
:100EF0001837BD4680BD00BF8CF5000894F500088A
:100F0000B0F50008C8F50008100F002080B5AAB0A1
:100F100002AF0023C7F89C3003F0F8FCC7F8980034
:100F200003F070FDC7F894000023C7F890302F4BF2
:100F3000C7F88C302E4BC7F8883000237B6007F150
:100F400008037C22002118460CF01FFE381DD7F83C
:100F500094300093D7F89830264A80210CF062FD37
:100F6000C7F88400D7F88430002B03DBD7F884302F
:100F70007F2B01DD02F0BEF83B1D184600F020FA81
:100F8000C7F89000D7F89030002B18D01A49D7F83E
:100F900090000CF091FE0346002B10D0D7F88C0087
:100FA000FFF720F903469AB24FF0FF33D7F88C10C1
:100FB000124808F067F90023C7F89C300FE0D7F813
:100FC0008800FFF70FF903469AB24FF0FF33D7F8C6
:100FD00088100A4808F056F90123C7F89C30D7F862
:100FE0009C301846A037BD4680BD00BFCCF5000838
:100FF000F4F500081CF60008C8F50008100F0020E2
:1010000080B5ADF5026D00AF07F50263A3F61C03D2
:10101000186007F50263A3F5016300221A60043328
:1010200040F2FC72002118460CF0AFFD0023C7F817
:101030001C3804F0CDFBC7F8180807F50263A3F6C7
:101040001C031868FFF7CEF8C7F81008D7F8103857
:101050009AB207F50263A3F61C014FF0FF3309684B
:10106000584808F00FF90346002B53D002F042F81D
:1010700050E007F10F014FF496730122514808F038
:101080008CF90346002B3BD1D7F81C385A1CC7F803
:101090001C2807F50262A2F61102117807F5026218
:1010A000A2F50162D1540622D7F81C3893420ED320
:1010B0000622D7F81C389B1A07F1100213440622A7
:1010C000414918460CF051FD0346002B2CD0092253
:1010D000D7F81C3893420ED30922D7F81C389B1A34
:1010E00007F1100213440922384918460CF03DFD5F
:1010F0000346002B15D004F06BFBC7F8180809E075
:1011000004F066FB0246D7F81838D31A44F620627A
:10111000934208D8D7F81C3840F2FE729342A8D9FF
:1011200002E000BF00E000BF04F052FBC7F8140863
:101130001DE007F10F014FF496730122214808F0DA
:101140002CF90346002B12D1D7F81C385A1CC7F8CB
:101150001C2807F50262A2F61102117807F5026257
:10116000A2F50162D15404F033FBC7F81408D7F894
:101170001C3840F2FE72934208D804F029FB024664
:10118000D7F81438D31AB3F5FA7FD2D307F5026330
:10119000A3F50162D7F81C38134400221A70D7F85F
:1011A0001C38002B09D0D7F81C389AB207F110016F
:1011B0004FF0FF33064808F065F800BF07F50267F7
:1011C000BD4680BD580F0020E00A0108E80A01086A
:1011D000100F002080B5ADF5026D00AF07F502637A
:1011E000A3F61C03186007F50263A3F50163002250
:1011F0001A60043340F2FC72002118460CF0C5FC62
:101200000023C7F81C3804F0E3FAC7F8180807F5FC
:101210000263A3F61C031868FEF7E4FFC7F8100882
:10122000D7F810389AB207F50263A3F61C014FF005
:10123000FF3309685E4808F025F80346002B53D0B9
:1012400001F058FF50E007F10F014FF496730122AF
:10125000574808F0A2F80346002B3BD1D7F81C38BA
:101260005A1CC7F81C2807F50262A2F61102117871
:1012700007F50262A2F50162D1540622D7F81C38A4
:1012800093420ED30622D7F81C389B1A07F110029E
:1012900013440622474918460CF067FC0346002B0E
:1012A0002CD00922D7F81C3893420ED30922D7F844
:1012B0001C389B1A07F11002134409223E491846B4
:1012C0000CF053FC0346002B15D004F081FAC7F84C
:1012D000180809E004F07CFA0246D7F81838D31A47
:1012E00044F62062934208D8D7F81C3840F2FE72C8
:1012F0009342A8D902E000BF00E000BF04F068FA02
:10130000C7F814081DE007F10F014FF4967301228E
:10131000274808F042F80346002B12D1D7F81C38B2
:101320005A1CC7F81C2807F50262A2F611021178B0
:1013300007F50262A2F50162D15404F049FAC7F838
:101340001408D7F81C3840F2FE72934208D804F013
:101350003FFA0246D7F81438D31AB3F5FA7FD2D33E
:1013600007F50263A3F50162D7F81C381344002285
:101370001A70D7F81C38002B09D0D7F81C389AB24D
:1013800007F110014FF0FF330C4807F07BFF07F126
:101390001003084918460CF08FFC0346002B01D0BF
:1013A000002300E00123184607F50267BD4680BD13
:1013B000580F0020E00A0108E80A0108100F002079
:1013C00080B588B000AF78600023FB6104F000FABC
:1013D000B8617868FEF706FF38613B699AB24FF052
:1013E000FF337968454807F04DFF0346002B42D094
:1013F00001F080FE3FE007F10F014FF496730122E8
:101400003E4807F0CAFF0346002B2BD1FB695A1C4C
:10141000FA61F97B3A4AD1540622FB6993420CD314
:101420000622FB699B1A364A1344062235491846A0
:101430000CF09BFB0346002B26D00922FB6993424C
:101440000CD30922FB699B1A2D4A134409222E4909
:1014500018460CF08AFB0346002B12D004F0B8F9B2
:10146000B86108E004F0B4F90246BB69D31A44F647
:101470002062934207D8FB6940F2FE729342BAD9C8
:1014800002E000BF00E000BF04F0A2F9786113E0C1
:1014900007F10F014FF496730122184807F07DFF02
:1014A0000346002B08D1FB695A1CFA61F97B144AE8
:1014B000D15404F08DF97861FB6940F2FE729342D9
:1014C00007D804F085F902467B69D31AB3F5FA7F91
:1014D000DED30B4AFB69134400221A70FB69002B10
:1014E00007D0FB699AB24FF0FF330549074807F070
:1014F000C9FE034B18462037BD4680BD580F00205B
:10150000D0040020E00A0108E80A0108100F0020BA
:1015100080B586B000AF00237B611A4B3B61386910
:10152000FFF74EFFF860184BBB60184B7B60FB6801
:10153000002B14D01649F8680CF0BEFB0346002BB4
:101540000DD0B868FEF74EFE03469AB24FF0FF3357
:10155000B968104807F096FE00237B610CE07868BC
:10156000FEF740FE03469AB24FF0FF337968094810
:1015700007F088FE01237B617B6918461837BD465A
:1015800080BD00BF34F6000840F6000864F600088D
:10159000C8F50008100F002080B5C6B000AF0023CA
:1015A000C7F81431394BC7F810313846D7F8103125
:1015B000374A4FF480710CF035FAC7F80C01D7F8B0
:1015C0000C31002B03DBD7F80C31FF2B01DD01F0D0
:1015D00091FD3B461846FFF7F3FEC7F814012D496D
:1015E000D7F814010CF068FBC7F80801D7F80831E8
:1015F000002B27D0D7F808310933C7F8083122214A
:10160000D7F808010CF0C9FAC7F80401D7F804317B
:10161000002B17D0D7F80421D7F80831D31AC7F810
:101620000031D7F800317F2B0CD8D7F80021D7F83C
:10163000081119480CF0D0FA174AD7F800311344B2
:1016400000221A70144B1B78002B12D01248FEF7A0
:10165000C9FD03469AB24FF0FF330F490F4807F018
:1016600011FE4FF0FF3302220D490C4807F00AFE2D
:1016700006E04FF0FF3319220A49084807F002FE3E
:10168000054B184607F58C77BD4680BD84F60008EB
:10169000BCF6000824F70008D00C0020100F002032
:1016A00030F7000834F7000880B588B000AF3A4B37
:1016B0007B617869FFF784FE3861384938690CF03E
:1016C000FBFAF860FB68002B41D0FB680B33FB6032
:1016D0002221F8680CF061FAB860BB68002B36D0A4
:1016E000BA68FB68D31A7B607B68112B2FD8002364
:1016F000FB610023BB6121E0FA68BB6913441B78DE
:101700003A2B18D0FA68BB6913441B78FB70FB783E
:101710000133234A13441B7803F00303022B03D144
:10172000FB78A3F1200200E0FA78FB69591CF9610B
:10173000D1B21C4AD154BB690133BB61BA697B6821
:101740009A42D9D3174AFB69134400221A701548EC
:10175000FEF748FD03469AB24FF0FF331149124895
:1017600007F090FD4FF0FF33022210490E4807F0BA
:1017700089FD0C4B1B78002B08D14FF0FF331F2243
:101780000B49094807F07EFD002300E0054B184691
:101790002037BD4680BD00BF50F7000860F7000845
:1017A000E8140108500D0020100F002030F7000849
:1017B0006CF7000880B5A8B000AF78600023C7F8C8
:1017C0009C30FFF735FBC7F8940007F10C007B68ED
:1017D000B34A80210CF026F9C7F89000D7F8903072
:1017E000002B03DBD7F890307F2B04DD01F082FC67
:1017F0000123C7F89C3007F10C031846FFF700FCE3
:10180000A848FFF7FDFBA848FFF7DAFDC7F88C00F2
:10181000FFF70EFBC7F89400A449D7F88C000CF032
:101820004BFAC7F89800D7F89830002B0DD0D7F8AE
:1018300098300C33C7F898300322D7F898109C489A
:101840000CF0CAF99A4B0022DA70994802F00EFEA9
:101850000246D7F89430DA609548FEF7C3FC034699
:101860009AB24FF0FF339249924807F00BFD4FF0C8
:10187000FF33022290498F4807F004FDD7F89830D3
:10188000002B0DD0D7F898300433C7F898300322D6
:10189000D7F8981089480CF09FF9884B0022DA702D
:1018A000864802F0E3FD0246D7F894305A60834838
:1018B000FEF798FC03469AB24FF0FF337F497D480C
:1018C00007F0E0FC4FF0FF3302227B49794807F034
:1018D000D9FCD7F89830002B0DD0D7F898300433C6
:1018E000C7F898300222D7F8981075480CF074F9B0
:1018F000734B00229A7072480BF047FF0246D7F8EC
:1019000094309A606E48FEF76DFC03469AB24FF031
:10191000FF336B49674807F0B5FC4FF0FF330222F5
:101920006549644807F0AEFCD7F89830002B0DD01D
:10193000D7F898300333C7F898300222D7F89810B8
:1019400060480CF049F95F4B00229A705D480BF03B
:101950001CFF0246D7F894301A615A48FEF742FC41
:1019600003469AB24FF0FF335649524807F08AFCBB
:101970004FF0FF33022250494E4807F083FCD7F85E
:101980009830002B0DD0D7F898300333C7F8983033
:101990000222D7F898104C480CF01EF94A4B00224E
:1019A0009A7049480BF0F1FE0246D7F894305A611C
:1019B0004548FEF717FC03469AB24FF0FF33424901
:1019C0003C4807F05FFC4FF0FF3302223A493948A8
:1019D00007F058FCD7F89830002B0DD0D7F8983086
:1019E0000333C7F898300222D7F8981037480CF024
:1019F000F3F8364B00229A7034480BF0C6FE0246CC
:101A0000D7F894309A613148FEF7ECFB03469AB25E
:101A10004FF0FF332D49274807F034FC4FF0FF33D8
:101A200002222549234807F02DFCD7F89830002BD7
:101A30000DD0D7F898300333C7F898300422D7F880
:101A4000981023480CF0C8F8214B00221A71204846
:101A50000BF09BFE0246D7F894301A601C48FEF744
:101A6000C1FB03469AB24FF0FF331949114807F002
:101A700009FC4FF0FF3302220F490E4807F002FC29
:101A8000D7F89C30012B01D1012304E00023C7F8D3
:101A90009C30D7F89C301846A037BD4680BD00BFAB
:101AA0008CF70008C4F70008D8F70008ECF7000826
:101AB000640D0020100F002030F70008680D002092
:101AC0006C0D0020700D0020740D0020780D00209A
:101AD0007C0D002080B5ADF5747D02AF0023C7F802
:101AE000C4330023C7F8C03307F29B31C823012257
:101AF000C04807F052FC0346002B97F89B332B2B72
:101B0000F2D1D7F8C4335A1CC7F8C42303F5727353
:101B10003B442B2203F8702C1BE007F29B31C823B7
:101B20000122B44807F039FC0346002B01D001F034
:101B3000E1FAD7F8C4335A1CC7F8C42397F89B239B
:101B400003F572733B4403F8702C97F89B333A2BE0
:101B500004D0D7F8C4333E2BDFDD00E000BF07F52B
:101B60005672D7F8C433134400221A7007F5AA73CB
:101B700007F5AB7207F556709F490BF087FF0346D8
:101B8000022B40F035810023A7F8BE331CE007F29A
:101B90009B31C8230122974807F0FFFB0346002B27
:101BA00001D001F0A7FAD7F8C0335A1CC7F8C023F8
:101BB00097F89B1307F57272A2F51C72D154B7F80F
:101BC000BE330133A7F8BE3307F57273A3F51D7357
:101BD0001B88B7F8BE239A4204D2D7F8C033B3F5B6
:101BE000FF7FD4DD07F57273A3F51C72D7F8C033FD
:101BF000134400221A700023C7F8B83307F14403D6
:101C000007F5A67207F5AC707C490BF03FFF034661
:101C1000022B0BD107F1440379491846FEF7D8FA95
:101C20000346002B02D10123C7F8B833D7F8B833E5
:101C3000002B16D0734BC7F8A833D7F8A803FEF7CC
:101C4000D1FA0346C7F8B433D7F8B42307F1C40375
:101C5000D7F8A81318460BF0BFFF0023C7F8B0331E
:101C600017E0694B1B68C7F8B03307F1C400D7F819
:101C7000B033664A80210BF0D5FEC7F8B403D7F81D
:101C8000B433002B03DBD7F8B4337F2B01DD01F035
:101C900031FAD7F8B423D7F8B0331344C7F8A433D4
:101CA00007F57273A3F272231B881A46381DD7F802
:101CB000A43300931346564A40210BF0B3FEC7F8F5
:101CC000A003D7F8A033002B03DBD7F8A0333F2BBA
:101CD00001DD01F00FFAD7F8A0339AB2391D4FF0A9
:101CE000FF33444807F0CEFA03F072FDC7F89C03B7
:101CF00007F29B31C82301223E4807F04EFB034602
:101D0000002B03D197F89B333E2B08D003F060FDE6
:101D10000246D7F89C33D31AC72BE9D900E000BF9D
:101D2000D7F8B4339AB207F1C4014FF0FF3331480A
:101D300007F0A8FAD7F8B833002B08D1D7F8B0339A
:101D40009AB24FF0FF3333492A4807F09BFA03F069
:101D50003FFDC7F89C0307F57273A3F521732E4A64
:101D600092E8030083E803000023C7F8AC3322E0C5
:101D700007F29B31C82301221E4807F00EFB0346E1
:101D8000002B18D107F57273A3F52172D7F8AC3385
:101D900013441A7897F89B339A4209D1D7F8AC3399
:101DA0000133C7F8AC33D7F8AC33072B03D10BE0C2
:101DB0000023C7F8AC3303F00BFD0246D7F89C3381
:101DC000D31AB3F57A7FD3D3322003F00DFD07F594
:101DD0007273A3F272231B88381D104A40210BF046
:101DE00021FEC7F8A0033B1D1846FFF7E9FA75E688
:101DF00000BF73E6580F002038F9000848F90008C2
:101E000054F9000878F90008680B0108A8F90008DF
:101E100070F800080C0B0108FCF9000884F80008B1
:101E200080B5ADF5986D02AF0023C7F8A434002348
:101E3000C7F8A0340023C7F89C340023C7F89834AF
:101E400007F59763A3F55873C24A92E8030083E845
:101E50000300C14BC7F88C34C04B1B68C7F89434DF
:101E60000023C7F8A4340023C7F8A0340023C7F820
:101E70009C340023C7F8983408E000BF06E000BF98
:101E800004E000BF02E000BF00E000BF0023C7F88D
:101E9000B43407F26741C8230122B14807F07DFA44
:101EA0000346002BE9D197F867342B2BF1D1D7F8F3
:101EB000B4345A1CC7F8B42403F597633B442B226F
:101EC00003F8942C19E007F26741C8230122A448C3
:101ED00007F063FA0346002BD1D1D7F8B4345A1C6B
:101EE000C7F8B42497F8672403F597633B4403F8D5
:101EF000942C97F867343A2B04D0D7F8B4343E2B9F
:101F0000E1DD00E000BF07F22442D7F8B434134407
:101F100000221A7007F5087307F2222207F2244004
:101F200090490BF0B3FD0346022BAAD10023C7F85A
:101F3000B0340023A7F892341FE007F26741C823AA
:101F40000122874807F029FA0346002B9BD1D7F8D6
:101F5000B034B3F5FF7F0BDCD7F8B0345A1CC7F8A8
:101F6000B02497F8671407F59762A2F52572D1544B
:101F7000B7F892340133A7F8923407F59763A3F5C5
:101F800026731B88B7F892249A42D6D307F5976335
:101F9000A3F52572D7F8B034134400221A7007F560
:101FA0009763A3F55A7300221A6000225A6007F55E
:101FB0009763A3F2744300221A6004337C22002149
:101FC00018460BF0E2FD07F1440307F5A87207F588
:101FD000097065490BF05AFD0346022B3CD107F10D
:101FE000440362491846FEF7F3F80346002B03D179
:101FF0000123C7F89C342FE007F144035C491846DD
:10200000FEF7E6F80346002B03D10123C7F8A434FA
:1020100022E007F1440357491846FEF7D9F8034672
:10202000002B08D007F14403534918460BF044FE37
:102030000346002B03D00123C7F8A0340CE007F1BE
:10204000440309224D4918460BF0B4FD0346002B0A
:1020500002D10123C7F89834D7F89C34002B00F044
:10206000D680474B1B68002B01D0464B00E0464B07
:10207000C7F86C34D7F86C04FEF7B4F8034607F1E0
:10208000C400424A80210BF0CDFCC7F8AC04D7F85D
:102090006C04FEF7A7F80246D7F8AC341344C7F82F
:1020A000683407F59763A3F296231B881A4607F551
:1020B000B070D7F8683400931346354A40210BF0CE
:1020C000B1FC07F5B0731846FEF78CF803469AB2D8
:1020D00007F5B0714FF0FF33214807F0D3F803F054
:1020E00077FBC7F8840407F26741C82301221C4824
:1020F00007F053F90346002B03D197F867343E2BC2
:1021000008D003F065FB0246D7F88434D31AC72BF6
:10211000E9D900E000BFD7F8AC349AB207F1C401A6
:102120004FF0FF330E4807F0ADF8D7F86C04FEF718
:1021300059F803469AB24FF0FF33D7F86C140848A9
:1021400007F0A0F80023C7F8A83403F041FBC7F854
:10215000840442E0FCF900086C0B010850140108EB
:10216000580F002038F9000848F90008FCFB000867
:1021700004FC000810FA0008E8FB0008F4FC000862
:102180007C10002008000020DCFC000884FB000814
:1021900008FB000807F26741C8230122CB4807F07B
:1021A000FCF80346002B18D107F59763A3F5587286
:1021B000D7F8A83413441A7897F867349A4209D1AB
:1021C000D7F8A8340133C7F8A834D7F8A834072BB8
:1021D00003D10BE00023C7F8A83403F0F9FA024654
:1021E000D7F88434D31AB3F57A7FD3D307F597633E
:1021F000A3F296231B8807F5B070B54A40210BF077
:1022000011FC07F5B0731846FFF7DAF859E1D7F873
:10221000A034002B0CD00023C7F8943407F5D073FA
:10222000AC4A802118460BF0FDFBC7F8AC0409E06E
:1022300007F5D070D7F89434A74A80210BF0F2FB51
:10224000C7F8AC04D7F8AC34002BFFF61EAED7F8B5
:10225000AC347F2B3FF719AED7F8A434002B1AD03B
:1022600007F59763A3F55D739C4A07CA03C31A80F9
:10227000FEF708FB9A4B1B78012B07D107F5A273D9
:1022800009221946974807F01FF904E00F229649E2
:10229000944807F019F9D7F89834002B6DD007F55A
:1022A0009763A3F2B44300221A6004333C22002156
:1022B00018460BF06AFC07F59763A3F57D730022BF
:1022C0001A6004333C22002118460BF05EFC07F133
:1022D00044033F2118460BF060FC03460133C7F866
:1022E000803407F1C4033A1D8049D7F880040BF00D
:1022F000CDFB3B1D184600F039FA07F1C403184620
:1023000000F034FA3B1D1846FEF7D8FA07F1C40373
:102310001846FEF713FB764BC7F87C347449D7F8A0
:102320007C040BF0C9FC0346002B01D0714B00E08C
:10233000714BC7F87834D7F87804FDF753FF03469C
:10234000C7F8743407F5D070D7F874346B4A80211D
:102350000BF068FBC7F8700407F59763A3F29623A8
:10236000188807F5D071D7F874340093D7F878340B
:10237000D7F8702400F0C6F8A3E007F59763A3F23E
:1023800096231B881946D7F8AC24D7F89434134405
:1023900007F5B07000930B46594A40210BF042FB01
:1023A000C7F88804D7F88834002BC0F28B80D7F8A0
:1023B00088343F2B00F38680D7F888349AB207F52B
:1023C000B0714FF0FF33414806F05CFF03F000FAB4
:1023D000C7F8840407F26741C82301223B4806F08E
:1023E000DCFF0346002B03D197F867343E2B08D05F
:1023F00003F0EEF90246D7F88434D31AC72BE9D993
:1024000000E000BFD7F8AC349AB207F5D0714FF0B6
:10241000FF332E4806F036FFD7F8A034002B09D141
:10242000D7F894349AB24FF0FF33D7F88C1427487A
:1024300006F028FF0023C7F8A83403F0C9F9C7F84D
:10244000840422E007F26741C82301221F4806F0F6
:10245000A4FF0346002B18D107F59763A3F5587224
:10246000D7F8A83413441A7897F867349A4209D1F8
:10247000D7F8A8340133C7F8A834D7F8A834072B05
:1024800003D10BE00023C7F8A83403F0A1F90246FA
:10249000D7F88434D31AB3F57A7FD3D307F597638B
:1024A000A3F296231B8807F5B070094A40210BF070
:1024B000B9FAC7F8880407F5B0731846FEF780FF2D
:1024C00000E0CDE407F59767BD4680BD580F0020BA
:1024D0001CFB000878F9000884FB000894FD000844
:1024E00010100020100F002000FD000810FD000853
:1024F000C8F5000828FD000860FD0008A8F90008DC
:1025000008FB000880B594B002AFB9607A603B6008
:102510000346FB81F9897A683B6D134407F11C007F
:1025200000930B463F4A20210BF07CFA38643B6C49
:102530009AB207F11C014FF0FF333B4806F0A2FEB0
:1025400003F046F9F8630CE007F11B01C8230122F0
:10255000354806F022FF0346002B02D1FB7E3E2BBE
:1025600007D003F035F90246FB6BD31AC72BEBD922
:1025700000E000BF7B689AB24FF0FF33B9682A4889
:1025800006F080FE3B6D002B0ADD3B68002B07D078
:102590003B6D9AB24FF0FF333968234806F072FE64
:1025A000224A07F1100392E8030083E803000023A6
:1025B0007B6403F00DF9F86319E007F11B01C823F0
:1025C0000122194806F0E9FE0346002B0FD107F15E
:1025D00010027B6C13441A78FB7E9A4202D17B6C0A
:1025E000013300E000237B647B6C072B08D003F0F1
:1025F000EFF80246FB6BD31AB3F57A7FDDD300E028
:1026000000BFFB8907F11C00094A20210BF00AFAE0
:10261000386407F11C031846FEF7D2FE00BF4837A6
:10262000BD4680BD08FB0008580F0020FCF90008DB
:102630001CFB000880B5ADF6680D02AF07F5066318
:10264000A3F65403186007F50663A3F65803196050
:1026500007F50663A3F65C031A6007F50663A3F6A5
:10266000540307F158004FF4006219680BF0B4FAF4
:102670000023C7F85C3807F15803374918460BF0B8
:10268000BFFAC7F858084AE007223449D7F8580873
:102690000BF090FA0346002B3BD107F1540307F1EE
:1026A00014022F49D7F858080BF0F0F90346022B13
:1026B0002FD107F50663A3F658031A68D7F85C38DC
:1026C000D01807F50663A3F65C031A68D7F85C38E0
:1026D000D11A07F50663A3F60C031B6807F1140271
:1026E000019307F11403009313461E4A0BF09AF965
:1026F00003461A46D7F85C381344C7F85C3807F528
:102700000663A3F65C031B68403BD7F85C289A423B
:102710000AD8114900200BF073FAC7F85808D7F807
:102720005838002BB0D100E000BFD7F85C38002B40
:102730000CD107F50663A3F65C0207F50663A3F662
:1027400058031268084918680BF046FA00BF07F5ED
:102750000667BD4680BD00BF30F700083CFC00089E
:1027600044FC0008A0FD000874FC000880B586B099
:1027700000AF78607B687B617B683B6140E07B6990
:102780001B78252B27D17B6901331B780133224A23
:1027900013441B7803F04403002B1CD07B690233E5
:1027A0001B7801331C4A13441B7803F04403002BAD
:1027B00011D07B69013307F10C02184918460BF060
:1027C00065F9F9683B695A1C3A61CAB21A707B69AB
:1027D00003337B6114E07B691B782B2B08D13B69A9
:1027E0005A1C3A6120221A707B6901337B6107E031
:1027F0007A69531C7B613B69591C396112781A70E4
:102800007B691B78002BBAD13B6900221A7000BF8C
:102810001837BD4680BD00BFE8140108C4FD00089C
:1028200080B483B000AF3D4B1B6B3C4A43F01003B8
:1028300013633A4B1B6B7B60394B1B68384A23F49C
:1028400040331360364B1B68354A43F480331360C2
:10285000334B5B68324A23F480735360304B9B6880
:102860002F4A23F4403393602D4B9B682C4A43F44A
:10287000003393602A4BDB68294A23F44033D3604A
:10288000274B1B68264A23F440231360244B1B6804
:10289000234A43F480231360214B5B68204A23F4CE
:1028A000007353601E4B9B681D4A23F440239360C2
:1028B0001B4B9B681A4A43F400239360184BDB6858
:1028C000174A23F44023D360154B1B68144A23F4A2
:1028D00040131360124B1B68114A43F480131360BA
:1028E0000F4B5B680E4A23F4806353600C4B9B686C
:1028F0000B4A23F440139360094B9B68084A43F446
:1029000000139360064BDB68054A23F44013D36041
:1029100000BF0C37BD465DF8047B704700380240AD
:102920000010024080B400AF044B4FF480729A61F3
:1029300000BFBD465DF8047B704700BF0010024039
:1029400080B400AF044B4FF080729A6100BFBD4667
:102950005DF8047B704700BF0010024080B400AFF8
:10296000044B4FF400729A6100BFBD465DF8047BD2
:10297000704700BF0010024080B400AF044B4FF41A
:1029800080629A6100BFBD465DF8047B704700BF5E
:102990000010024080B400AF044B4FF080629A6197
:1029A00000BFBD465DF8047B704700BF00100240C9
:1029B00080B500AF02F0A6FE00F054F800F064FA13
:1029C00000F0BCF800F02CF900F04AF900F07EF9B4
:1029D00000F0DCF900F004FA00F02CFA08F064FAD8
:1029E00000F0AAF901F00AFB174806F03DF903468A
:1029F000002B01D000F07EFB01221449144806F0A0
:102A000099FD0346002B01D000F074FB012211490F
:102A1000114806F08FFD0346002B01D000F06AFB41
:102A200001F0F8FA00F096FB01F0BCFA01F002FBAD
:102A30000A4B1B78022B01D002F05EF9084B0022F2
:102A40001A7000F067FCFCE7800E00200A100020DE
:102A5000100F00200B100020A00F00200C100020F1
:102A60000000002080B594B000AF07F120033022B1
:102A7000002118460BF089F807F10C0300221A60B8
:102A80005A609A60DA601A610023BB60294B1B6CA4
:102A9000284A43F080531364264B1B6C03F0805389
:102AA000BB60BB6800237B60234B1B68224A43F456
:102AB00080431360204B1B6803F480437B607B687A
:102AC00005233B624FF480337B620123BB62022308
:102AD000BB634FF48003FB6304233B64A8237B6444
:102AE0000223BB640723FB6407F12003184603F0AD
:102AF000F9F90346002B01D000F0FCFA0F23FB602C
:102B000002233B6100237B614FF4A053BB614FF470
:102B10008053FB6107F10C030521184603F05AFCB2
:102B20000346002B01D000F0E5FA00BF5037BD4648
:102B300080BD00BF003802400070004080B500AF8B
:102B4000334B344A1A60324B00225A60304B7F229A
:102B50009A602F4BFF22DA602D4B00221A612C4B1A
:102B600000225A612A4B00229A61294803F034FF5F
:102B70000346002B01D000F0BDFA0121244804F0E7
:102B80009FFA034643F2F222934235D043F2F222F7
:102B900001211F4804F07AFA1F4B00221A701E4BC5
:102BA00000225A701C4B00229A701B4B0022DA60E4
:102BB000194B00221A6101221749154803F08DFFB5
:102BC0000346002B01D000F095FA144B01221A7035
:102BD000124B01225A70114B01229A700F4B252281
:102BE000DA7001220D490A4804F06FF80346002B01
:102BF0000CD000F07FFA09E001220749044804F0F4
:102C000006F801220549024804F0E3F800BF80BD40
:102C1000840D002000280040E80F0020FC0F002059
:102C200080B400AF0C4B0D4A1A600B4B00225A6067
:102C3000094B00229A60084B0022DA60064B002202
:102C40001A61054B00225A61034B00229A6100BFB2
:102C5000BD465DF8047B7047A40D0020002C0140A8
:102C600080B500AF174B184A1A60164B4FF48272AA
:102C70005A60144B00229A60124B0022DA60114B0A
:102C800000221A610F4B00225A610E4B4FF4007262
:102C90009A610C4B0022DA610A4B00221A62094B3E
:102CA00000225A62074B00229A62064B0A22DA621D
:102CB000044805F0B7F90346002B01D000F01AFADA
:102CC00000BF80BD280E00200030014080B582B0DA
:102CD00000AF3B4600221A605A60154B154A1A6035
:102CE000134B63225A60124B00229A60104B40F241
:102CF0004732DA600E4B00229A610D4805F064FFFE
:102D00000346002B01D000F0F5F900233B600023BF
:102D10007B603B461946064806F0D4F90346002B73
:102D200001D000F0E7F900BF0837BD4680BD00BF05
:102D3000800E00200014004080B500AF114B124AF5
:102D40001A60104B4FF4E1325A600E4B00229A6029
:102D50000C4B0022DA600B4B00221A61094B0C224B
:102D60005A61084B00229A61064B0022DA6105483D
:102D700006F038FA0346002B01D000F0BBF900BF83
:102D800080BD00BFC80E0020004C004080B500AFE1
:102D9000114B124A1A60104B4FF4E1325A600E4B3D
:102DA00000229A600C4B0022DA600B4B00221A6161
:102DB000094B0C225A61084B00229A61064B0022F3
:102DC000DA61054806F00EFA0346002B01D000F048
:102DD00091F900BF80BD00BF100F0020001001401E
:102DE00080B500AF114B124A1A60104B4FF4E1321C
:102DF0005A600E4B00229A600C4B0022DA600B4B9B
:102E000000221A61094B0C225A61084B00229A6178
:102E1000064B0022DA61054806F0E4F90346002B70
:102E200001D000F067F900BF80BD00BF580F00203F
:102E30000044004080B500AF114B124A1A60104B9D
:102E40004FF4E1325A600E4B00229A600C4B002284
:102E5000DA600B4B00221A61094B0C225A61084BB5
:102E600000229A61064B0022DA61054806F0BAF9A1
:102E70000346002B01D000F03DF900BF80BD00BF2C
:102E8000A00F00200048004080B58CB000AF07F1D3
:102E90001C0300221A605A609A60DA601A610023EB
:102EA000BB614B4B1B6B4A4A43F010031363484B07
:102EB0001B6B03F01003BB61BB6900237B61444BB8
:102EC0001B6B434A43F004031363414B1B6B03F03A
:102ED00004037B617B6900233B613D4B1B6B3C4AD8
:102EE00043F0800313633A4B1B6B03F080033B6199
:102EF0003B690023FB60364B1B6B354A43F00103F3
:102F00001363334B1B6B03F00103FB60FB6800236F
:102F1000BB602F4B1B6B2E4A43F0020313632C4BF9
:102F20001B6B03F00203BB60BB6800237B60284B74
:102F30001B6B274A43F008031363254B1B6B03F0FD
:102F400008037B607B6800221021224802F0B0FF5A
:102F500000224FF47F41204802F0AAFF0F23FB61BB
:102F600000233B6201237B6207F11C0319461A48C8
:102F700002F002FE1023FB6101233B6200237B620F
:102F80000023BB6207F11C031946124802F0F4FD4E
:102F90004FF47F43FB6101233B6200237B620023EC
:102FA000BB6207F11C0319460B4802F0E5FD4FF424
:102FB0007F43FB6100233B6200237B6207F11C031C
:102FC0001946064802F0D8FD00BF3037BD4680BD27
:102FD000003802400000024000100240000C024095
:102FE00080B582B000AF78607B681B68044A93426A
:102FF00001D100F091FE00BF0837BD4680BD00BF83
:103000000014004080B584B000AF78607B681B6816
:10301000284A934209D101222749284806F054FA48
:1030200001222549254806F085FA7B681B68244A59
:1030300093422BD1234B1B78FB73234B1B883E2BD6
:1030400009D8214B1B885A1C91B21F4A118019467E
:103050001E4AFB7B5354FB7B0A2B02D0FB7B0D2BC0
:103060000FD1194B1B881A46184B00219954164B47
:103070001B881A461549114806F026FA124B002201
:103080001A8001220F49124806F054FA7B681B6827
:10309000104A934209D101220F49084806F014FA58
:1030A00001220D490D4806F045FA00BF1037BD4614
:1030B00080BD00BF001001400A100020100F00204A
:1030C0000044004088040020CC0400208C04002030
:1030D000580F0020004800400B100020A00F0020D7
:1030E00080B483B000AF786000BF0C37BD465DF898
:1030F000047B704780B400AF72B600BF00BFFDE72D
:1031000080B582B000AF01F087FD786017E0012242
:103110004FF480710E4802F0CBFEC82002F064FB31
:1031200000224FF480710A4802F0C2FEC82002F06B
:103130005BFB01F071FD78607B68002B03D07B683E
:10314000012BE4D000E000BF00BF0837BD4680BDC2
:103150000010024080B582B000AFFDF7DBFD786063
:103160007B68072B12D801A252F823F08D3100089A
:103170008D3100088D3100088D3100088D31000837
:103180008D3100088D3100088D31000800BF7B684B
:10319000DAB2034B1A7000BF0837BD4680BD00BFCE
:1031A0000C10002080B584B000AF0023FB6000232A
:1031B0007B600123BB6044E0FB68022B3DD0FB68D1
:1031C000022B3DDCFB68002B03D0FB68012B1AD0DF
:1031D00036E001F0E9FA7860284801F09DFC7B6850
:1031E000002B06D1264801F097FCFB680133FB60F9
:1031F00027E0244801F090FC234801F08DFC0120D9
:1032000000F058F81DE0FDF73FFE78601F4801F020
:1032100083FC7B68002B06D11D4801F07DFCFB6818
:103220000133FB600DE01B4801F076FC164801F00D
:1032300073FC012000F03EF803E00023BB6000E0D7
:1032400000BFBB68002BB7D11348FDF7D9FE134868
:10325000FDF7D6FE1248FDF7D3FE1248FDF7D0FE6B
:103260001148FDF7CDFE1148FDF7CAFE1048FDF7E5
:10327000C7FEFEF72FFC00BFFDE700BFC8FD00083A
:10328000DCFD0008FCFD000814FE000820FE00081C
:1032900034FE000854FE00086CFE00087CFE0008A6
:1032A0008CFE0008ACFE0008BCFE0008E8FE00082A
:1032B000F8FE000880B584B000AF7860134BFB6067
:1032C0007B68002B03D07B68012B03D00EE0FFF757
:1032D00011FF17E0F868FCF785FF03469AB24FF03C
:1032E000FF33F9680A4805F0CDFF0BE0F868FCF7FA
:1032F00079FF03469AB24FF0FF33F968044805F0AE
:10330000C1FF00BF00BF1037BD4680BD0CFF0008E5
:10331000100F002080B500AF034B1B68002B00BFCF
:10332000FFF7EEFE00BF80BD1810002080B5C8B0CA
:1033300000AFCA4BC7F81431D7F81401FCF752FF9D
:1033400003469AB24FF0FF33D7F81411C44805F082
:1033500099FF02F03DFAC7F810010023C7F80C31BD
:103360000023C7F81C310023C7F808310123C7F830
:1033700018311BE1BB4B1A88BB4BA3FB0213D908C6
:103380000B469B000B445B00D31A9BB2002B40F012
:103390000D81D7F81C31042B00F2088101A252F8EC
:1033A00023F000BFB93300080F340008653400086B
:1033B000013500085935000801F0F6F9C7F8080191
:1033C000AA4801F0A9FBD7F80831002B18D1A8486A
:1033D00001F0A2FBA64BC7F81431D7F81401FCF793
:1033E00001FF03469AB24FF0FF33D7F814119C48FF
:1033F00005F048FFD7F81C310133C7F81C31D5E080
:103400009C4801F089FB9C4801F086FBCEE0FDF76B
:103410003BFDC7F80801994801F07EFBD7F8083159
:10342000002B18D1964801F077FB954BC7F8143163
:10343000D7F81401FCF7D6FE03469AB24FF0FF33DB
:10344000D7F81411864805F01DFFD7F81C31013359
:10345000C7F81C31AAE08B4801F05EFB864801F0FA
:103460005BFBA3E0FDF758FB874B00221A708748EF
:1034700001F052FB844B1B78002B36D1FEF714F978
:10348000C7F80001D7F8000101F018FCD7F80001D7
:10349000FDF772FB7C4B01221A70FDF759FB7C484B
:1034A00001F03AFB7A4BC7F81431D7F81401FCF756
:1034B00099FE03469AB24FF0FF33D7F814116848CB
:1034C00005F0E0FED7F80001FCF78CFE03469AB247
:1034D0004FF0FF33D7F80011614805F0D3FED7F85D
:1034E0001C310133C7F81C3160E0FDF771FB6948FE
:1034F00001F012FBD7F81C310133C7F81C3155E03D
:103500006548FDF767FEC7F80801644801F004FB51
:10351000D7F80831002B18D1614801F0FDFA604B53
:10352000C7F81431D7F81401FCF75CFE03469AB2D1
:103530004FF0FF33D7F81411494805F0A3FED7F830
:103540001C310133C7F81C3130E0564801F0E4FA71
:10355000494801F0E1FA29E05348FDF73BFEC7F87E
:103560000801524801F0D8FAD7F80831002B16D1DB
:103570004F4801F0D1FA4E4BC7F81431D7F8140177
:10358000FCF730FE03469AB24FF0FF33D7F8141120
:10359000334805F077FE0023C7F8183105E04548A9
:1035A00001F0BAFA344801F0B7FA00BFD7F8183181
:1035B000002B7FF4DFAE02F00BF9C7F8100101E039
:1035C00001F0C2FC02F004F90246D7F81031D31A18
:1035D000C72BF5D94FF0FF330A223749204805F0B1
:1035E00051FE02F0F5F8C7F8100101E001F09EFC71
:1035F00002F0EEF80246D7F81031D31AC72BF5D9EE
:1036000001F0A2FC38464FF47A7342F210724FF484
:10361000807101F0A7FCC7F80401D7F80431002B32
:1036200012D007F59073A3F59072D7F804311344C4
:1036300000221A70D7F804319AB239464FF0FF339E
:10364000074805F01FFE07E04FF0FF3314221B4927
:10365000034805F017FE00BF00BFFDE720FF00088C
:10366000100F002000100020CDCCCCCCC8FD0008ED
:10367000DCFD0008FCFD000814FE000820FE000828
:1036800034FE000854FE00081110002038FF000826
:1036900058FF000878FF00086CFE000894FF00083F
:1036A000A8FF0008C4FF0008E0FF0008F0FF0008C2
:1036B0000C0001082C0001084C000108580001080A
:1036C00080B5ACB000AF0023C7F8AC300023C7F81A
:1036D000A0300123C7F8A830CC4BC7F89C30D7F8EE
:1036E0009C00FCF77FFD03469AB24FF0FF33D7F8FA
:1036F0009C10C74805F0C6FDD4E2C64B1A88C64BDD
:10370000A3FB0213D9080B469B000B445B00D31AA2
:103710009BB2002B40F0C682D7F8AC30162B00F2DB
:10372000C08201A252F823F085370008DB37000879
:1037300031380008CD380008253900087D390008E7
:10374000813A00082F3B0008873B0008DF3B000858
:10375000373C0008953C0008A33C0008A33C000847
:10376000A33C0008A33C0008A33C0008A33C0008BD
:10377000A33C0008A33C0008A33C0008A33C0008AD
:103780009B3C000801F010F8C7F8A000A34801F026
:10379000C3F9D7F8A030002B18D1A14801F0BCF92B
:1037A0009F4BC7F89C30D7F89C00FCF71BFD0346E5
:1037B0009AB24FF0FF33D7F89C10954805F062FDA0
:1037C000D7F8AC300133C7F8AC306BE2954801F064
:1037D000A3F9954801F0A0F964E2FDF755FBC7F89D
:1037E000A000924801F098F9D7F8A030002B18D12A
:1037F0008F4801F091F98E4BC7F89C30D7F89C00A8
:10380000FCF7F0FC03469AB24FF0FF33D7F89C1058
:103810007F4805F037FDD7F8AC300133C7F8AC303E
:1038200040E2844801F078F97F4801F075F939E207
:10383000FDF772F9804B00221A70804801F06CF994
:103840007D4B1B78002B36D1FDF72EFFC7F8A40067
:10385000D7F8A40001F032FAD7F8A400FDF78CF9EC
:10386000754B01221A70FDF773F9754801F054F990
:10387000734BC7F89C30D7F89C00FCF7B3FC0346A9
:103880009AB24FF0FF33D7F89C10614805F0FAFC6C
:10389000D7F8A400FCF7A6FC03469AB24FF0FF331A
:1038A000D7F8A4105A4805F0EDFCD7F8AC30013336
:1038B000C7F8AC30F6E1FDF78BF9624801F02CF95E
:1038C000D7F8AC300133C7F8AC30EBE15E48FDF718
:1038D00081FCC7F8A0005D4801F01EF9D7F8A030C0
:1038E000002B18D15A4801F017F9594BC7F89C30F2
:1038F000D7F89C00FCF776FC03469AB24FF0FF33F2
:10390000D7F89C10424805F0BDFCD7F8AC30013325
:10391000C7F8AC30C6E14F4801F0FEF8424801F06C
:10392000FBF8BFE14C48FDF755FCC7F8A0004B4839
:1039300001F0F2F8D7F8A030002B18D1484801F078
:10394000EBF8474BC7F89C30D7F89C00FCF74AFCD3
:1039500003469AB24FF0FF33D7F89C102C4805F07D
:1039600091FCD7F8AC300133C7F8AC309AE13D4850
:1039700001F0D2F82C4801F0CFF893E13A48FDF776
:103980001FFDC7F89400394801F0C6F8D7F8943005
:10399000002B32D0364801F0BFF8354BC7F89C30C9
:1039A000D7F89C00FCF71EFC03469AB24FF0FF3399
:1039B000D7F89C10164805F065FCD7F89400FCF782
:1039C00011FC03469AB24FF0FF33D7F89410104819
:1039D00005F058FC274B00221A704FF480622549ED
:1039E000D7F89400FEF726FE234B01221A60D7F881
:1039F000AC300133C7F8AC3054E1204801F08CF80A
:103A0000D7F8AC300133C7F8AC304BE16C0001089B
:103A1000100F002000100020CDCCCCCCC8FD000839
:103A2000DCFD0008FCFD000814FE000820FE000874
:103A300034FE000854FE00081110002038FF000872
:103A400058FF000878FF00086CFE000894FF00088B
:103A5000A8FF0008C4FF00087CFE0008F0FF000873
:103A60000C0001082C000108800001088C000108EE
:103A7000A0000108080000207C100020BC00010804
:103A8000381DD7F8A4308C4A402109F0CBFFC7F885
:103A90009800D7F89830002B03DBD7F898303F2BED
:103AA00002DD0120FFF706FC3B1D1846FDF792FBE7
:103AB000C7F8A000814801F02FF8D7F8A030002BFC
:103AC0002ED17F4801F028F87D4BC7F89C30D7F8FD
:103AD0009C00FCF787FB03469AB24FF0FF33D7F800
:103AE0009C10784805F0CEFB07F14400D7F8A430CD
:103AF000754A502109F096FF07F144031846FCF778
:103B000071FB03469AB207F144014FF0FF336D4851
:103B100005F0B8FBD7F8AC300133C7F8AC30C1E0E2
:103B20006A4800F0F9FF6A4800F0F6FFBAE0694819
:103B3000FDF750FBC7F8A000674800F0EDFFD7F88D
:103B4000A030002B18D1654800F0E6FF634BC7F8A2
:103B50009C30D7F89C00FCF745FB03469AB24FF027
:103B6000FF33D7F89C10574805F08CFBD7F8AC30E2
:103B70000133C7F8AC3095E0594800F0CDFF544808
:103B800000F0CAFF8EE05748FDF724FBC7F8A000FD
:103B9000554800F0C1FFD7F8A030002B18D153488A
:103BA00000F0BAFF514BC7F89C30D7F89C00FCF7E7
:103BB00019FB03469AB24FF0FF33D7F89C104148E7
:103BC00005F060FBD7F8AC300133C7F8AC3069E0E2
:103BD000474800F0A1FF3E4800F09EFF62E04548E4
:103BE000FDF7F8FAC7F8A000434800F095FFD7F8B2
:103BF000A030002B18D1414800F08EFF3F4BC7F892
:103C00009C30D7F89C00FCF7EDFA03469AB24FF0CF
:103C1000FF33D7F89C102B4805F034FBD7F8AC30B5
:103C20000133C7F8AC303DE0354800F075FF284857
:103C300000F072FF36E03348FDF7CCFAC7F8A00079
:103C4000314800F069FFD7F8A030002B1BD12F4876
:103C500000F062FF2D4BC7F89C30D7F89C00FCF7B2
:103C6000C1FA03469AB24FF0FF33D7F89C101548BB
:103C700005F008FBD7F8AC300133C7F8AC30244B63
:103C800000221A700EE0234800F046FF104800F0B2
:103C900043FF07E0FEF7C4F804E00023C7F8A830AC
:103CA00000E000BFD7F8A830002B7FF426AD00BF9E
:103CB00000BFB037BD4680BDD8000108F80001083C
:103CC00020010108100F00205001010864010108C3
:103CD00014FE0008ACFE000890010108B4010108C0
:103CE000E0010108BCFE00080C0201082C020108DA
:103CF00054020108E8FE00087C020108A402010841
:103D0000D4020108F8FE0008000301081C030108A2
:103D10000000002040030108B0B598B004AF642350
:103D2000FB647823BB64914B1B8801339AB28F4BA1
:103D30001A808F4B1B8801339AB28D4B1A808D4BA2
:103D40001B8801339AB28B4B1A808B4B1B88013333
:103D50009AB2894B1A80894B1B680133874A1360DA
:103D6000824B1B88C72B02D9804B00221A80844BC0
:103D70001B78002B32D1804B1B8843F6972293424D
:103D80002CD97D4B00221A8000227E497E4802F009
:103D90003EFF00227D497C4803F01BF87B4B5B789B
:103DA0001D467A4B9B781A46764B1B781946754B05
:103DB0005B781C46734B9B78381D039302940191EA
:103DC00000922B46724A402109F02CFE78647B6CED
:103DD0009AB23B1D19466F4805F076FB6E4B1B7877
:103DE000022B00F0B980624B1B88632B15D9604B06
:103DF00000221A80694B1B78002B0CBF0123002383
:103E0000DBB21A46654B1A70644B1B78002B02D04C
:103E1000FEF7B2FD01E0FEF7BDFD594B1B78002B0C
:103E20000CD15F4B1B6903F00103002B03D15A4BEC
:103E300000221A7002E0584B01221A70504B1B7876
:103E4000002B40F08F80544B1B78002B32D1494B14
:103E50001B881A46FB6C934202D1FEF763FD29E0F2
:103E6000444B1B881A46FB6C5B009A4202D1FEF75A
:103E700067FD1FE03F4B1B881946FA6C13465B0039
:103E80001344994202D1FEF74DFD13E0394B1B88D4
:103E90001A46FB6C9B009A4202D1FEF751FD09E0E5
:103EA000344B1B88B3F57A7F04D3FEF749FD314BC1
:103EB00000221A80384B1B78012B53D12D4B1B88C5
:103EC0001A46BB6C934202D1FEF72CFD4AE0294B07
:103ED0001B881A46BB6C5B009A4202D1FEF730FD8C
:103EE00040E0244B1B881946BA6C13465B00134410
:103EF000994202D1FEF716FD34E01E4B1B881A468C
:103F0000BB6C9B009A4202D1FEF71AFD2AE0194BC6
:103F10001B881946BA6C13469B001344994202D180
:103F2000FEF700FD1EE0134B1B881946BA6C1346C2
:103F30005B0013445B00994202D1FEF701FD11E0E2
:103F40000C4B1B8840F2DB5293420BD9FEF7F8FC76
:103F5000084B00221A8005E0FEF7E4FCFEF7FEFCA9
:103F6000FEF70AFD00BF5037BD46B0BD001000206F
:103F7000021000200410002008100020141000205F
:103F800000000020E80F0020840D0020FC0F00201E
:103F900064030108100F00200C1000200610002000
:103FA0000010024080B500AF134B1B78072B1FD8C1
:103FB00001A252F823F000BFD93F0008F13F0008EA
:103FC000DF3F0008F13F0008F13F0008F13F000823
:103FD000E53F0008EB3F0008FFF79CF909E0FFF719
:103FE000E1F806E0FFF7A2F903E0FFF769FB00E064
:103FF00000BF00BF80BD00BF0C10002080B500AF27
:10400000FCF72AFFFCF734FF00F030FEFCF73AFE25
:1040100000BF80BD80B500AFFCF71EFE044B01223F
:104020001A70FEF7FDFB00F065FF00BF80BD00BF0A
:104030000000002080B586B000AF01237B61002323
:104040003B610023FB60FAE13B69082B00F2F6813B
:1040500001A252F823F000BF7D400008B1400008E3
:10406000E540000819410008D14100082942000834
:1040700077420008CB420008B943000800F094FBE7
:10408000F860A74800F048FDFB68002B06D1A54862
:1040900000F042FD3B6901333B61D0E1A24800F0F2
:1040A0003BFDA24800F038FD0120FFF703F9C6E10F
:1040B000FCF7EAFEF8609E4800F02EFDFB68002B3E
:1040C00006D19C4800F028FD3B6901333B61B6E115
:1040D000994800F021FD954800F01EFD0120FFF7F2
:1040E000E9F8ACE1FDF714FAF860944800F014FD2B
:1040F000FB68002B06D1924800F00EFD3B690133AE
:104100003B619CE18F4800F007FD884800F004FD0A
:104110000120FFF7CFF892E18B4B1B78022B07D1E0
:104120008A4800F0F9FC00233B6100237B6186E1B3
:10413000FCF778FB864B00221A70864800F0ECFCF6
:10414000834B1B78002B1CD18348FCF759FF834815
:10415000FCF756FF8248FCF753FF8248FCF750FFFC
:10416000FCF7D4FEF860FB68002B03D1784B0122EA
:104170001A7002E0764B00221A70FCF76FFB0023E6
:10418000FB60734B1B78012B05D17748FCF738FF98
:104190000023FB6001E00123FB60FB68002B0DD1D5
:1041A000724800F0B9FC4FF0FF3328226F49704885
:1041B00005F068F83B6901333B6140E16D4800F070
:1041C000ABFC5A4800F0A8FC0120FFF773F836E179
:1041D000FCF7F8FA684B00221A70684800F09CFC63
:1041E000654B1B78002B18D14FF46170FDF7E2FA94
:1041F000F860FB68002B06D1614800F08DFC3B693C
:1042000001333B611BE15F4800F086FC474800F04A
:1042100083FC0120FFF74EF811E15B4800F07CFCC5
:104220003B6901333B610AE1534B1B78002B1BD1E7
:1042300000F0AAF9F860504B01221A70FCF7DEFA80
:10424000FB68002B06D1514800F066FC3B69013346
:104250003B61F4E04E4800F05FFC344800F05CFC49
:104260000120FFF727F8EAE04A4800F055FC3B69D7
:1042700001333B61E3E0FCF7A1FB474B00221A70DE
:10428000464800F049FC444B1B78002B14D1FDF745
:1042900083F97860786800F0F5FC7868FCF7BEFB7D
:1042A0003D4B01221A70FCF7A5FB3D4800F034FCA1
:1042B0003B6901333B61C2E0FCF7F0FB394800F099
:1042C0002BFC3B6901333B61B9E0FCF725FC364B25
:1042D00000221A70354800F01FFC334B1B78002B6E
:1042E00014D1FDF7E1F9B860B86800F0E7FCB868F0
:1042F000FCF742FC2C4B01221A70FCF729FC2C48DD
:1043000000F00AFC3B6901333B6198E0FCF760FC7C
:10431000284800F001FC3B6901333B618FE000BF9E
:10432000880301089C030108BC030108D4030108A9
:10433000E0030108F4030108140401082C04010837
:1043400054040108880401080C100020B804010876
:104350000D100020EC0401080405010814050108F3
:1043600024050108400501084C050108580501080D
:10437000100F0020800501080E1000209C05010888
:10438000B8050108E0050108000601081806010843
:1043900038060108500601080F10002068060108C1
:1043A000800601089C06010811100020B0060108D3
:1043B000D0060108F0060108254800F0ADFB2548AD
:1043C00000F0AAFB00F054F90346184600F0A4FBE5
:1043D000214800F0A1FB00F065F90346184600F003
:1043E0009BFB1D4800F098FB00F076F90346184649
:1043F00000F092FB194800F08FFB00F087F90346AC
:10440000184600F089FB164800F086FB00F098F98A
:104410000346184600F080FB114800F07DFB00F0D9
:10442000A9F90346184600F077FB0E4800F074FB2C
:104430000D4800F071FB00237B6100E000BF7B6949
:10444000002B7FF401AE00BF00BF1837BD4680BD12
:104450000C0701082C070108400701084407010860
:10446000480701084C0701085007010880B582B0D1
:1044700000AF786038497868FBF7AAFE0346002B46
:1044800001D1012364E035497868FBF7A1FE0346BA
:10449000002B01D102235BE031497868FBF798FEDD
:1044A0000346002B01D1032352E02E497868FBF725
:1044B0008FFE0346002B01D1042349E02A49786886
:1044C000FBF786FE0346002B01D1052340E0274978
:1044D0007868FBF77DFE0346002B01D1062337E009
:1044E00023497868FBF774FE0346002B01D10723AC
:1044F0002EE020497868FBF76BFE0346002B01D1C4
:10450000082325E01C497868FBF762FE0346002B70
:1045100001D109231CE019497868FBF759FE0346CD
:10452000002B01D1102313E015497868FBF750FEEA
:104530000346002B01D111230AE012497868FBF7EA
:1045400047FE0346002B01D1122301E04FF0FF3359
:1045500018460837BD4680BD80070108840701085A
:10456000880701088C0701089007010894070108D3
:10457000980701089C070108A0070108A407010883
:10458000A8070108AC07010880B582B000AF00237E
:104590007B60FCF74DFC38603B681B69DAB2304B3E
:1045A0001A703B685B69DAB22D4B5A703B689B69A5
:1045B000DAB22B4B9A702A4B0022DA60284B002289
:1045C0001A613B68DB68DAB2264B1A703B685B689D
:1045D000DAB2244B5A703B689B68DAB2214B9A706E
:1045E0003B681B68204A82FB03125111DA178A1AB2
:1045F000642101FB02F29A1AD2B21A4BDA701B4BF9
:104600001B68CA225A62194B1B6853225A62002245
:104610001349164802F061FA0346002B03D0FEF757
:1046200069FD01237B6000220E49104802F04DFB1A
:104630000346002B03D0FEF75DFD01237B600B4B8F
:104640001B68FF225A627B68012B01D17B6802E064
:1046500000237B607B6818460837BD4680BD00BFDD
:10466000E80F0020FC0F00201F85EB51840D002077
:1046700080B500AF00220749074802F0AAFB054BAE
:10468000DB78064A0521064809F0CCF9044B1846A8
:1046900080BD00BFFC0F0020840D0020CC07010866
:1046A0001C10002080B500AF00220749074802F027
:1046B00090FB054B5B78064A0421064809F0B2F9E5
:1046C000044B184680BD00BFFC0F0020840D002065
:1046D000CC0701082410002080B500AF0022074954
:1046E000074802F076FB054B9B78064A04210648F2
:1046F00009F098F9044B184680BD00BFFC0F00205C
:10470000840D0020CC0701082810002080B500AFE0
:1047100000220749074802F07AFA054B1B78064A3F
:104720000421064809F07EF9044B184680BD00BFFD
:10473000E80F0020840D0020CC0701082C10002079
:1047400080B500AF00220749074802F060FA054B28
:104750005B78064A0421064809F064F9044B1846C0
:1047600080BD00BFE80F0020840D0020CC070108A9
:104770003010002080B500AF00220749074802F042
:1047800046FA054B9B78064A0421064809F04AF987
:10479000044B184680BD00BFE80F0020840D0020A8
:1047A000CC0701083410002080B5ADF58E6D00AF48
:1047B0000023C7F86C3407F50D7301224C491846E5
:1047C00008F02CFA034687F86B3497F86B34002B0B
:1047D00001D0FEF78FFC3B1D01224649184608F028
:1047E00063FA034687F86B3497F86B34002B1CD1BF
:1047F0003B1D184608F044FF01223D49002008F007
:104800000DFA034687F86B3497F86B34002B08D009
:10481000394800F081F90120FEF74CFD0123C7F86B
:104820006C340023C7F86C345AE03B1D0A2231492E
:10483000184608F039FA034687F86B3497F86B345A
:10484000002B08D00120FEF735FD2C4800F064F95C
:104850000123C7F86C342A4BC7F86434D7F86404D2
:10486000FBF7C0FC02463B46381DD7F8641408F03D
:1048700014FD034687F86B3497F86B34002B0BD18B
:10488000D7F86404FBF7AEFC024607F58E63A3F588
:104890008E631B689A420CD93B1D184608F0F0FE47
:1048A0000120FEF707FD174800F036F90123C7F88D
:1048B0006C343B1D184608F0E3FE034687F86B3462
:1048C00097F86B34002B08D00120FEF7F3FC0E485C
:1048D00000F022F90123C7F86C340023C7F86C34C8
:1048E000D7F86C34184607F58E67BD4680BD00BF0B
:1048F00088100020FC0701080808010824080108A6
:1049000040080108680801088408010880B5ADF571
:10491000956D00AF07F51D7301223649184608F062
:104920007DF9034687F8A73497F8A734002B01D008
:10493000FEF7E0FB07F1440301222F49184608F077
:10494000B3F9034687F8A73497F8A734002B01D0B2
:10495000FEF7D0FB07F14003394607F144003F2240
:1049600008F05CFB034687F8A73497F8A734002BC0
:1049700006D107F59563A3F58D631B68002B06D15F
:1049800007F14403184608F07BFEFEF7B3FB07F57A
:104990009563A3F58D631B6807F59562A2F5956293
:1049A0000021D1543B46154A1549184609F06EF8C6
:1049B00007F14403184608F063FE034687F8A7345E
:1049C00097F8A734002B01D0FEF794FB0122094988
:1049D000002008F023F9034687F8A73497F8A73496
:1049E000002B01D0FEF786FB044B184607F59567B0
:1049F000BD4680BD88100020FC070108381000204B
:104A0000A008010880B5ADF5966D00AF07F51E73DF
:104A100001223C49184608F001F9034687F8AF34F3
:104A200097F8AF34002B01D0FEF764FB07F1480381
:104A300001223549184608F037F9034687F8AF34A4
:104A400097F8AF34002B01D0FEF754FB07F1440375
:104A5000391D07F148003F2208F0E0FA034687F8C5
:104A6000AF3497F8AF34002B06D107F59663A3F265
:104A70006C431B68002B06D107F14803184608F069
:104A8000FFFDFEF737FB07F59663A3F26C431B6847
:104A900007F59662A2F2AC420021D1543B1D1B499E
:104AA000184609F009F9C7F8A804D7F8A834002B6C
:104AB00005D0174A1749D7F8A80408F0E7FF07F10F
:104AC0004803184608F0DCFD034687F8AF3497F832
:104AD000AF34002B01D0FEF70DFB01220949002065
:104AE00008F09CF8034687F8AF3497F8AF34002BF2
:104AF00001D0FEF7FFFA064B184607F59667BD464C
:104B000080BD00BF88100020FC070108AC08010828
:104B100058100020B808010890B5ADF2744D00AFF0
:104B200007F58E63A3F26C43186007F50F7301223B
:104B30003749184608F072F8034687F86F3497F83B
:104B40006F34002B01D0FEF7D5FA07F10C033222A7
:104B50003049184608F0A8F8034687F86F3497F8EC
:104B60006F34002B01D0FEF7C5FA07F58E63A3F270
:104B70006C431868FBF736FB044607F1080307F59A
:104B80008E62A2F26C4107F10C002246096808F01F
:104B900084FB034687F86F3497F86F34002B0ED1EF
:104BA00007F58E63A3F26C431868FBF71BFB024604
:104BB00007F58E63A3F58D631B689A4206D907F14A
:104BC0000C03184608F05CFDFEF794FA07F10C039D
:104BD000184608F055FD034687F86F3497F86F3490
:104BE000002B01D0FEF786FA01220949002008F0C7
:104BF00015F8034687F86F3497F86F34002B01D00F
:104C0000FEF778FA00BF07F27447BD4690BD00BFBB
:104C100088100020C808010880B5ADF50E7D00AFF2
:104C20003B1D01220B49184607F0F8FF034687F8A1
:104C3000373297F83732002B06D101220549002080
:104C400007F0ECFF002300E00123184607F50E777C
:104C5000BD4680BD8810002080B400AF024B1846CE
:104C6000BD465DF8047B7047A800001080B500AF1A
:104C70004FF489720021024808F087FF00BF80BD11
:104C8000A800001080B582B000AF78607B68002B70
:104C90000ED07868FBF7A6FA03467F2B08D87F2250
:104CA0007968054808F098FF034B002283F87F20BD
:104CB00000BF0837BD4680BDA800001080B582B097
:104CC00000AF78607B68002B0ED07868FBF78AFA1B
:104CD0000346112B08D811227968054808F07CFF9B
:104CE000044B002283F8912000BF0837BD4680BDE9
:104CF00028010010A800001080B5ADF5507D02AF6E
:104D0000FFF7AAFFC7F830030023C7F83433704B0E
:104D1000C7F82C336F4BC7F828336F4BC7F82433D1
:104D20006E4BC7F820336E4BC7F81C33D7F83033BF
:104D3000C7F81833D7F830338033C7F81433D7F8AF
:104D400030338033C7F8103307F54E73A3F59A73E9
:104D500000221A600433FC220021184608F015FFD7
:104D6000D7F81833002B04D0D7F818331B78002B52
:104D70000ED1D7F82403FBF735FA03469AB24FF069
:104D8000FF33D7F82413574804F07CFA01239AE044
:104D9000D7F81433002B04D0D7F814331B78002B2A
:104DA0000ED1D7F82003FBF71DFA03469AB24FF055
:104DB000FF33D7F820134B4804F064FA012382E054
:104DC000D7F81033002B04D0D7F810331B78002B02
:104DD0000ED1D7F81C03FBF705FA03469AB24FF041
:104DE000FF33D7F81C133F4804F04CFA01236AE064
:104DF00007F50170D7F814330193D7F814330093F3
:104E0000D7F81833384A4FF4807108F00BFEC7F812
:104E10000C03D7F80C33002B03DBD7F80C33FF2B34
:104E200004DDFEF767F90123C7F8343307F5017392
:104E3000381D2E4A4FF4007108F0F4FDC7F808033E
:104E4000D7F80833002B04DBD7F80833B3F5007F1D
:104E500004DBFEF74FF90123C7F834333B1D184636
:104E6000FCF7AEFAC7F80403D7F80433002B18D0C8
:104E70001F49D7F8040308F01FFF0346002B10D08A
:104E8000D7F82C03FBF7AEF903469AB24FF0FF3385
:104E9000D7F82C13134804F0F5F90023C7F834337E
:104EA0000FE0D7F82803FBF79DF903469AB24FF0BD
:104EB000FF33D7F828130B4804F0E4F90123C7F8AF
:104EC0003433D7F83433184607F54E77BD4680BDE6
:104ED000D0080108F00801080C0901082809010898
:104EE0004C090108100F002070090108B4090108DD
:104EF0001C0A010880B500AF01224FF400610A4886
:104F000000F0D6FF00224FF40061074800F0D0FF08
:104F100040F24C4000F068FC01224FF4006102486E
:104F200000F0C6FF00BF80BD0010024080B400AF9B
:104F3000044B4FF400629A6100BFBD465DF8047BEC
:104F4000704700BF0010024080B400AF044B4FF028
:104F500000629A6100BFBD465DF8047B704700BFE8
:104F60000010024080B588B000AFF860B9607A6088
:104F70003B6000F02DFCF8610023BB6113E007F1FA
:104F800017013B680122134804F007FA0346002B7F
:104F900009D1BB695A1CBA61FA681344FA7D1A70C8
:104FA00000F016FCF86100F013FC0246FB69D31A0E
:104FB0007A689A4204D9BB68013BBA699A42DED347
:104FC000FA68BB69134400221A70BB69184620377F
:104FD000BD4680BDA00F002080B483B000AF002389
:104FE0007B60104B5B6C0F4A43F4804353640D4B62
:104FF0005B6C03F480437B607B6800233B60094B60
:105000001B6C084A43F080531364064B1B6C03F07F
:1050100080533B603B6800BF0C37BD465DF8047BA6
:10502000704700BF0038024080B586B000AF78609E
:1050300007F1080300221A605A609A60DA607B6800
:105040001B68104A934219D10223BB604FF480734E
:105050007B6107F10803184601F0DCFB0346002BD7
:1050600001D0FEF747F8084B01221A600022002108
:10507000292000F0B8FC292000F0D1FC00BF18372F
:10508000BD4680BD002800403C0E474280B58AB036
:1050900000AF786007F1140300221A605A609A602A
:1050A000DA601A617B681B68284A93424AD1002360
:1050B0003B61274B5B6C264A43F400635364244BEB
:1050C0005B6C03F400633B613B690023FB60204B96
:1050D0001B6B1F4A43F0040313631D4B1B6B03F050
:1050E0000403FB60FB680023BB60194B1B6B184A71
:1050F00043F008031363164B1B6B03F00803BB60FC
:10510000BB684FF488537B610223BB610023FB61C2
:1051100003233B620C237B6207F1140319460D48FD
:1051200000F02AFD04237B610223BB610023FB61A5
:1051300003233B620C237B6207F1140319460648E4
:1051400000F01AFD00BF2837BD4680BD002C01408D
:105150000038024000080240000C024080B58AB0CE
:1051600000AF786007F1140300221A605A609A6059
:10517000DA601A617B681B68194A93422BD10023BD
:105180003B61184B5B6C174A43F480535364154BD7
:105190005B6C03F480533B613B690023FB60114B64
:1051A0001B6B104A43F0010313630E4B1B6B03F0A0
:1051B0000103FB60FB68E0237B610223BB610023EA
:1051C000FB6103233B6205237B6207F1140319464D
:1051D000054800F0D1FC00BF2837BD4680BD00BFA8
:1051E00000300140003802400000024080B584B029
:1051F00000AF78607B681B680E4A934215D100238C
:10520000FB600D4B1B6C0C4A43F0200313640A4BEC
:105210001B6C03F02003FB60FB6800220021372099
:1052200000F0E1FB372000F0FAFB00BF1037BD466D
:1052300080BD00BF001400400038024080B590B02F
:1052400000AF786007F12C0300221A605A609A6060
:10525000DA601A617B681B68714A93422CD1002383
:10526000BB62704B1B6C6F4A43F4002313646D4B9D
:105270001B6C03F40023BB62BB6A00237B62694B97
:105280001B6B684A43F001031363664B1B6B03F00F
:1052900001037B627B6A0323FB6202233B630023DF
:1052A0007B630323BB630823FB6307F12C031946CD
:1052B0005D4800F061FCAEE07B681B685B4A93428E
:1052C00035D100233B62574B5B6C564A43F01003C9
:1052D0005364544B5B6C03F010033B623B6A002346
:1052E000FB61504B1B6B4F4A43F0010313634D4B63
:1052F0001B6B03F00103FB61FB694FF4C063FB62AE
:1053000002233B6300237B630323BB630723FB630D
:1053100007F12C031946444800F02EFC002200211E
:10532000252000F060FB252000F079FB73E07B680E
:105330001B683F4A934234D10023BB61394B1B6C3D
:10534000384A43F400331364364B1B6C03F40033C8
:10535000BB61BB6900237B61324B1B6B314A43F05D
:10536000010313632F4B1B6B03F001037B617B690C
:105370000C23FB6202233B6300237B630323BB6399
:105380000723FB6307F12C031946274800F0F4FBC1
:1053900000220021262000F026FB262000F03FFB03
:1053A00039E07B681B68234A934234D100233B6178
:1053B0001C4B1B6C1B4A43F480231364194B1B6C5E
:1053C00003F480233B613B690023FB60154B1B6B9F
:1053D000144A43F002031363124B1B6B03F00203E6
:1053E000FB60FB684FF44063FB6202233B630023D6
:1053F0007B630323BB630723FB6307F12C0319467D
:105400000D4800F0B9FB00220021272000F0EBFA44
:10541000272000F004FB00BF4037BD4680BD00BF21
:10542000004C0040003802400000024000100140E3
:1054300000440040004800400004024080B400AF37
:1054400000BFFDE780B400AF00BFFDE780B400AF50
:1054500000BFFDE780B400AF00BFFDE780B400AF40
:1054600000BFFDE780B400AF00BFBD465DF8047B20
:10547000704780B400AF00BFBD465DF8047B704745
:1054800080B400AF00BFBD465DF8047B704780B5B7
:1054900000AF00F089F900BF80BD000080B500AF0B
:1054A000024804F06DF800BF80BD00BF100F00205F
:1054B00080B500AF024804F063F800BF80BD00BFB4
:1054C000580F002080B500AF024804F059F800BF23
:1054D00080BD00BFA00F002080B500AF024801F0E2
:1054E000C7FC00BF80BD00BF840D002080B500AFA9
:1054F000024803F029FC00BF80BD00BF800E0020E1
:1055000080B400AF01231846BD465DF8047B7047A8
:1055100080B582B000AF7860396008F029FC03469E
:1055200016221A604FF0FF3318460837BD4680BD7B
:1055300080B582B000AF78604FF0FF317868FFF738
:10554000E7FF00BFFDE780B586B000AFF860B96047
:105550007A6000237B610AE0AFF300800146BB68FC
:105560005A1CBA60CAB21A707B6901337B617A69CE
:105570007B689A42F0DB7B6818461837BD4680BDD1
:1055800080B586B000AFF860B9607A6000237B61B7
:1055900009E0BB685A1CBA601B781846AFF300805C
:1055A0007B6901337B617A697B689A42F1DB7B68B6
:1055B00018461837BD4680BD80B483B000AF786010
:1055C0004FF0FF3318460C37BD465DF8047B70473B
:1055D00080B483B000AF786039603B684FF400520C
:1055E0005A60002318460C37BD465DF8047B7047AF
:1055F00080B483B000AF7860012318460C37BD46F5
:105600005DF8047B704780B485B000AFF860B96086
:105610007A60002318461437BD465DF8047B704756
:1056200080B586B000AF7860144A154BD31A7B6101
:105630007B693B61134B1B68002B02D1114B124A53
:105640001A60104B1A687B6813443A699A4207D271
:1056500008F08EFB03460C221A604FF0FF3309E07E
:10566000084B1B68FB60074B1A687B681344054AAC
:105670001360FB6818461837BD4680BD0000022045
:1056800000040000781000201012002080B400AF49
:10569000064BD3F88830054A43F47003C2F88830CB
:1056A00000BFBD465DF8047B704700BF00ED00E021
:1056B000DFF834D0FFF7EAFF0C480D490D4A00230C
:1056C00002E0D458C4500433C4188C42F9D30A4AB7
:1056D0000A4C002301E013600432A242FBD308F01D
:1056E0004DFBFDF765F97047000002200000002027
:1056F0006C040020F41601086C0400200C12002039
:10570000FEE7000080B500AF0E4B1B680D4A43F466
:10571000007313600B4B1B680A4A43F480631360E9
:10572000084B1B68074A43F480731360032000F0A2
:105730004FF90F2000F008F8FFF74EFC0023184641
:1057400080BD00BF003C024080B582B000AF7860F1
:10575000124B1A68124B1B7819464FF47A73B3FB3D
:10576000F1F3B2FBF3F3184600F067F90346002BA0
:1057700001D001230EE07B680F2B0AD80022796844
:105780004FF0FF3000F02FF9064A7B6813600023CA
:1057900000E0012318460837BD4680BD0400002004
:1057A0000C0400200804002080B400AF064B1B78D6
:1057B0001A46064B1B681344044A136000BFBD46DB
:1057C0005DF8047B704700BF0C04002080100020AF
:1057D00080B400AF034B1B681846BD465DF8047BE0
:1057E000704700BF8010002080B584B000AF7860A3
:1057F000FFF7EEFFB8607B68FB60FB68B3F1FF3F2B
:1058000005D00A4B1B781A46FB681344FB6000BFA7
:10581000FFF7DEFF0246BB68D31AFA689A42F7D850
:1058200000BF00BF1037BD4680BD00BF0C04002084
:1058300080B485B000AF78607B6803F00703FB603D
:105840000C4BDB68BB60BA684FF6FF031340BB60CC
:10585000FB681A02BB68134343F0BF6343F4003391
:10586000BB60044ABB68D36000BF1437BD465DF817
:10587000047B704700ED00E080B400AF044BDB68B0
:105880001B0A03F007031846BD465DF8047B70470A
:1058900000ED00E080B483B000AF0346FB7197F9E0
:1058A0000730002B0BDBFB7903F01F02074997F948
:1058B00007305B09012000FA02F241F8232000BF03
:1058C0000C37BD465DF8047B704700BF00E100E087
:1058D00080B483B000AF03463960FB7197F907309D
:1058E000002B0ADB3B68DAB20C4997F9073012014A
:1058F000D2B20B4483F800230AE03B68DAB20849CD
:10590000FB7903F00F03043B1201D2B20B441A7669
:1059100000BF0C37BD465DF8047B704700E100E036
:1059200000ED00E080B489B000AFF860B9607A6043
:10593000FB6803F00703FB61FB69C3F10703042B5A
:1059400028BF0423BB61FB690433062B02D9FB6922
:10595000033B00E000237B614FF0FF32BB6902FA9A
:1059600003F3DA43BB681A407B699A404FF0FF317A
:105970007B6901FA03F3D9437B680B401343184654
:105980002437BD465DF8047B7047000080B582B0C7
:1059900000AF78607B68013BB3F1807F01D30123C6
:1059A0000FE00A4A7B68013B53600F214FF0FF3044
:1059B000FFF78EFF054B00229A60044B07221A6006
:1059C000002318460837BD4680BD00BF10E000E048
:1059D00080B582B000AF78607868FFF729FF00BF1C
:1059E0000837BD4680BD80B586B000AF0346B960BC
:1059F0007A60FB7300237B61FFF73EFF78617A6872
:105A0000B9687869FFF78EFF024697F90F301146A3
:105A10001846FFF75DFF00BF1837BD4680BD80B553
:105A200082B000AF0346FB7197F907301846FFF7C5
:105A300031FF00BF0837BD4680BD80B582B000AFE2
:105A400078607868FFF7A2FF034618460837BD461E
:105A500080BD80B584B000AF78607B689B6DFB60D3
:105A6000FFF7B6FEB8607B6893F83530DBB2022BE7
:105A700008D07B6880225A657B68002283F8342036
:105A8000012352E07B681B681A687B681B6822F060
:105A900016021A607B681B685A697B681B6822F0D3
:105AA00080025A617B681B6C002B03D17B689B6C66
:105AB000002B07D07B681B681A687B681B6822F084
:105AC00008021A607B681B681A687B681B6822F0F2
:105AD00001021A6013E0FFF77BFE0246BB68D31A8F
