:020000040800F2
:100000000000022001490008AD470008B54700087C
:10001000BD470008C5470008CD47000800000000A4
:10002000000000000000000000000000D5470008AC
:10003000E347000800000000F1470008FF47000800
:100040005149000851490008514900085149000828
:100050005149000851490008514900085149000818
:100060005149000851490008514900085149000808
:1000700051490008514900085149000851490008F8
:1000800051490008514900085149000851490008E8
:1000900051490008514900085149000851490008D8
:1000A00051490008514900085149000851490008C8
:1000B00051490008514900085149000851490008B8
:1000C00051490008514900085149000851490008A8
:1000D000514900080D48000821480008354800082B
:1000E0005149000849480008514900085149000891
:1000F0005149000851490008514900085149000878
:100100005149000851490008514900085149000867
:100110005149000851490008514900085D4800084C
:100120005149000851490008514900085149000847
:100130005149000851490008514900085149000837
:100140005149000851490008514900085149000827
:100150005149000851490008514900085149000817
:100160005149000851490008514900085149000807
:100170005149000851490008514900080000000099
:08018000514900085149000833
:1001900010B5054C237833B9044B13B10448AFF3C1
:1001A00000800123237010BD6000002000000000CB
:1001B00038DD000808B5034B1BB103490348AFF312
:1001C000008008BD000000006400002038DD000849
:1001D00010F8012B11F8013B012A28BF9A42F7D0F1
:1001E000D01A7047034613F8012B002AFBD1181AC6
:1001F000013870470000000000000000000000000F
:1002000001F0FF01102A2BDB10F0070F08D010F8C7
:10021000013B013A8B422DD010F0070F42B3F6D1CB
:10022000F0B441EA012141EA014122F007047FF0E4
:1002300000070023F0E80256083C85EA010586EA3B
:10024000010685FA47F5A3FA87F586FA47F6A5FA77
:1002500087F68EB9EED1F0BC01F0FF0102F0070283
:1002600032B110F8013B013A83EA010313B1F8D12E
:100270000020704701387047002D06BF354603380F
:10028000073815F0010F07D1013015F4807F02BF48
:10029000013015F4C03F0130F0BC0138704700BF99
:1002A00053B94AB9002908BF00281CBF4FF0FF31DD
:1002B0004FF0FF3000F06AB9ADF1080C6DE904CEE3
:1002C00000F006F8DDF804E0DDE9022304B0704731
:1002D0002DE9F047089D0C46002B4ED194468C45E5
:1002E0008646B2FA82F262D94AB1C2F12003914045
:1002F00020FA03F30CFA02FC194300FA02FE4FEA5B
:100300001C471FFA8CF6B1FBF7F44FEA1E4307FBBC
:10031000141143EA014304FB06F199420AD91CEB8C
:10032000030304F1FF3080F01281994240F20F8103
:10033000023C6344591A1FFA8EF3B1FBF7F007FB36
:10034000101143EA014300FB06F69E420AD91CEB5A
:10035000030300F1FF3180F0FC809E4240F2F980FF
:10036000634402389B1B40EA044000211DB1D34086
:100370000022C5E90032BDE8F0878B4205D90DB1F6
:10038000C5E9000100210846F5E7B3FA83F1002929
:1003900046D1A34202D39042C0F0F080861A64EBAB
:1003A00003030120002DE6D0C5E90063E3E7002A3E
:1003B00040F09080A1EB0C044FEA1C481FFA8CF728
:1003C0000121B4FBF8F64FEA1E4308FB164443EA4A
:1003D000044307FB06F0984208D91CEB030306F11F
:1003E000FF3402D2984200F2CD8026461C1A1FFA32
:1003F0008EF3B4FBF8F008FB104443EA044300FB1F
:1004000007F79F4208D91CEB030300F1FF3402D227
:100410009F4200F2B0802046DB1B40EA0640A5E781
:10042000C1F120068B4022FA06F71F4320FA06FC92
:1004300004FA01F343EA0C03F44000FA01F8380C23
:100440004FEA1349B4FBF0FE1FFA87FC00FB1E4481
:1004500049EA04440EFB0CF9A14502FA01F20AD95B
:100460003C190EF1FF3A80F08480A14540F2818072
:10047000AEF1020E3C44A4EB09041FFA83F9B4FB6D
:10048000F0F300FB134449EA044403FB0CFCA445CD
:1004900007D93C1903F1FF3067D2A44565D9023B67
:1004A0003C4443EA0E40A0FB0293A4EB0C049C42A4
:1004B000CE469C4651D34ED055B1B8EB0E0364EBFB
:1004C0000C0404FA06F6CB401E43CC40C5E9006498
:1004D000002150E7C2F1200320FA03F10CFA02FCDC
:1004E00024FA03F394400C434FEA1C4800FA02FE3E
:1004F0001FFA8CF7B3FBF8F008FB1031230C43EA2A
:10050000014300FB07F1994208D91CEB030300F1FA
:10051000FF362CD299422AD9023863445B1AA4B21E
:10052000B3FBF8F108FB113344EA034401FB07F382
:10053000A34208D91CEB040401F1FF3613D2A342F5
:1005400011D902396444E41A41EA004139E704460A
:10055000F0E6084606E7C845AED2B9EB020E63EBFB
:10056000070C0138A8E73146EDE7034699E7304626
:10057000D4E7D6467FE7634402384DE70646234674
:1005800008460FE7023E634430E700BF704700BFF4
:1005900080B582B000AF0346FB71F91D4FF0FF3309
:1005A0000122034806F0EFFE00BF0837BD4680BDBC
:1005B0001C06002080B582B000AF0623FB7100222C
:1005C0001021084804F09CFDFB791846FFF7E0FF76
:1005D00001221021034804F093FD00BF0837BD46F7
:1005E00080BD00BF0000024080B582B000AF042390
:1005F000FB7100221021084804F082FDFB791846A7
:10060000FFF7C6FF01221021034804F079FD00BF67
:100610000837BD4680BD00BF0000024080B500AF76
:10062000FFF7C8FF00BF80BD80B500AFFFF7DCFF5C
:1006300000BF80BD80B584B000AF03463960FB8049
:100640001346BB80BB88002B02D03B68002B01D136
:10065000012339E0FFF7E2FF002210211C4804F0DB
:100660004FFD02233B72FB881B14DBB27B72FB88BD
:100670001B0A9BB2DBB2BB72FB88DBB2FB7207F1D9
:1006800008014FF0FF330422124806F07CFE0346B7
:10069000FB73FB7B002B06D0012210210C4804F0D9
:1006A0002FFDFB7B10E0BA884FF0FF333968094813
:1006B00006F069FE0346FB7301221021044804F092
:1006C0001FFDFFF7B1FFFB7B18461037BD4680BD0D
:1006D000000002401C06002080B582B000AF034637
:1006E0003960FB801346BB80BA88FB88396818469E
:1006F000FFF7A0FF034618460837BD4680BD00003F
:1007000080B584B000AF03463960FB801346BB80E0
:10071000BB88002B02D03B68002B01D1012335E0C0
:10072000002210211B4804F0EBFC03233B72FB88E2
:100730001B14DBB27B72FB881B0A9BB2DBB2BB7261
:10074000FB88DBB2FB7207F108014FF0FF33042294
:10075000114806F018FE0346FB73FB7B002B06D006
:10076000012210210B4804F0CBFCFB7B0EE0BA8881
:100770004FF0FF333968084806F049FF0346FB7322
:1007800001221021034804F0BBFCFB7B1846103704
:10079000BD4680BD000002401C06002080B582B02E
:1007A00000AF03463960FB801346BB80BA88FB88E4
:1007B00039681846FFF7A4FF034618460837BD46B8
:1007C00080BD000080B582B000AFBB1D012219467C
:1007D0000020FFF7E3FF0346FB71BB79012B0CBF41
:1007E00001230023DBB21A46034B1A70FB7918462B
:1007F0000837BD4680BD00BF0208002080B582B02A
:1008000000AF074B1B78FB71FB1D0122194600202E
:10081000FFF762FF034618460837BD4680BD00BF9C
:100820000208002080B582B000AFBB1D012219462E
:100830000120FFF7B3FF0346FB71BB79012B0CBF0F
:1008400001230023DBB21A46034B1A70FB791846CA
:100850000837BD4680BD00BF0108002080B582B0CA
:1008600000AF074B1B78FB71FB1D012219460120CD
:10087000FFF732FF034618460837BD4680BD00BF6C
:100880000108002080B582B000AFBB1D01221946CF
:100890001020FFF783FF0346FB71BB79012B0CBFD0
:1008A00001230023DBB21A46034B1A70FB7918466A
:1008B0000837BD4680BD00BF0308002080B582B068
:1008C00000AF074B1B78FB71FB1D0122194610205E
:1008D000FFF702FF034618460837BD4680BD00BF3C
:1008E0000308002080B586B000AF786003F06CFB91
:1008F00078617B69002B01D101232FE07B68002BFD
:100900000AD07868FFF76EFC03460133802B03D8CA
:100910007B681B78002B01D101231FE00123FB73AF
:1009200007F10F03012219461020FFF7D5FE0346F9
:10093000FB74FB7C002B01D0FB7C0FE07868FFF799
:1009400051FC03469BB201333B823B8A1A467968CD
:100950001120FFF7C1FE0346FB74FB7C18461837D5
:10096000BD4680BD80B584B000AF03F02DFBB860FC
:10097000BB68002B01D101232CE0FB1D012219468D
:100980001020FFF70BFF0346FB73FB7B002B01D00E
:10099000FB7B1FE0FB79012B0FD1BB687F2219463F
:1009A0001120FFF7FBFE0346FB73FB7B002B07D1F7
:1009B000BB68002283F87F2002E0BB6800221A7027
:1009C000FB79012B0CBF01230023DBB21A46034B3A
:1009D0001A70FB7B18461037BD4680BD0308002007
:1009E00080B582B000AFBB1D012219469120FFF7F0
:1009F000D5FE0346FB71BB79012B0CBF01230023FD
:100A0000DBB21A46034B1A70FB7918460837BD460D
:100A100080BD00BF0408002080B582B000AF074B46
:100A20001B78FB71FB1D012219469120FFF754FE34
:100A3000034618460837BD4680BD00BF04080020A5
:100A400080B584B000AF78607B68002B01D10123B2
:100A50001EE00123BB7307F10E030122194691200A
:100A6000FFF73AFE0346FB73FB7B002B01D0FB7BB9
:100A70000EE07868FFF7B6FB03469BB201339BB2EA
:100A80001A4679689220FFF727FE0346FB73FB7B2B
:100A900018461037BD4680BD80B584B000AF03F066
:100AA00093FAB860BB68002B01D1012331E0FB1D34
:100AB000012219469120FFF771FE0346FB73FB7B71
:100AC000002B01D0FB7B24E0FB79012B10D1BB680C
:100AD0008033112219469220FFF760FE0346FB7314
:100AE000FB7B002B0BD1BB68002283F8912006E032
:100AF000BB6880331222002118460CF069F8FB799C
:100B0000012B0CBF01230023DBB21A46034B1A70E2
:100B1000FB7B18461037BD4680BD00BF040800208F
:100B200080B500AF01221021024804F0E9FA00BFAD
:100B300080BD00BF0000024080B400AF024B1846E9
:100B4000BD465DF8047B70470000001080B500AF23
:100B50000C22002102480CF03BF800BF80BD00BF12
:100B60000000001080B584B000AF7860FFF7E4FFAC
:100B7000F8607B68072B27D801A252F823F000BF4A
:100B8000A10B0008A90B0008B10B0008C90B000855
:100B9000C90B0008C90B0008B90B0008C10B0008FD
:100BA000FB6800229A6012E0FB6801229A600EE066
:100BB000FB6802229A600AE0FB6806229A6006E05F
:100BC000FB6807229A6002E04FF0FF3301E0FB6808
:100BD0009B6818461037BD4680BD00BF80B582B007
:100BE00000AFFFF7A9FF78607B689B683B60404BD4
:100BF0001B6903F00103012B17D13D4B1B6903F067
:100C00000203022B11D13A4B1B6903F00403042B9E
:100C10000BD1374B1B6903F00803082B05D10020CB
:100C2000FFF7A0FF38603B685DE0314B1B6903F0C4
:100C30000103012B17D12E4B1B6903F00203022B7A
:100C400011D12B4B1B6903F00403042B0BD0284B51
:100C50001B6903F00803082B05D00220FFF782FF71
:100C600038603B683FE0234B00221A70204B1B6921
:100C700003F00103012B17D01D4B1B6903F0020386
:100C8000022B11D11A4B1B6903F00403042B0BD068
:100C9000174B1B6903F00803082B05D00620FFF74C
:100CA00061FF38603B681EE0114B1B6903F00103D4
:100CB000012B17D00E4B1B6903F00203022B11D13D
:100CC0000B4B1B6903F00403042B0BD0084B1B696F
:100CD00003F00803082B05D10720FFF743FF386016
:100CE0003B6800E03B6818460837BD4680BD00BF42
:100CF000001002400008002080B400AF024B1846EC
:100D0000BD465DF8047B70470C00001080B500AF55
:100D10001C22002102480BF05BFF00BF80BD00BF1A
:100D20000C00001080B586B000AF1A4B3B613869EB
:100D300000F094FAF860184BBB60184B7B60FB68BE
:100D4000002B14D01649F8680BF06AFF0346002BFD
:100D50000DD0B868FFF746FA03469AB24FF0FF335A
:100D6000B968104807F0B6FB00237B610CE0786897
:100D7000FFF738FA03469AB24FF0FF337968094813
:100D800007F0A8FB01237B617B6918461837BD4635
:100D900080BD00BF50DD000858DD000874DD00088C
:100DA0008CDD00080407002080B5AAB002AF002344
:100DB000C7F89C3002F062FFC7F8980002F0DAFF33
:100DC000C7F894000023C7F890302F4BC7F88C3039
:100DD0002E4BC7F8883000237B6007F108037C2284
:100DE000002118460BF0F4FE381DD7F8943000931C
:100DF000D7F89830264A80210BF07AFEC7F8840095
:100E0000D7F88430002B03DBD7F884307F2B01DD4B
:100E100001F0B4FD3B1D184600F020FAC7F8900021
:100E2000D7F89030002B18D01A49D7F890000BF063
:100E3000F7FE0346002B10D0D7F88C00FFF7D2F94D
:100E400003469AB24FF0FF33D7F88C10124807F0E0
:100E500041FB0023C7F89C300FE0D7F88800FFF76C
:100E6000C1F903469AB24FF0FF33D7F888100A4809
:100E700007F030FB0123C7F89C30D7F89C301846A8
:100E8000A037BD4680BD00BF90DD0008B8DD00087A
:100E9000E0DD00088CDD00080407002080B5ADF51A
:100EA000846D00AF07F58463A3F21C43186007F557
:100EB0008463A3F5826300221A6004334FF47F72C7
:100EC000002118460BF084FE0023C7F81C3403F001
:100ED000A7FDC7F8180407F58463A3F21C4318683C
:100EE000FFF780F9C7F81004D7F810349AB207F565
:100EF0008463A3F21C414FF0FF330968584807F0A0
:100F0000E9FA0346002B53D001F038FD50E007F119
:100F10000F014FF496730122514807F066FB034618
:100F2000002B3BD1D7F81C345A1CC7F81C2407F5FA
:100F30008462A2F21142117807F58462A2F58262FE
:100F4000D1540622D7F81C3493420ED30622D7F888
:100F50001C349B1A07F1100213440622414918461B
:100F60000BF026FE0346002B2CD00922D7F81C34A8
:100F700093420ED30922D7F81C349B1A07F11002B2
:100F800013440922384918460BF012FE0346002B81
:100F900015D003F045FDC7F8180409E003F040FD43
:100FA0000246D7F81834D31A44F62062934208D880
:100FB000D7F81C3440F2FE329342A8D902E000BFB9
:100FC00000E000BF03F02CFDC7F814041DE007F19A
:100FD0000F014FF496730122214807F006FB0346E8
:100FE000002B12D1D7F81C345A1CC7F81C2407F563
:100FF0008462A2F21142117807F58462A2F582623E
:10100000D15403F00DFDC7F81404D7F81C3440F296
:10101000FE32934208D803F003FD0246D7F8143499
:10102000D31AB3F5FA7FD2D307F58463A3F58262AE
:10103000D7F81C34134400221A70D7F81C34002B44
:1010400009D0D7F81C349AB207F110014FF0FF33E2
:10105000064807F03FFA00BF07F58467BD4680BD2C
:101060004C07002004F000080CF0000804070020E2
:1010700080B5ADF5846D00AF07F58463A3F21C4322
:10108000186007F58463A3F5826300221A600433B5
:101090004FF47F72002118460BF09AFD0023C7F829
:1010A0001C3403F0BDFCC7F8180407F58463A3F2F1
:1010B0001C431868FFF796F8C7F81004D7F81034E7
:1010C0009AB207F58463A3F21C414FF0FF3309681D
:1010D0005E4807F0FFF90346002B53D001F04EFCA9
:1010E00050E007F10F014FF496730122574807F0C3
:1010F0007CFA0346002B3BD1D7F81C345A1CC7F8A6
:101100001C2407F58462A2F21142117807F584626B
:10111000A2F58262D1540622D7F81C3493420ED332
:101120000622D7F81C349B1A07F11002134406223A
:10113000474918460BF03CFD0346002B2CD00922F2
:10114000D7F81C3493420ED30922D7F81C349B1ACB
:1011500007F11002134409223E4918460BF028FDFE
:101160000346002B15D003F05BFCC7F8180409E018
:1011700003F056FC0246D7F81834D31A44F620621E
:10118000934208D8D7F81C3440F2FE329342A8D9D3
:1011900002E000BF00E000BF03F042FCC7F8140407
:1011A0001DE007F10F014FF496730122274807F065
:1011B0001CFA0346002B12D1D7F81C345A1CC7F86E
:1011C0001C2407F58462A2F21142117807F58462AB
:1011D000A2F58262D15403F023FCC7F81404D7F8B7
:1011E0001C3440F2FE32934208D803F019FC024648
:1011F000D7F81434D31AB3F5FA7FD2D307F5846342
:10120000A3F58262D7F81C34134400221A70D7F871
:101210001C34002B09D0D7F81C349AB207F1100106
:101220004FF0FF330C4807F055F907F11003084958
:1012300018460BF0F5FC0346002B01D0002300E01C
:101240000123184607F58467BD4680BD4C07002082
:1012500004F000080CF000080407002080B588B0F6
:1012600000AF78600023FB6103F0DAFBB8617868B7
:10127000FEF7B8FF38613B699AB24FF0FF337968E7
:10128000454807F027F90346002B42D001F076FBD2
:101290003FE007F10F014FF4967301223E4807F03B
:1012A000A4F90346002B2BD1FB695A1CFA61F97B88
:1012B0003A4AD1540622FB6993420CD30622FB69B9
:1012C0009B1A364A13440622354918460BF070FC27
:1012D0000346002B26D00922FB6993420CD3092236
:1012E000FB699B1A2D4A134409222E4918460BF01C
:1012F0005FFC0346002B12D003F092FBB86108E0BC
:1013000003F08EFB0246BB69D31A44F62062934277
:1013100007D8FB6940F2FE329342BAD902E000BF1F
:1013200000E000BF03F07CFB786113E007F10F01E0
:101330004FF496730122184807F057F90346002B23
:1013400008D1FB695A1CFA61F97B144AD15403F0A5
:1013500067FB7861FB6940F2FE32934207D803F0E5
:101360005FFB02467B69D31AB3F5FA7FDED30B4AE3
:10137000FB69134400221A70FB69002B07D0FB693C
:101380009AB24FF0FF330549074807F0A3F8034B23
:1013900018462037BD4680BD4C070020C400002001
:1013A00004F000080CF000080407002080B586B0A7
:1013B00000AF00237B611A4B3B613869FFF74EFF9A
:1013C000F860184BBB60184B7B60FB68002B14D097
:1013D0001649F8680BF024FC0346002B0DD0B868C2
:1013E000FEF700FF03469AB24FF0FF33B96810488A
:1013F00007F070F800237B610CE07868FEF7F2FEDE
:1014000003469AB24FF0FF337968094807F062F853
:1014100001237B617B6918461837BD4680BD00BF3C
:10142000F8DD000804DE000828DE00088CDD000876
:101430000407002080B5C6B000AF0023C7F8143100
:10144000394BC7F810313846D7F81031374A4FF4C6
:1014500080710BF04DFBC7F80C01D7F80C31002B55
:1014600003DBD7F80C31FF2B01DD01F087FA3B4697
:101470001846FFF7F3FEC7F814012D49D7F81401F9
:101480000BF0CEFBC7F80801D7F80831002B27D0A6
:10149000D7F808310933C7F808312221D7F80801F5
:1014A0000BF09EFBC7F80401D7F80431002B17D0CE
:1014B000D7F80421D7F80831D31AC7F80031D7F884
:1014C00000317F2B0CD8D7F80021D7F80811194824
:1014D0000BF093FB174AD7F80031134400221A701F
:1014E000144B1B78002B12D01248FEF77BFE0346EC
:1014F0009AB24FF0FF330F490F4806F0EBFF4FF061
:10150000FF3302220D490C4806F0E4FF06E04FF0DD
:10151000FF3319220A49084806F0DCFF054B18463C
:1015200007F58C77BD4680BD48DE000880DE0008E8
:10153000E8DE0008C404002004070020F4DE0008F0
:10154000F8DE000880B588B000AF3A4B7B6178695F
:10155000FFF784FE3861384938690BF061FBF860A9
:10156000FB68002B41D0FB680B33FB602221F8683D
:101570000BF036FBB860BB68002B36D0BA68FB684E
:10158000D31A7B607B68112B2FD80023FB610023CB
:10159000BB6121E0FA68BB6913441B783A2B18D071
:1015A000FA68BB6913441B78FB70FB780133234A4C
:1015B00013441B7803F00303022B03D1FB78A3F140
:1015C000200200E0FA78FB69591CF961D1B21C4A8B
:1015D000D154BB690133BB61BA697B689A42D9D3E4
:1015E000174AFB69134400221A701548FEF7FAFDEA
:1015F00003469AB24FF0FF331149124806F06AFFD2
:101600004FF0FF33022210490E4806F063FF0C4BE7
:101610001B78002B08D14FF0FF331F220B490948DC
:1016200006F058FF002300E0054B18462037BD4662
:1016300080BD00BF14DF000824DF0008E0F40008CC
:101640004405002004070020F4DE000830DF000815
:1016500080B5A8B000AF78600023C7F89C30FFF7D2
:101660004BFBC7F8940007F10C007B68B34A80215C
:101670000BF03EFAC7F89000D7F89030002B03DB50
:10168000D7F890307F2B04DD01F078F90123C7F8FB
:101690009C3007F10C031846FFF700FCA848FFF741
:1016A000FDFBA848FFF7DAFDC7F88C00FFF724FB25
:1016B000C7F89400A449D7F88C000BF0B1FAC7F82A
:1016C0009800D7F89830002B0DD0D7F898300C330D
:1016D000C7F898300322D7F898109C480BF08DFA81
:1016E0009A4B0022DA70994802F078F80246D7F84F
:1016F0009430DA609548FEF775FD03469AB24FF0D4
:10170000FF339249924806F0E5FE4FF0FF33022284
:1017100090498F4806F0DEFED7F89830002B0DD0A8
:10172000D7F898300433C7F898300322D7F89810C8
:1017300089480BF062FA884B0022DA70864802F082
:101740004DF80246D7F894305A608348FEF74AFDB8
:1017500003469AB24FF0FF337F497D4806F0BAFE48
:101760004FF0FF3302227B49794806F0B3FED7F8E9
:101770009830002B0DD0D7F898300433C7F8983044
:101780000222D7F8981075480BF037FA734B0022F5
:101790009A7072480BF021F90246D7F894309A609B
:1017A0006E48FEF71FFD03469AB24FF0FF336B49B8
:1017B000674806F08FFE4FF0FF3302226549644808
:1017C00006F088FED7F89830002B0DD0D7F8983067
:1017D0000333C7F898300222D7F8981060480BF00E
:1017E0000CFA5F4B00229A705D480BF0F6F8024647
:1017F000D7F894301A615A48FEF7F4FC03469AB2BF
:101800004FF0FF335649524806F064FE4FF0FF3365
:10181000022250494E4806F05DFED7F89830002B62
:101820000DD0D7F898300333C7F898300222D7F894
:1018300098104C480BF0E1F94A4B00229A70494845
:101840000BF0CBF80246D7F894305A614548FEF7C2
:10185000C9FC03469AB24FF0FF3342493C4806F0B8
:1018600039FE4FF0FF3302223A49394806F032FE82
:10187000D7F89830002B0DD0D7F898300333C7F83D
:1018800098300222D7F8981037480BF0B6F9364B4B
:1018900000229A7034480BF0A0F80246D7F8943032
:1018A0009A613148FEF79EFC03469AB24FF0FF332F
:1018B0002D49274806F00EFE4FF0FF33022225493E
:1018C000234806F007FED7F89830002B0DD0D7F844
:1018D00098300333C7F898300422D7F8981023487B
:1018E0000BF08BF9214B00221A7120480BF075F890
:1018F0000246D7F894301A601C48FEF773FC034682
:101900009AB24FF0FF331949114806F0E3FD4FF04A
:10191000FF3302220F490E4806F0DCFDD7F89C3059
:10192000012B01D1012304E00023C7F89C30D7F834
:101930009C301846A037BD4680BD00BF50DF000870
:1019400088DF00089CDF0008B0DF00085805002091
:1019500004070020F4DE00085C050020600500207C
:1019600064050020680500206C050020700500203B
:1019700080B5ADF5747D02AF0023C7F8C4330023F2
:10198000C7F8C03307F29B31C8230122C04806F0D4
:101990002CFE0346002B97F89B332B2BF2D1D7F864
:1019A000C4335A1CC7F8C42303F572733B442B227B
:1019B00003F8702C1BE007F29B31C8230122B448C6
:1019C00006F013FE0346002B01D000F0D7FFD7F836
:1019D000C4335A1CC7F8C42397F89B2303F57273CA
:1019E0003B4403F8702C97F89B333A2B04D0D7F87C
:1019F000C4333E2BDFDD00E000BF07F55672D7F899
:101A0000C433134400221A7007F5AA7307F5AB72AA
:101A100007F556709F490BF09FF80346022B40F0E4
:101A200035810023A7F8BE331CE007F29B31C823A1
:101A30000122974806F0D9FD0346002B01D000F0A3
:101A40009DFFD7F8C0335A1CC7F8C02397F89B13E3
:101A500007F57272A2F51C72D154B7F8BE33013388
:101A6000A7F8BE3307F57273A3F51D731B88B7F88B
:101A7000BE239A4204D2D7F8C033B3F5FF7FD4DD3A
:101A800007F57273A3F51C72D7F8C0331344002214
:101A90001A700023C7F8B83307F1440307F5A6729C
:101AA00007F5AC707C490BF057F80346022B0BD1BD
:101AB00007F1440379491846FEF78AFB0346002BD9
:101AC00002D10123C7F8B833D7F8B833002B16D0AA
:101AD000734BC7F8A833D7F8A803FEF783FB034678
:101AE000C7F8B433D7F8B42307F1C403D7F8A81361
:101AF00018460BF082F80023C7F8B03317E0694BA3
:101B00001B68C7F8B03307F1C400D7F8B033664A92
:101B100080210AF0EDFFC7F8B403D7F8B433002BE7
:101B200003DBD7F8B4337F2B01DD00F027FFD7F8B4
:101B3000B423D7F8B0331344C7F8A43307F572734E
:101B4000A3F272231B881A46381DD7F8A4330093DA
:101B50001346564A40210AF0CBFFC7F8A003D7F836
:101B6000A033002B03DBD7F8A0333F2B01DD00F0BF
:101B700005FFD7F8A0339AB2391D4FF0FF33444820
:101B800006F0A8FC02F04CFFC7F89C0307F29B315B
:101B9000C82301223E4806F028FD0346002B03D14E
:101BA00097F89B333E2B08D002F03AFF0246D7F855
:101BB0009C33D31AC72BE9D900E000BFD7F8B43360
:101BC0009AB207F1C4014FF0FF33314806F082FCAE
:101BD000D7F8B833002B08D1D7F8B0339AB24FF00A
:101BE000FF3333492A4806F075FC02F019FFC7F8A5
:101BF0009C0307F57273A3F521732E4A92E8030044
:101C000083E803000023C7F8AC3322E007F29B31DE
:101C1000C82301221E4806F0E8FC0346002B18D119
:101C200007F57273A3F52172D7F8AC3313441A7811
:101C300097F89B339A4209D1D7F8AC330133C7F8F0
:101C4000AC33D7F8AC33072B03D10BE00023C7F834
:101C5000AC3302F0E5FE0246D7F89C33D31AB3F555
:101C60007A7FD3D3322002F0E7FE07F57273A3F236
:101C700072231B88381D104A40210AF039FFC7F82B
:101C8000A0033B1D1846FFF7E9FA75E600BF73E6AF
:101C90004C070020FCE000080CE1000818E10008F7
:101CA0003CE100088CF000086CE1000834E000081A
:101CB00030F00008C0E1000848E0000880B5ADF54C
:101CC000767D02AF0023C7F8B8330023C7F8B433DA
:101CD00008E000BF06E000BF04E000BF02E000BF74
:101CE00000E000BF0023C7F8CC3307F2A731C823B8
:101CF0000122C54806F079FC0346002BE9D197F88C
:101D0000A7332B2BF1D1D7F8CC335A1CC7F8CC23EF
:101D100003F574733B442B2203F86C2C19E007F293
:101D2000A731C8230122B84806F05FFC0346002B08
:101D3000D1D1D7F8CC335A1CC7F8CC2397F8A723B6
:101D400003F574733B4403F86C2C97F8A7333A2BD4
:101D500004D0D7F8CC333E2BE1DD00E000BF07F51F
:101D60005972D7F8CC33134400221A7007F5B073B8
:101D700007F5B17207F55970A4490AF0EDFE034664
:101D8000022BAAD10023C7F8C8330023A7F8B23327
:101D90001FE007F2A731C82301229B4806F025FC6B
:101DA0000346002B9BD1D7F8C833B3F5FF7F0BDC7C
:101DB000D7F8C8335A1CC7F8C82397F8A71307F5F4
:101DC0007472A2F51B72D154B7F8B2330133A7F87D
:101DD000B23307F57473A3F51C731B88B7F8B223ED
:101DE0009A42D6D307F57473A3F51B72D7F8C8339C
:101DF000134400221A7007F57473A3F54E73002282
:101E00001A6000225A6007F57473A3F573730022F9
:101E10001A6004337C22002118460AF0D9FE3B1DCB
:101E200007F1980207F5B27079490AF095FE03466A
:101E3000022B1ED13B1D77491846FEF7C9F9034610
:101E4000002B03D10123C7F8B83312E03B1D7249C0
:101E50001846FEF7BDF90346002B07D03B1D6F491E
:101E600018460AF0DDFE0346002B02D00123C7F816
:101E7000B433D7F8B433002B0CD00023C7F8C033E9
:101E800007F1E003664A802118460AF031FEC7F8E0
:101E9000C4030DE0634B1B68C7F8C03307F1E000D3
:101EA000D7F8C033604A80210AF022FEC7F8C40385
:101EB000D7F8C433002BFFF614AFD7F8C4337F2B09
:101EC0003FF70FAFD7F8B833002B10D007F5747376
:101ED000A3F55373554A07CA03C31A7007F1840365
:101EE00008221946524806F017FC00F06BF907F576
:101EF0007473A3F26E231B881946D7F8C423D7F84E
:101F0000C033134407F1A00000930B46494A402117
:101F10000AF0EEFDC7F8AC03D7F8AC33002BC0F2E3
:101F2000AD80D7F8AC333F2B00F3A880D7F8AC33A3
:101F30009AB207F1A0014FF0FF33334806F0CAFA16
:101F400002F06EFDC7F8A80307F2A731C8230122EB
:101F50002D4806F04AFB0346002B03D197F8A73320
:101F60003E2B08D002F05CFD0246D7F8A833D31A06
:101F7000C72BE9D900E000BFD7F8C4339AB207F104
:101F8000E0014FF0FF33204806F0A4FAD7F8B4334D
:101F9000002B08D1234B1B689AB24FF0FF33264920
:101FA000194806F097FA07F57473A3F55073234A9E
:101FB00092E8030083E803000023C7F8BC3302F073
:101FC0002FFDC7F8A8033EE007F2A731C82301227E
:101FD0000D4806F00AFB0346002B34D107F5747355
:101FE000A3F55072D7F8BC3313441A7897F8A73387
:101FF0009A4225D1D7F8BC330133C7F8BC33D7F8A0
:10200000BC33072B1FD127E04C070020FCE0000861
:102010000CE10008C0E30008D4E10008ACE30008CC
:102020003CE1000848F4000848E30008C8E3000861
:1020300004070020CCE2000890F00008C0E100088E
:102040000023C7F8BC3302F0EBFC0246D7F8A833F4
:10205000D31AB3F57A7FB7D307F57473A3F26E235F
:102060001B8807F1A000074A40210AF041FDC7F88C
:10207000AC0307F1A0031846FFF7F0F807F57477F3
:10208000BD4680BDE0E2000880B483B000AF3D4BA8
:102090001B6B3C4A43F0100313633A4B1B6B7B6092
:1020A000394B1B68384A23F440331360364B1B68A6
:1020B000354A43F480331360334B5B68324A23F470
:1020C00080735360304B9B682F4A23F440339360F6
:1020D0002D4B9B682C4A43F4003393602A4BDB68FA
:1020E000294A23F44033D360274B1B68264A23F444
:1020F00040231360244B1B68234A43F4802313605E
:10210000214B5B68204A23F4007353601E4B9B688D
:102110001D4A23F4402393601B4B9B681A4A43F4E7
:1021200000239360184BDB68174A23F44023D360E5
:10213000154B1B68144A23F440131360124B1B68A1
:10214000114A43F4801313600F4B5B680E4A23F46B
:10215000806353600C4B9B680B4A23F440139360DD
:10216000094B9B68084A43F400139360064BDB68F5
:10217000054A23F44013D36000BF0C37BD465DF819
:10218000047B7047003802400010024080B400AF6A
:10219000044B4FF480729A6100BFBD465DF8047B2A
:1021A000704700BF0010024080B400AF044B4FF0F6
:1021B00080729A6100BFBD465DF8047B704700BF26
:1021C0000010024080B400AF054B5B69044A83F401
:1021D0008073536100BFBD465DF8047B704700BF4C
:1021E0000010024080B400AF044B4FF400729A61BB
:1021F00000BFBD465DF8047B704700BF0010024081
:1022000080B400AF044B4FF480629A6100BFBD46BA
:102210005DF8047B704700BF0010024080B400AF3F
:10222000044B4FF080629A6100BFBD465DF8047BAD
:10223000704700BF0010024080B500AF02F08AFB7B
:1022400000F054F800F064FA00F0BCF800F02CF94B
:1022500000F04AF900F07EF900F0DCF900F004FA31
:1022600000F02CFA07F048FF00F0AAF901F080F81E
:10227000174805F021FE0346002B01D000F07EFB3D
:1022800001221449144806F07DFA0346002B01D0C0
:1022900000F074FB01221149114806F073FA03465D
:1022A000002B01D000F06AFB01F06CF800F096FB07
:1022B00001F032F801F076F80A4B1B78022B01D0BE
:1022C00001F0D2FE084B00221A7000F067FCFCE718
:1022D00074060020FE07002004070020FF070020EE
:1022E00094070020000800200000002080B594B072
:1022F00000AF07F120033022002118460AF068FCE5
:1023000007F10C0300221A605A609A60DA601A61C1
:102310000023BB60294B1B6C284A43F08053136495
:10232000264B1B6C03F08053BB60BB6800237B60B3
:10233000234B1B68224A43F480431360204B1B68E5
:1023400003F480437B607B6805233B624FF480335A
:102350007B620123BB620223BB634FF48003FB63F8
:1023600004233B64A8237B640223BB640723FB6430
:1023700007F12003184602F0DDFE0346002B01D0D2
:1023800000F0FCFA0F23FB6002233B6100237B611A
:102390004FF4A053BB614FF48053FB6107F10C0372
:1023A0000521184603F03EF90346002B01D000F04A
:1023B000E5FA00BF5037BD4680BD00BF003802407F
:1023C0000070004080B500AF334B344A1A60324B86
:1023D00000225A60304B7F229A602F4BFF22DA6036
:1023E0002D4B00221A612C4B00225A612A4B0022ED
:1023F0009A61294803F018FC0346002B01D000F035
:10240000BDFA0121244803F083FF034643F2F22280
:10241000934235D043F2F22201211F4803F05EFFC0
:102420001F4B00221A701E4B00225A701C4B0022B8
:102430009A701B4B0022DA60194B00221A610122AC
:102440001749154803F071FC0346002B01D000F03A
:1024500095FA144B01221A70124B01225A70114B3B
:1024600001229A700F4B2522DA7001220D490A4889
:1024700003F053FD0346002B0CD000F07FFA09E077
:1024800001220749044803F0EAFC012205490248F9
:1024900003F0C7FD00BF80BD780500200028004084
:1024A000DC070020F007002080B400AF0C4B0D4A81
:1024B0001A600B4B00225A60094B00229A60084BAD
:1024C0000022DA60064B00221A61054B00225A6195
:1024D000034B00229A6100BFBD465DF8047B704744
:1024E00098050020002C014080B500AF174B184A1A
:1024F0001A60164B4FF482725A60144B00229A6095
:10250000124B0022DA60114B00221A610F4B00229D
:102510005A610E4B4FF400729A610C4B0022DA6143
:102520000A4B00221A62094B00225A62074B002212
:102530009A62064B0A22DA62044804F09BFE0346C4
:10254000002B01D000F01AFA00BF80BD1C0600204D
:102550000030014080B582B000AF3B4600221A60D7
:102560005A60154B154A1A60134B63225A60124B7E
:1025700000229A60104B40F24732DA600E4B002284
:102580009A610D4805F048FC0346002B01D000F08D
:10259000F5F900233B6000237B603B461946064863
:1025A00005F0B8FE0346002B01D000F0E7F900BFAC
:1025B0000837BD4680BD00BF7406002000140040EF
:1025C00080B500AF114B124A1A60104B4FF4E13244
:1025D0005A600E4B00229A600C4B0022DA600B4BC3
:1025E00000221A61094B0C225A61084B00229A61A1
:1025F000064B0022DA61054805F01CFF0346002B5C
:1026000001D000F0BBF900BF80BD00BFBC060020B8
:10261000004C004080B500AF114B124A1A60104BBD
:102620004FF4E1325A600E4B00229A600C4B0022AC
:10263000DA600B4B00221A61094B0C225A61084BDD
:1026400000229A61064B0022DA61054805F0F2FE8D
:102650000346002B01D000F091F900BF80BD00BF00
:10266000040700200010014080B500AF114B124A52
:102670001A60104B4FF4E1325A600E4B00229A6000
:102680000C4B0022DA600B4B00221A61094B0C2222
:102690005A61084B00229A61064B0022DA61054814
:1026A00005F0C8FE0346002B01D000F067F900BF1B
:1026B00080BD00BF4C0700200044004080B500AF43
:1026C000114B124A1A60104B4FF4E1325A600E4B14
:1026D00000229A600C4B0022DA600B4B00221A6138
:1026E000094B0C225A61084B00229A61064B0022CA
:1026F000DA61054805F09EFE0346002B01D000F08C
:102700003DF900BF80BD00BF940700200048004095
:1027100080B58CB000AF07F11C0300221A605A602C
:102720009A60DA601A610023BB614B4B1B6B4A4A0B
:1027300043F010031363484B1B6B03F01003BB61A2
:10274000BB6900237B61444B1B6B434A43F004038A
:102750001363414B1B6B03F004037B617B69002314
:102760003B613D4B1B6B3C4A43F0800313633A4B88
:102770001B6B03F080033B613B690023FB60364B1E
:102780001B6B354A43F001031363334B1B6B03F0A0
:102790000103FB60FB680023BB602F4B1B6B2E4AC1
:1027A00043F0020313632C4B1B6B03F00203BB606B
:1027B000BB6800237B60284B1B6B274A43F0080350
:1027C0001363254B1B6B03F008037B607B680022BF
:1027D0001021224802F094FC00224FF47F4120484F
:1027E00002F08EFC0F23FB6100233B6201237B621E
:1027F00007F11C0319461A4802F0E6FA1023FB61A0
:1028000001233B6200237B620023BB6207F11C03B0
:102810001946124802F0D8FA4FF47F43FB610123B6
:102820003B6200237B620023BB6207F11C03194655
:102830000B4802F0C9FA4FF47F43FB6100233B626F
:1028400000237B6207F11C031946064802F0BCFA1C
:1028500000BF3037BD4680BD003802400000024056
:1028600000100240000C024080B582B000AF7860DA
:102870007B681B68044A934201D100F007FC00BF4B
:102880000837BD4680BD00BF0014004080B584B04D
:1028900000AF78607B681B68284A934209D1012207
:1028A0002749284805F038FF01222549254805F029
:1028B00069FF7B681B68244A93422BD1234B1B780A
:1028C000FB73234B1B883E2B09D8214B1B885A1CBA
:1028D00091B21F4A118019461E4AFB7B5354FB7B61
:1028E0000A2B02D0FB7B0D2B0FD1194B1B881A46EC
:1028F000184B00219954164B1B881A46154911484C
:1029000005F00AFF124B00221A8001220F491248DB
:1029100005F038FF7B681B68104A934209D10122F9
:102920000F49084805F0F8FE01220D490D4805F051
:1029300029FF00BF1037BD4680BD00BF0010014019
:10294000FE07002004070020004400407C00002017
:10295000C0000020800000204C07002000480040FC
:10296000FF0700209407002080B483B000AF786098
:1029700000BF0C37BD465DF8047B704780B400AFE4
:1029800072B600BF00BFFDE780B582B000AF01F0B6
:10299000FBFA786017E001224FF480710E4802F0D4
:1029A000AFFBC82002F048F800224FF480710A48BB
:1029B00002F0A6FBC82002F03FF801F0E5FA7860CB
:1029C0007B68002B03D07B68012BE4D000E000BFC4
:1029D00000BF0837BD4680BD0010024080B582B000
:1029E00000AFFEF7FBF878607B68072B12D801A2D6
:1029F00052F823F0152A0008152A0008152A0008A5
:102A0000152A0008152A0008152A0008152A0008AA
:102A1000152A000800BF7B68DAB2034B1A7000BFAA
:102A20000837BD4680BD00BF0008002080B584B0D7
:102A300000AF0023FB6000237B600123BB6044E008
:102A4000FB68022B3DD0FB68022B3DDCFB68002BB2
:102A500003D0FB68012B1AD036E001F05DF87860F6
:102A6000284801F011FA7B68002B06D1264801F0B6
:102A70000BFAFB680133FB6027E0244801F004FAFD
:102A8000234801F001FA012000F058F81DE0FEF79C
:102A900049F978601F4801F0F7F97B68002B06D1EF
:102AA0001D4801F0F1F9FB680133FB600DE01B48A4
:102AB00001F0EAF9164801F0E7F9012000F03EF8CC
:102AC00003E00023BB6000E000BFBB68002BB7D170
:102AD0001348FEF7E3F91348FEF7E0F91248FEF752
:102AE000DDF91248FEF7DAF91148FEF7D7F9114877
:102AF000FEF7D4F91048FEF7D1F9FEF739FF00BF11
:102B0000FDE700BFD4E30008E8E3000808E400089C
:102B100020E400082CE4000840E4000860E4000819
:102B200078E4000888E4000898E40008B8E40008A5
:102B3000C8E40008F4E4000804E5000880B584B0A7
:102B400000AF7860134BFB607B68002B03D07B6881
:102B5000012B03D00EE0FFF711FF17E0F868FDF737
:102B600041FB03469AB24FF0FF33F9680A4805F07B
:102B7000B1FC0BE0F868FDF735FB03469AB24FF065
:102B8000FF33F968044805F0A5FC00BF00BF10370B
:102B9000BD4680BD18E500080407002080B500AFE1
:102BA000034B1B68002B00BFFFF7EEFE00BF80BD8C
:102BB0000C08002080B5C4B000AF354BC7F80C310D
:102BC000D7F80C01FDF70EFB03469AB24FF0FF3326
:102BD000D7F80C112F4805F07DFC01F021FFC7F854
:102BE00008010023C7F8043101F01AFFC7F80801F3
:102BF00001E001F061FB01F013FF0246D7F8083154
:102C0000D31AC72BF5D94FF0FF330A2222492148A6
:102C100005F060FC01F004FFC7F8080101E001F0D5
:102C20003DFB01F0FDFE0246D7F80831D31AC72B51
:102C3000F5D901F041FB38464FF47A7342F2107235
:102C40004FF4807101F046FBC7F80001D7F800315E
:102C5000002B12D007F58873A3F58872D7F80031DE
:102C6000134400221A70D7F800319AB239464FF057
:102C7000FF33084805F02EFC07E04FF0FF33142225
:102C80000649044805F026FC00BF00BFFDE700BF71
:102C90002CE500080407002044E5000850E5000882
:102CA00080B584B000AF0023FB6000237B6001236C
:102CB000BB60A24B3B603868FDF794FA03469AB2BA
:102CC0004FF0FF3339689E4805F004FCC1E1FB6812
:102CD000162B00F2BD8101A252F823F0392D000815
:102CE000812D0008C92D0008132E00085D2E000854
:102CF000A72E0008F12E0008B12F0008FB2F0008B6
:102D000045300008513000085130000851300008AB
:102D1000513000085130000851300008513000088F
:102D2000513000085130000851300008513000087F
:102D3000513000084B30000800F0EEFE786081480A
:102D400001F0A2F87B68002B13D17F4801F09CF8BA
:102D50007D4B3B603868FDF745FA03469AB24FF069
:102D6000FF333968764805F0B5FBFB680133FB603B
:102D70006FE1764801F088F8754801F085F868E160
:102D8000FDF7D0FF7860734801F07EF87B68002B78
:102D900013D1714801F078F86F4B3B603868FDF74C
:102DA00021FA03469AB24FF0FF333968644805F0C0
:102DB00091FBFB680133FB604BE1684801F064F86C
:102DC000634801F061F844E16548FEF751F9786025
:102DD000644801F059F87B68002B13D1624801F078
:102DE00053F8614B3B603868FDF7FCF903469AB233
:102DF0004FF0FF333968524805F06CFBFB68013334
:102E0000FB6026E1594801F03FF8514801F03CF8D9
:102E10001FE15748FEF72CF97860564801F034F866
:102E20007B68002B13D1544801F02EF8524B3B60C5
:102E30003868FDF7D7F903469AB24FF0FF33396887
:102E40003F4805F047FBFB680133FB6001E14B485D
:102E500001F01AF83E4801F017F8FAE04848FEF78A
:102E600007F97860474801F00FF87B68002B13D111
:102E7000454801F009F8444B3B603868FDF7B2F96A
:102E800003469AB24FF0FF3339682D4805F022FB14
:102E9000FB680133FB60DCE03C4800F0F5FF2C48A8
:102EA00000F0F2FFD5E03A48FEF7E2F878603948E2
:102EB00000F0EAFF7B68002B13D1374800F0E4FFF5
:102EC000354B3B603868FDF78DF903469AB24FF0F9
:102ED000FF3339681A4805F0FDFAFB680133FB60DF
:102EE000B7E02E4800F0D0FF194800F0CDFFB0E069
:102EF0002B48FEF7BDF878602A4800F0C5FF7B68D4
:102F0000002B13D1284800F0BFFF274B3B603868E7
:102F1000FDF768F903469AB24FF0FF333968084865
:102F200005F0D8FAFB680133FB6092E01F4800F01F
:102F3000ABFF074800F0A8FF8BE000BF64E5000886
:102F400004070020D4E30008E8E3000808E40008D0
:102F500020E400082CE4000840E4000860E40008D5
:102F600078E4000878E500088CE50008A8E500088A
:102F7000C4E50008D4E50008F0E5000810E6000804
:102F800098E4000830E6000858E6000888E60008E3
:102F9000B8E40008B4E60008D8E6000804E7000832
:102FA000C8E4000830E7000850E7000878E70008A8
:102FB0002C48FEF75DF878602B4800F065FF7B68D1
:102FC000002B13D1294800F05FFF284B3B60386885
:102FD000FDF708F903469AB24FF0FF3339682448E9
:102FE00005F078FAFB680133FB6032E0214800F01D
:102FF0004BFF214800F048FF2BE02048FEF738F84F
:1030000078601F4800F040FF7B68002B13D11D48FB
:1030100000F03AFF1B4B3B603868FDF7E3F80346CE
:103020009AB24FF0FF333968114805F053FAFB6844
:103030000133FB600DE0144800F026FF0E4800F05D
:1030400023FF06E0FEF73AFE03E00023BB6000E04A
:1030500000BFBB68002B7FF43AAE00BF00BF103743
:10306000BD4680BDF4E40008A0E70008C8E70008FA
:1030700004070020F8E7000820E4000804E5000841
:1030800024E8000840E8000864E80008B0B598B0FB
:1030900004AF6423FB647823BB64914B1B8801332A
:1030A0009AB28F4B1A808F4B1B8801339AB28D4B8B
:1030B0001A808D4B1B8801339AB28B4B1A808B4B35
:1030C0001B8801339AB2894B1A80894B1B680133E4
:1030D000874A1360824B1B88C72B02D9804B002282
:1030E0001A80844B1B78002B32D1804B1B8843F60F
:1030F000972293422CD97D4B00221A8000227E49D0
:103100007E4802F0ACFE00227D497C4802F089FF37
:103110007B4B5B781D467A4B9B781A46764B1B7827
:103120001946754B5B781C46734B9B78381D03938F
:103130000294019100922B46724A402109F0D8FC7A
:1031400078647B6C9AB23B1D19466F4805F0E4FA2F
:103150006E4B1B78022B00F0B980624B1B88632BEF
:1031600015D9604B00221A80694B1B78002B0CBFCD
:1031700001230023DBB21A46654B1A70644B1B789F
:10318000002B02D0FFF73CF801E0FFF747F8594B5E
:103190001B78002B0CD15F4B1B6903F00103002B44
:1031A00003D15A4B00221A7002E0584B01221A70C8
:1031B000504B1B78002B40F08F80544B1B78002B1A
:1031C00032D1494B1B881A46FB6C934202D1FEF761
:1031D000DDFF29E0444B1B881A46FB6C5B009A42DA
:1031E00002D1FEF7E1FF1FE03F4B1B881946FA6C46
:1031F00013465B001344994202D1FEF7C7FF13E068
:10320000394B1B881A46FB6C9B009A4202D1FEF791
:10321000CBFF09E0344B1B88B3F57A7F04D3FEF76C
:10322000C3FF314B00221A80384B1B78012B53D13E
:103230002D4B1B881A46BB6C934202D1FEF7A6FFAA
:103240004AE0294B1B881A46BB6C5B009A4202D1AC
:10325000FEF7AAFF40E0244B1B881946BA6C1346C0
:103260005B001344994202D1FEF790FF34E01E4BFD
:103270001B881A46BB6C9B009A4202D1FEF794FF52
:103280002AE0194B1B881946BA6C13469B0013445D
:10329000994202D1FEF77AFF1EE0134B1B881946B4
:1032A000BA6C13465B0013445B00994202D1FEF7EF
:1032B0007BFF11E00C4B1B8840F2DB5293420BD991
:1032C000FEF772FF084B00221A8005E0FEF75EFF52
:1032D000FEF788FFFEF794FF00BF5037BD46B0BD34
:1032E000F4070020F6070020F8070020FC07002064
:1032F0000808002000000020DC07002078050020DE
:10330000F007002088E800080407002000080020DB
:10331000FA0700200010024080B500AF134B1B7865
:10332000072B1FD801A252F823F000BF4D3300082D
:10333000653300085333000865330008653300081F
:1033400065330008593300085F330008FFF726FC97
:1033500009E0FFF76BFB06E0FFF72CFC03E0FFF74B
:103360009FFC00E000BF00BF80BD00BF0008002040
:1033700080B500AFFDF7CAFC00F030FEFDF7E6FBBC
:1033800000BF80BD80B500AFFDF7CAFB044B012232
:103390001A70FEF779FE00F065FF00BF80BD00BF28
:1033A0000000002080B586B000AF01237B610023C0
:1033B0003B610023FB60FAE13B69082B00F2F681D8
:1033C00001A252F823F000BFED33000821340008B9
:1033D0005534000889340008413500089935000843
:1033E000E73500083B3600082937000800F094FB59
:1033F000F860A74800F048FDFB68002B06D1A548FF
:1034000000F042FD3B6901333B61D0E1A24800F08E
:103410003BFDA24800F038FD0120FFF78FFBC6E11D
:10342000FDF780FCF8609E4800F02EFDFB68002B45
:1034300006D19C4800F028FD3B6901333B61B6E1B1
:10344000994800F021FD954800F01EFD0120FFF78E
:1034500075FBACE1FDF7AAFFF860944800F014FD9D
:10346000FB68002B06D1924800F00EFD3B6901334A
:103470003B619CE18F4800F007FD884800F004FDA7
:103480000120FFF75BFB92E18B4B1B78022B07D1EE
:103490008A4800F0F9FC00233B6100237B6186E150
:1034A000FDF7C0F9864B00221A70864800F0ECFC4C
:1034B000834B1B78002B1CD18348FDF7EFFC83481E
:1034C000FDF7ECFC8248FDF7E9FC8248FDF7E6FCDD
:1034D000FDF76AFCF860FB68002B03D1784B0122F2
:1034E0001A7002E0764B00221A70FDF7B7F900233C
:1034F000FB60734B1B78012B05D17748FDF7CEFCA1
:103500000023FB6001E00123FB60FB68002B0DD171
:10351000724800F0B9FC4FF0FF3328226F49704821
:1035200004F0D8FF3B6901333B6140E16D4800F096
:10353000ABFC5A4800F0A8FC0120FFF7FFFA36E187
:10354000FDF740F9684B00221A70684800F09CFCB7
:10355000654B1B78002B18D14FF46170FEF778F89B
:10356000F860FB68002B06D1614800F08DFC3B69D8
:1035700001333B611BE15F4800F086FC474800F0E7
:1035800083FC0120FFF7DAFA11E15B4800F07CFCD4
:103590003B6901333B610AE1534B1B78002B1BD184
:1035A00000F0AAF9F860504B01221A70FDF726F9D5
:1035B000FB68002B06D1514800F066FC3B690133E3
:1035C0003B61F4E04E4800F05FFC344800F05CFCE6
:1035D0000120FFF7B3FAEAE04A4800F055FC3B69E6
:1035E00001333B61E3E0FDF74DF9474B00221A70D0
:1035F000464800F049FC444B1B78002B14D1FDF7E2
:1036000019FF7860786800F0F5FC7868FDF76AF9D2
:103610003D4B01221A70FDF751F93D4800F034FC92
:103620003B6901333B61C2E0FDF79CF9394800F08A
:103630002BFC3B6901333B61B9E0FDF7D1F9364B17
:1036400000221A70354800F01FFC334B1B78002B0A
:1036500014D1FDF777FFB860B86800F0E7FCB868F0
:10366000FDF7EEF92C4B01221A70FDF7D5F92C4825
:1036700000F00AFC3B6901333B6198E0FDF70CFA6E
:10368000284800F001FC3B6901333B618FE000BF3B
:10369000ACE80008C0E80008E0E80008F8E8000826
:1036A00004E9000818E9000838E9000850E90008B2
:1036B00078E90008ACE9000800080020DCE900080F
:1036C0000108002010EA000828EA000838EA00088B
:1036D00048EA000864EA000870EA00087CEA00088A
:1036E00004070020A4EA000802080020C0EA00083D
:1036F000DCEA000804EB000824EB00083CEB0008BF
:103700005CEB000874EB0008030800208CEB000859
:10371000A4EB0008C0EB000804080020D4EB00086C
:10372000F4EB000814EC0008254800F0ADFB254838
:1037300000F0AAFB00F054F90346184600F0A4FB81
:10374000214800F0A1FB00F065F90346184600F09F
:103750009BFB1D4800F098FB00F076F903461846E5
:1037600000F092FB194800F08FFB00F087F9034648
:10377000184600F089FB164800F086FB00F098F927
:103780000346184600F080FB114800F07DFB00F076
:10379000A9F90346184600F077FB0E4800F074FBC9
:1037A0000D4800F071FB00237B6100E000BF7B69E6
:1037B000002B7FF401AE00BF00BF1837BD4680BDAF
:1037C00030EC000850EC000864EC000868EC0008DD
:1037D0006CEC000870EC000874EC000880B582B056
:1037E00000AF786038497868FCF7F2FC0346002B9C
:1037F00001D1012364E035497868FCF7E9FC034610
:10380000002B01D102235BE031497868FCF7E0FC32
:103810000346002B01D1032352E02E497868FCF7C0
:10382000D7FC0346002B01D1042349E02A497868DC
:10383000FCF7CEFC0346002B01D1052340E02749CD
:103840007868FCF7C5FC0346002B01D1062337E05E
:1038500023497868FCF7BCFC0346002B01D1072301
:103860002EE020497868FCF7B3FC0346002B01D119
:10387000082325E01C497868FCF7AAFC0346002BC6
:1038800001D109231CE019497868FCF7A1FC034623
:10389000002B01D1102313E015497868FCF798FC40
:1038A0000346002B01D111230AE012497868FCF786
:1038B0008FFC0346002B01D1122301E04FF0FF33B0
:1038C00018460837BD4680BDA4EC0008A8EC0008E7
:1038D000ACEC0008B0EC0008B4EC0008B8EC000850
:1038E000BCEC0008C0EC0008C4EC0008C8EC000800
:1038F000CCEC0008D0EC000880B582B000AF00230B
:103900007B60FDF7F9F938603B681B69DAB2304B30
:103910001A703B685B69DAB22D4B5A703B689B6941
:10392000DAB22B4B9A702A4B0022DA60284B002225
:103930001A613B68DB68DAB2264B1A703B685B6839
:10394000DAB2244B5A703B689B68DAB2214B9A700A
:103950003B681B68204A82FB03125111DA178A1A4E
:10396000642101FB02F29A1AD2B21A4BDA701B4B95
:103970001B68CA225A62194B1B6853225A620022E2
:103980001349164802F0D1F90346002B03D0FEF785
:10399000F5FF01237B6000220E49104802F0BDFABA
:1039A0000346002B03D0FEF7E9FF01237B600B4B9E
:1039B0001B68FF225A627B68012B01D17B6802E001
:1039C00000237B607B6818460837BD4680BD00BF7A
:1039D000DC070020F00700201F85EB517805002050
:1039E00080B500AF00220749074802F01AFB054BDB
:1039F000DB78064A0521064809F07AF8044B184698
:103A000080BD00BFF007002078050020F0EC000822
:103A10001008002080B500AF00220749074802F0D7
:103A200000FB054B5B78064A0421064809F060F864
:103A3000044B184680BD00BFF00700207805002029
:103A4000F0EC00081808002080B500AF00220749FC
:103A5000074802F0E6FA054B9B78064A042106481F
:103A600009F046F8044B184680BD00BFF00700205F
:103A700078050020F0EC00081C08002080B500AF9D
:103A800000220749074802F0EAF9054B1B78064A6D
:103A90000421064809F02CF8044B184680BD00BFED
:103AA000DC07002078050020F0EC0008200800204A
:103AB00080B500AF00220749074802F0D0F9054B56
:103AC0005B78064A0421064809F012F8044B1846B0
:103AD00080BD00BFDC07002078050020F0EC000866
:103AE0002408002080B500AF00220749074802F0F3
:103AF000B6F9054B9B78064A0421064808F0F8FF02
:103B0000044B184680BD00BFDC070020780500206C
:103B1000F0EC00082808002080B5ADF58E6D00AFF0
:103B20000023C7F86C3407F50D7301224C49184681
:103B300008F09CF9034687F86B3497F86B34002B38
:103B400001D0FEF71BFF3B1D01224649184608F035
:103B5000D3F9034687F86B3497F86B34002B1CD1EC
:103B60003B1D184608F0B4FE01223D49002008F034
:103B70007DF9034687F86B3497F86B34002B08D037
:103B8000394800F081F90120FEF7D8FF0123C7F87A
:103B90006C340023C7F86C345AE03B1D0A223149CB
:103BA000184608F0A9F9034687F86B3497F86B3488
:103BB000002B08D00120FEF7C1FF2C4800F064F96B
:103BC0000123C7F86C342A4BC7F86434D7F864046F
:103BD000FCF708FB02463B46381DD7F8641408F092
:103BE00084FC034687F86B3497F86B34002B0BD1B9
:103BF000D7F86404FCF7F6FA024607F58E63A3F5DE
:103C00008E631B689A420CD93B1D184608F060FE73
:103C10000120FEF793FF174800F036F90123C7F89B
:103C20006C343B1D184608F053FE034687F86B348E
:103C300097F86B34002B08D00120FEF77FFF0E4869
:103C400000F022F90123C7F86C340023C7F86C3464
:103C5000D7F86C34184607F58E67BD4680BD00BFA7
:103C60007808002020ED00082CED000848ED000841
:103C700064ED00088CED0008A8ED000880B5ADF5F6
:103C8000956D00AF07F51D7301223649184608F0FF
:103C9000EDF8034687F8A73497F8A734002B01D036
:103CA000FEF76CFE07F1440301222F49184608F085
:103CB00023F9034687F8A73497F8A734002B01D0DF
:103CC000FEF75CFE07F14003394607F144003F224E
:103CD00008F0CCFA034687F8A73497F8A734002BEE
:103CE00006D107F59563A3F58D631B68002B06D1FC
:103CF00007F14403184608F0EBFDFEF73FFE07F519
:103D00009563A3F58D631B6807F59562A2F595622F
:103D10000021D1543B46154A1549184608F01CFFAE
:103D200007F14403184608F0D3FD034687F8A7348B
:103D300097F8A734002B01D0FEF720FE0122094995
:103D4000002008F093F8034687F8A73497F8A734C3
:103D5000002B01D0FEF712FE044B184607F59567BD
:103D6000BD4680BD7808002020ED00082C0800200A
:103D7000C4ED000880B5ADF5966D00AF07F51E7374
:103D800001223C49184608F071F8034687F8AF3421
:103D900097F8AF34002B01D0FEF7F0FD07F1480390
:103DA00001223549184608F0A7F8034687F8AF34D2
:103DB00097F8AF34002B01D0FEF7E0FD07F1440384
:103DC000391D07F148003F2208F050FA034687F8F2
:103DD000AF3497F8AF34002B06D107F59663A3F202
:103DE0006C431B68002B06D107F14803184608F006
:103DF0006FFDFEF7C3FD07F59663A3F26C431B68E6
:103E000007F59662A2F2AC420021D1543B1D1B493A
:103E1000184608F005FFC7F8A804D7F8A834002B07
:103E200005D0174A1749D7F8A80408F095FE07F1FE
:103E30004803184608F04CFD034687F8AF3497F85E
:103E4000AF34002B01D0FEF799FD01220949002073
:103E500008F00CF8034687F8AF3497F8AF34002B1E
:103E600001D0FEF78BFD064B184607F59667BD4659
:103E700080BD00BF7808002020ED0008D0ED0008CC
:103E80004C080020DCED000890B5ADF2744D00AF99
:103E900007F58E63A3F26C43186007F50F730122D8
:103EA0003749184607F0E2FF034687F86F3497F862
:103EB0006F34002B01D0FEF761FD07F10C033222B5
:103EC0003049184608F018F8034687F86F3497F819
:103ED0006F34002B01D0FEF751FD07F58E63A3F27E
:103EE0006C431868FCF77EF9044607F1080307F5F0
:103EF0008E62A2F26C4107F10C002246096808F0BC
:103F0000F4FA034687F86F3497F86F34002B0ED11C
:103F100007F58E63A3F26C431868FCF763F9024659
:103F200007F58E63A3F58D631B689A4206D907F1E6
:103F30000C03184608F0CCFCFEF720FD07F10C033B
:103F4000184608F0C5FC034687F86F3497F86F34BD
:103F5000002B01D0FEF712FD01220949002007F0D5
:103F600085FF034687F86F3497F86F34002B01D034
:103F7000FEF704FD00BF07F27447BD4690BD00BFC9
:103F800078080020ECED000880B5ADF50E7D00AF9F
:103F90003B1D01220B49184607F068FF034687F8CE
:103FA000373297F83732002B06D10122054900201D
:103FB00007F05CFF002300E00123184607F50E77A9
:103FC000BD4680BD7808002080B400AF024B184683
:103FD000BD465DF8047B70472800001080B500AF37
:103FE0004FF489720021024808F0F2FD00BF80BD45
:103FF0002800001080B582B000AF78607B68002B8D
:104000000ED07868FCF7EEF803467F2B08D87F22A5
:104010007968054808F0F1FD034B002283F87F2002
:1040200000BF0837BD4680BD2800001080B582B0B3
:1040300000AF78607B68002B0ED07868FCF7D2F870
:104040000346112B08D811227968054808F0D5FDE0
:10405000044B002283F8912000BF0837BD4680BD85
:10406000A80000102800001080B5ADF5507D02AF0B
:10407000FFF7AAFFC7F830030023C7F83433704BAB
:10408000C7F82C336F4BC7F828336F4BC7F824336E
:104090006E4BC7F820336E4BC7F81C33D7F830335C
:1040A000C7F81833D7F830338033C7F81433D7F84C
:1040B00030338033C7F8103307F54E73A3F59A7386
:1040C00000221A600433FC220021184608F080FD0B
:1040D000D7F81833002B04D0D7F818331B78002BEF
:1040E0000ED1D7F82403FCF77DF803469AB24FF0BF
:1040F000FF33D7F82413574804F0ECF901239AE072
:10410000D7F81433002B04D0D7F814331B78002BC6
:104110000ED1D7F82003FCF765F803469AB24FF0AA
:10412000FF33D7F820134B4804F0D4F9012382E081
:10413000D7F81033002B04D0D7F810331B78002B9E
:104140000ED1D7F81C03FCF74DF803469AB24FF096
:10415000FF33D7F81C133F4804F0BCF901236AE091
:1041600007F50170D7F814330193D7F8143300938F
:10417000D7F81833384A4FF4807108F0B9FCC7F803
:104180000C03D7F80C33002B03DBD7F80C33FF2BD1
:1041900004DDFEF7F3FB0123C7F8343307F50173A1
:1041A000381D2E4A4FF4007108F0A2FCC7F808032E
:1041B000D7F80833002B04DBD7F80833B3F5007FBA
:1041C00004DBFEF7DBFB0123C7F834333B1D184645
:1041D000FDF744F8C7F80403D7F80433002B18D0D0
:1041E0001F49D7F8040308F01BFD0346002B10D02D
:1041F000D7F82C03FBF7F6FF03469AB24FF0FF33D4
:10420000D7F82C13134804F065F90023C7F83433AA
:104210000FE0D7F82803FBF7E5FF03469AB24FF00B
:10422000FF33D7F828130B4804F054F90123C7F8DB
:104230003433D7F83433184607F54E77BD4680BD82
:10424000F4ED000814EE000830EE00084CEE000813
:1042500070EE00080407002094EE0008D8EE000875
:1042600040EF000880B500AF01224FF400610A481A
:1042700000F046FF00224FF40061074800F040FFC5
:1042800040F24C4000F0D8FB01224FF4006102489C
:1042900000F036FF00BF80BD0010024080B400AFC8
:1042A000044B4FF400629A6100BFBD465DF8047B89
:1042B000704700BF0010024080B400AF044B4FF0C5
:1042C00000629A6100BFBD465DF8047B704700BF85
:1042D0000010024080B588B000AFF860B9607A6025
:1042E0003B6000F09DFBF8610023BB6113E007F128
:1042F00017013B680122134804F077F90346002BAD
:1043000009D1BB695A1CBA61FA681344FA7D1A7064
:1043100000F086FBF86100F083FB0246FB69D31ACC
:104320007A689A4204D9BB68013BBA699A42DED3E3
:10433000FA68BB69134400221A70BB69184620371B
:10434000BD4680BD9407002080B483B000AF002339
:104350007B60104B5B6C0F4A43F4804353640D4BFE
:104360005B6C03F480437B607B6800233B60094BFC
:104370001B6C084A43F080531364064B1B6C03F01C
:1043800080533B603B6800BF0C37BD465DF8047B43
:10439000704700BF0038024080B586B000AF78603B
:1043A00007F1080300221A605A609A60DA607B689D
:1043B0001B68104A934219D10223BB604FF48073EB
:1043C0007B6107F10803184601F04CFB0346002B04
:1043D00001D0FEF7D3FA084B01221A600022002117
:1043E000292000F028FC292000F041FC00BF1837EC
:1043F000BD4680BD002800403C0E474280B58AB0D3
:1044000000AF786007F1140300221A605A609A60C6
:10441000DA601A617B681B68284A93424AD10023FC
:104420003B61274B5B6C264A43F400635364244B87
:104430005B6C03F400633B613B690023FB60204B32
:104440001B6B1F4A43F0040313631D4B1B6B03F0EC
:104450000403FB60FB680023BB60194B1B6B184A0D
:1044600043F008031363164B1B6B03F00803BB6098
:10447000BB684FF488537B610223BB610023FB615F
:1044800003233B620C237B6207F1140319460D489A
:1044900000F09AFC04237B610223BB610023FB61D3
:1044A00003233B620C237B6207F114031946064881
:1044B00000F08AFC00BF2837BD4680BD002C0140BB
:1044C0000038024000080240000C024080B58AB06B
:1044D00000AF786007F1140300221A605A609A60F6
:1044E000DA601A617B681B68194A93422BD100235A
:1044F0003B61184B5B6C174A43F480535364154B74
:104500005B6C03F480533B613B690023FB60114B00
:104510001B6B104A43F0010313630E4B1B6B03F03C
:104520000103FB60FB68E0237B610223BB61002386
:10453000FB6103233B6205237B6207F114031946E9
:10454000054800F041FC00BF2837BD4680BD00BFD4
:1045500000300140003802400000024080B584B0C5
:1045600000AF78607B681B680E4A934215D1002328
:10457000FB600D4B1B6C0C4A43F0200313640A4B89
:104580001B6C03F02003FB60FB6800220021372036
:1045900000F051FB372000F06AFB00BF1037BD462A
:1045A00080BD00BF001400400038024080B590B0CC
:1045B00000AF786007F12C0300221A605A609A60FD
:1045C000DA601A617B681B68714A93422CD1002320
:1045D000BB62704B1B6C6F4A43F4002313646D4B3A
:1045E0001B6C03F40023BB62BB6A00237B62694B34
:1045F0001B6B684A43F001031363664B1B6B03F0AC
:1046000001037B627B6A0323FB6202233B6300237B
:104610007B630323BB630823FB6307F12C03194669
:104620005D4800F0D1FBAEE07B681B685B4A9342BB
:1046300035D100233B62574B5B6C564A43F0100365
:104640005364544B5B6C03F010033B623B6A0023E2
:10465000FB61504B1B6B4F4A43F0010313634D4BFF
:104660001B6B03F00103FB61FB694FF4C063FB624A
:1046700002233B6300237B630323BB630723FB63AA
:1046800007F12C031946444800F09EFB002200214C
:10469000252000F0D0FA252000F0E9FA73E07B68CD
:1046A0001B683F4A934234D10023BB61394B1B6CDA
:1046B000384A43F400331364364B1B6C03F4003365
:1046C000BB61BB6900237B61324B1B6B314A43F0FA
:1046D000010313632F4B1B6B03F001037B617B69A9
:1046E0000C23FB6202233B6300237B630323BB6336
:1046F0000723FB6307F12C031946274800F064FBEE
:1047000000220021262000F096FA262000F0AFFAC1
:1047100039E07B681B68234A934234D100233B6114
:104720001C4B1B6C1B4A43F480231364194B1B6CFA
:1047300003F480233B613B690023FB60154B1B6B3B
:10474000144A43F002031363124B1B6B03F0020382
:10475000FB60FB684FF44063FB6202233B63002372
:104760007B630323BB630723FB6307F12C03194619
:104770000D4800F029FB00220021272000F05BFA01
:10478000272000F074FA00BF4037BD4680BD00BF4F
:10479000004C004000380240000002400010014080
:1047A00000440040004800400004024080B400AFD4
:1047B00000BFFDE780B400AF00BFFDE780B400AFED
:1047C00000BFFDE780B400AF00BFFDE780B400AFDD
:1047D00000BFFDE780B400AF00BFBD465DF8047BBD
:1047E000704780B400AF00BFBD465DF8047B7047E2
:1047F00080B400AF00BFBD465DF8047B704780B554
:1048000000AF00F0F9F800BF80BD000080B500AF38
:10481000024803F0DDFF00BF80BD00BF0407002099
:1048200080B500AF024803F0D3FF00BF80BD00BFDA
:104830004C07002080B500AF024803F0C9FF00BF5D
:1048400080BD00BF9407002080B500AF024801F092
:1048500037FC00BF80BD00BF7805002080B500AFE9
:10486000024803F099FB00BF80BD00BF7406002022
:1048700080B586B000AF7860144A154BD31A7B61BF
:104880007B693B61134B1B68002B02D1114B124A11
:104890001A60104B1A687B6813443A699A4207D22F
:1048A00008F0D4F903460C221A604FF0FF3309E0F8
:1048B000084B1B68FB60074B1A687B681344054A6A
:1048C0001360FB6818461837BD4680BD0000022003
:1048D000000400006C080020F809002080B400AF3C
:1048E000064BD3F88830054A43F47003C2F8883089
:1048F00000BFBD465DF8047B704700BF00ED00E0DF
:10490000DFF834D0FFF7EAFF0C480D490D4A0023C9
:1049100002E0D458C4500433C4188C42F9D30A4A74
:104920000A4C002301E013600432A242FBD308F0DA
:1049300093F9FDF781FC7047000002200000002081
:104940006000002040F6000860000020F809002008
:10495000FEE7000080B500AF0E4B1B680D4A43F424
:10496000007313600B4B1B680A4A43F480631360A7
:10497000084B1B68074A43F480731360032000F060
:104980004FF90F2000F008F8FFF7DEFC002318466F
:1049900080BD00BF003C024080B582B000AF7860AF
:1049A000124B1A68124B1B7819464FF47A73B3FBFB
:1049B000F1F3B2FBF3F3184600F067F90346002B5E
:1049C00001D001230EE07B680F2B0AD80022796802
:1049D0004FF0FF3000F02FF9064A7B681360002388
:1049E00000E0012318460837BD4680BD04000020C2
:1049F0000C0000200800002080B400AF064B1B789C
:104A00001A46064B1B681344044A136000BFBD4698
:104A10005DF8047B704700BF0C0000207008002088
:104A200080B400AF034B1B681846BD465DF8047B9D
:104A3000704700BF7008002080B584B000AF786078
:104A4000FFF7EEFFB8607B68FB60FB68B3F1FF3FE8
:104A500005D00A4B1B781A46FB681344FB6000BF65
:104A6000FFF7DEFF0246BB68D31AFA689A42F7D80E
:104A700000BF00BF1037BD4680BD00BF0C00002046
:104A800080B485B000AF78607B6803F00703FB60FB
:104A90000C4BDB68BB60BA684FF6FF031340BB608A
:104AA000FB681A02BB68134343F0BF6343F400334F
:104AB000BB60044ABB68D36000BF1437BD465DF8D5
:104AC000047B704700ED00E080B400AF044BDB686E
:104AD0001B0A03F007031846BD465DF8047B7047C8
:104AE00000ED00E080B483B000AF0346FB7197F99E
:104AF0000730002B0BDBFB7903F01F02074997F906
:104B000007305B09012000FA02F241F8232000BFC0
:104B10000C37BD465DF8047B704700BF00E100E044
:104B200080B483B000AF03463960FB7197F907305A
:104B3000002B0ADB3B68DAB20C4997F90730120107
:104B4000D2B20B4483F800230AE03B68DAB208498A
:104B5000FB7903F00F03043B1201D2B20B441A7627
:104B600000BF0C37BD465DF8047B704700E100E0F4
:104B700000ED00E080B489B000AFF860B9607A6001
:104B8000FB6803F00703FB61FB69C3F10703042B18
:104B900028BF0423BB61FB690433062B02D9FB69E0
:104BA000033B00E000237B614FF0FF32BB6902FA58
:104BB00003F3DA43BB681A407B699A404FF0FF3138
:104BC0007B6901FA03F3D9437B680B401343184612
:104BD0002437BD465DF8047B7047000080B582B085
:104BE00000AF78607B68013BB3F1807F01D3012384
:104BF0000FE00A4A7B68013B53600F214FF0FF3002
:104C0000FFF78EFF054B00229A60044B07221A60C3
:104C1000002318460837BD4680BD00BF10E000E005
:104C200080B582B000AF78607868FFF729FF00BFD9
:104C30000837BD4680BD80B586B000AF0346B96079
:104C40007A60FB7300237B61FFF73EFF78617A682F
:104C5000B9687869FFF78EFF024697F90F30114661
:104C60001846FFF75DFF00BF1837BD4680BD80B511
:104C700082B000AF0346FB7197F907301846FFF783
:104C800031FF00BF0837BD4680BD80B582B000AFA0
:104C900078607868FFF7A2FF034618460837BD46DC
:104CA00080BD80B584B000AF78607B689B6DFB6091
:104CB000FFF7B6FEB8607B6893F83530DBB2022BA5
:104CC00008D07B6880225A657B68002283F83420F4
:104CD000012352E07B681B681A687B681B6822F01E
:104CE00016021A607B681B685A697B681B6822F091
:104CF00080025A617B681B6C002B03D17B689B6C24
:104D0000002B07D07B681B681A687B681B6822F041
:104D100008021A607B681B681A687B681B6822F0AF
:104D200001021A6013E0FFF77BFE0246BB68D31A4C
:104D3000052B0CD97B6820225A657B68032283F8F7
:104D400035207B68002283F83420032315E07B683C
:104D50001B681B6803F00103002BE4D17B68DB6D4B
:104D60003F229A40FB689A607B68012283F83520D5
:104D70007B68002283F83420002318461037BD4694
:104D800080BD80B483B000AF78607B6893F8353025
:104D9000DBB2022B04D07B6880225A6501230CE031
:104DA0007B68052283F835207B681B681A687B685E
:104DB0001B6822F001021A60002318460C37BD461A
:104DC0005DF8047B7047000080B489B000AF786064
:104DD000396000237B6100233B610023BB6100231A
:104DE000FB616BE10122FB6902FA03F37B613B6823
:104DF0001B687A6913403B613A697B699A4240F0CB
:104E00005A813B685B6803F00303012B05D03B68C4
:104E10005B6803F00303022B30D17B689B68BB61A6
:104E2000FB695B00032202FA03F3DB43BA69134018
:104E3000BB613B68DA68FB695B0002FA03F3BA699D
:104E40001343BB617B68BA699A607B685B68BB612E
:104E50000122FB6902FA03F3DB43BA691340BB6129
:104E60003B685B681B0903F00102FB6902FA03F36C
:104E7000BA691343BB617B68BA695A603B685B6877
:104E800003F00303032B17D07B68DB68BB61FB696E
:104E90005B00032202FA03F3DB43BA691340BB61F0
:104EA0003B689A68FB695B0002FA03F3BA69134333
:104EB000BB617B68BA69DA603B685B6803F0030337
:104EC000022B23D1FB69DA087B68083253F82230C1
:104ED000BB61FB6903F007039B000F2202FA03F397
:104EE000DB43BA691340BB613B681A69FB6903F095
:104EF00007039B0002FA03F3BA691343BB61FB6922
:104F0000DA087B680832B96943F822107B681B68AD
:104F1000BB61FB695B00032202FA03F3DB43BA695E
:104F20001340BB613B685B6803F00302FB695B00F5
:104F300002FA03F3BA691343BB617B68BA691A606A
:104F40003B685B6803F44033002B00F0B48000231F
:104F5000FB60604B5B6C5F4A43F4804353645D4B82
:104F60005B6C03F48043FB60FB685B4AFB699B0856
:104F7000023352F82330BB61FB6903F003039B004B
:104F80000F2202FA03F3DB43BA691340BB617B686B
:104F9000524A93422BD07B68514A934225D07B687A
:104FA000504A93421FD07B684F4A934219D07B6886
:104FB0004E4A934213D07B684D4A93420DD07B6892
:104FC0004C4A934207D07B684B4A934201D1072356
:104FD0000EE008230CE006230AE0052308E0042382
:104FE00006E0032304E0022302E0012300E00023A3
:104FF000FA6902F0030292009340BA691343BB615D
:105000003549FB699B080233BA6941F823203B4BC1
:105010009B68BB613B69DB43BA691340BB613B687A
:105020005B6803F48013002B03D0BA693B69134318
:10503000BB61324ABB699360304BDB68BB613B6943
:10504000DB43BA691340BB613B685B6803F4001340
:10505000002B03D0BA693B691343BB61274ABB6984
:10506000D360264B5B68BB613B69DB43BA69134085
:10507000BB613B685B6803F40033002B03D0BA6963
:105080003B691343BB611D4ABB6953601B4B1B68E3
:10509000BB613B69DB43BA691340BB613B685B683A
:1050A00003F48033002B03D0BA693B691343BB611F
:1050B000124ABB691360FB690133FB61FB690F2B6B
:1050C0007FF690AE00BF00BF2437BD465DF8047B7D
:1050D000704700BF00380240003801400000024025
:1050E0000004024000080240000C02400010024090
:1050F0000014024000180240001C0240003C014025
:1051000080B483B000AF78600B467B8013467B7021
:105110007B78002B03D07A887B689A6103E07B88D8
:105120001A047B689A6100BF0C37BD465DF8047BAA
:105130007047000080B586B000AF78607B68002BB8
:1051400001D1012367E27B681B6803F00103002B98
:1051500075D0884B9B6803F00C03042B0CD0854B57
:105160009B6803F00C03082B12D1824B5B6803F49D
:105170008003B3F5800F0BD17E4B1B6803F4003323
:10518000002B5BD07B685B68002B57D1012342E288
:105190007B685B68B3F5803F06D1764B1B68754A28
:1051A00043F4803313601DE07B685B68B3F5A02F88
:1051B0000CD1704B1B686F4A43F4802313606D4B16
:1051C0001B686C4A43F4803313600BE0694B1B6827
:1051D000684A23F480331360664B1B68654A23F4E6
:1051E000802313607B685B68002B13D0FFF718FCEB
:1051F000386108E0FFF714FC02463B69D31A642BC0
:1052000001D9032307E25B4B1B6803F40033002B37
:10521000F0D014E0FFF704FC386108E0FFF700FC71
:1052200002463B69D31A642B01D90323F3E1514BA6
:105230001B6803F40033002BF0D100E000BF7B6853
:105240001B6803F00203002B63D04A4B9B6803F0FA
:105250000C03002B0BD0474B9B6803F00C03082B6F
:105260001CD1444B5B6803F48003002B16D1414BE7
:105270001B6803F00203002B05D07B68DB68012B61
:1052800001D00123C7E13B4B1B6823F0F8027B6888
:105290001B69DB00374913430B603AE07B68DB682E
:1052A000002B20D0344B01221A60FFF7B9FB386184
:1052B00008E0FFF7B5FB02463B69D31A022B01D980
:1052C0000323A8E12B4B1B6803F00203002BF0D053
:1052D000284B1B6823F0F8027B681B69DB0025491B
:1052E00013430B6015E0244B00221A60FFF798FB74
:1052F000386108E0FFF794FB02463B69D31A022BA2
:1053000001D9032387E11B4B1B6803F00203002B29
:10531000F0D17B681B6803F00803002B36D07B6854
:105320005B69002B16D0154B01221A60FFF778FB42
:10533000386108E0FFF774FB02463B69D31A022B81
:1053400001D9032367E10B4B5B6F03F00203002BD2
:10535000F0D01BE0094B00221A60FFF761FB3861B7
:105360000EE0FFF75DFB02463B69D31A022B07D91B
:10537000032350E10038024000004742800E4742BC
:10538000884B5B6F03F00203002BEAD17B681B683C
:1053900003F00403002B00F097800023FB75814B82
:1053A0001B6C03F08053002B0FD10023BB607D4B9F
:1053B0001B6C7C4A43F0805313647A4B1B6C03F0E4
:1053C0008053BB60BB680123FB75774B1B6803F4FC
:1053D0008073002B18D1744B1B68734A43F480739D
:1053E0001360FFF71DFB386108E0FFF719FB024669
:1053F0003B69D31A022B01D903230CE16A4B1B68CA
:1054000003F48073002BF0D07B689B68012B06D1DE
:10541000644B1B6F634A43F0010313671CE07B6816
:105420009B68052B0CD15F4B1B6F5E4A43F0040356
:1054300013675C4B1B6F5B4A43F0010313670BE080
:10544000584B1B6F574A23F001031367554B1B6FD3
:10545000544A23F0040313677B689B68002B15D024
:10546000FFF7DEFA38610AE0FFF7DAFA02463B6935
:10547000D31A41F28832934201D90323CBE0494B3E
:105480001B6F03F00203002BEED014E0FFF7C8FA05
:1054900038610AE0FFF7C4FA02463B69D31A41F2C9
:1054A0008832934201D90323B5E03E4B1B6F03F0D2
:1054B0000203002BEED1FB7D012B05D1394B1B6C78
:1054C000384A23F0805313647B689B69002B00F0FB
:1054D000A180344B9B6803F00C03082B5CD07B68E5
:1054E0009B69022B41D1314B00221A60FFF798FAD9
:1054F000386108E0FFF794FA02463B69D31A022BA1
:1055000001D9032387E0274B1B6803F00073002BAE
:10551000F0D17B68DA697B681B6A1A437B685B6A37
:105520009B011A437B689B6A5B08013B1B041A437F
:105530007B68DB6A1B061B4913434B601B4B012234
:105540001A60FFF76DFA386108E0FFF769FA024662
:105550003B69D31A022B01D903235CE0114B1B6872
:1055600003F00073002BF0D054E0104B00221A60BF
:10557000FFF756FA386108E0FFF752FA02463B6936
:10558000D31A022B01D9032345E0064B1B6803F015
:105590000073002BF0D13DE07B689B69012B07D1A4
:1055A000012338E0003802400070004060004742AC
:1055B0001B4B5B68FB607B689B69012B28D0FB68F9
:1055C00003F480027B68DB699A4221D1FB6803F017
:1055D0003F027B681B6A9A421AD1FA6847F6C07389
:1055E00013407A68526A9201934211D1FB6803F426
:1055F00040327B689B6A5B08013B1B049A4207D1DF
:10560000FB6803F070627B68DB6A1B069A4201D07C
:10561000012300E0002318461837BD4680BD00BFB7
:105620000038024080B584B000AF786039607B6894
:10563000002B01D10123CCE0684B1B6803F007036A
:105640003A689A420CD9654B3A68D2B21A70634BE9
:105650001B6803F007033A689A4201D00123B8E0BF
:105660007B681B6803F00203002B20D07B681B685B
:1056700003F00403002B05D0594B9B68584A43F4B0
:10568000E05393607B681B6803F00803002B05D090
:10569000534B9B68524A43F460439360504B9B6862
:1056A00023F0F0027B689B684D4913438B607B6855
:1056B0001B6803F00103002B44D07B685B68012B5F
:1056C00007D1474B1B6803F40033002B19D101238A
:1056D0007FE07B685B68022B03D07B685B68032BF1
:1056E00007D13F4B1B6803F00073002B09D1012346
:1056F0006FE03B4B1B6803F00203002B01D1012339
:1057000067E0374B9B6823F003027B685B68344992
:1057100013438B60FFF784F9F8600AE0FFF780F924
:105720000246FB68D31A41F28832934201D903231F
:105730004FE02B4B9B6803F00C027B685B689B007F
:105740009A42EBD1254B1B6803F007033A689A4253
:105750000CD2224B3A68D2B21A70204B1B6803F06D
:1057600007033A689A4201D0012332E07B681B6844
:1057700003F00403002B08D0194B9B6823F4E0527C
:105780007B68DB68164913438B607B681B6803F0FA
:105790000803002B09D0124B9B6823F460427B68FE
:1057A0001B69DB000E4913438B6000F021F80246B1
:1057B0000B4B9B681B0903F00F030A49CB5C22FAD1
:1057C00003F3094A1360094B1B681846FFF7E4F816
:1057D000002318461037BD4680BD00BF003C024084
:1057E0000038024018F000080400002008000020E3
:1057F0002DE9B04F94B000AF00237B640023FB641D
:1058000000233B640023BB64794B9B6803F00C03CB
:10581000082B0DD0082B00F2E180002B02D0042BC6
:1058200003D0DBE0734BBB64DBE0734BBB64D8E0BD
:105830006F4B5B6803F03F037B646D4B5B6803F465
:105840008003002B63D06A4B5B689B090022BB631B
:10585000FA63BB6BC3F308033B6300237B63D7E9A5
:105860000C4522462B464FF000004FF00001590135
:1058700041EAD261500102460B462146511A396174
:10588000294663EB01037B614FF000024FF00003F8
:10589000D7E904AB59468B01514643EA916351461F
:1058A0008A015146B2EB0108594663EB01094FF0FA
:1058B00000024FF000034FEAC90343EA58734FEA6E
:1058C000C80290469946234618EB0303BB602B465B
:1058D00049EB0303FB604FF000024FF00003D7E9F0
:1058E000024529464B02214643EAD15321464A024A
:1058F000104619467B6C0022BB62FA62D7E90A2384
:10590000FAF7CEFC02460B461346FB6458E0384BD0
:105910005B689B09002218461146C0F308033B62EE
:1059200000237B62D7E9088942464B464FF00000CE
:105930004FF00001590141EAD261500102460B4685
:105940004146B2EB010A494663EB010B4FF00002FE
:105950004FF000034FEA8B1343EA9A634FEA8A122F
:10596000B2EB0A0463EB0B054FF000024FF00003AB
:10597000EB0043EA5473E20014461D464346E31825
:105980003B604B4645EB03037B604FF000024FF05A
:105990000003D7E9004529468B02214643EA91538B
:1059A00021468A02104619467B6C0022BB61FA61CF
:1059B000D7E90623FAF774FC02460B461346FB644C
:1059C0000B4B5B681B0C03F0030301335B003B6470
:1059D000FA6C3B6CB2FBF3F3BB6402E0054BBB64B7
:1059E00000BFBB6C18465037BD46BDE8B08F00BF46
:1059F000003802400024F40000127A0080B400AFA6
:105A0000034B1B681846BD465DF8047B704700BF1A
:105A10000400002080B500AFFFF7F0FF0246054B01
:105A20009B689B0A03F007030349CB5C22FA03F34C
:105A3000184680BD0038024028F0000880B500AF4D
:105A4000FFF7DCFF0246054B9B685B0B03F0070387
:105A50000349CB5C22FA03F3184680BD00380240AC
:105A600028F0000880B586B000AF786000237B6125
:105A700000233B617B681B6803F00103002B05D109
:105A80007B681B6803F00403002B35D0624B0022B7
:105A90001A60FEF7C5FF786108E0FEF7C1FF024615
:105AA0007B69D31A022B01D90323B0E05B4B1B683F
:105AB00003F00063002BF0D17B685B689A017B6880
:105AC0009B681B0755491343C1F88430524B012290
:105AD0001A60FEF7A5FF786108E0FEF7A1FF024615
